{"abi":[{"type":"constructor","inputs":[{"name":"_admin","type":"address","internalType":"address"},{"name":"_softwareToken","type":"address","internalType":"address"},{"name":"_protocolTreasury","type":"address","internalType":"address"}],"stateMutability":"nonpayable"},{"type":"function","name":"ADMIN_ROLE","inputs":[],"outputs":[{"name":"","type":"bytes32","internalType":"bytes32"}],"stateMutability":"view"},{"type":"function","name":"AGENT_OPERATOR_ROLE","inputs":[],"outputs":[{"name":"","type":"bytes32","internalType":"bytes32"}],"stateMutability":"view"},{"type":"function","name":"DEFAULT_ADMIN_ROLE","inputs":[],"outputs":[{"name":"","type":"bytes32","internalType":"bytes32"}],"stateMutability":"view"},{"type":"function","name":"SOFTWARE_TOKEN","inputs":[],"outputs":[{"name":"","type":"address","internalType":"contract IERC20"}],"stateMutability":"view"},{"type":"function","name":"SOFTWARE_TOLL_BPS","inputs":[],"outputs":[{"name":"","type":"uint256","internalType":"uint256"}],"stateMutability":"view"},{"type":"function","name":"activationFeeNative","inputs":[],"outputs":[{"name":"","type":"uint256","internalType":"uint256"}],"stateMutability":"view"},{"type":"function","name":"agentList","inputs":[{"name":"","type":"uint256","internalType":"uint256"}],"outputs":[{"name":"","type":"address","internalType":"address"}],"stateMutability":"view"},{"type":"function","name":"agents","inputs":[{"name":"","type":"address","internalType":"address"}],"outputs":[{"name":"creator","type":"address","internalType":"address"},{"name":"operator","type":"address","internalType":"address"},{"name":"llmProvider","type":"string","internalType":"string"},{"name":"signalPrice","type":"uint256","internalType":"uint256"},{"name":"registeredAt","type":"uint256","internalType":"uint256"},{"name":"signalCount","type":"uint256","internalType":"uint256"},{"name":"active","type":"bool","internalType":"bool"}],"stateMutability":"view"},{"type":"function","name":"deactivateAgent","inputs":[{"name":"operator","type":"address","internalType":"address"}],"outputs":[],"stateMutability":"nonpayable"},{"type":"function","name":"getAgentCount","inputs":[],"outputs":[{"name":"","type":"uint256","internalType":"uint256"}],"stateMutability":"view"},{"type":"function","name":"getRoleAdmin","inputs":[{"name":"role","type":"bytes32","internalType":"bytes32"}],"outputs":[{"name":"","type":"bytes32","internalType":"bytes32"}],"stateMutability":"view"},{"type":"function","name":"grantRole","inputs":[{"name":"role","type":"bytes32","internalType":"bytes32"},{"name":"account","type":"address","internalType":"address"}],"outputs":[],"stateMutability":"nonpayable"},{"type":"function","name":"hasRole","inputs":[{"name":"role","type":"bytes32","internalType":"bytes32"},{"name":"account","type":"address","internalType":"address"}],"outputs":[{"name":"","type":"bool","internalType":"bool"}],"stateMutability":"view"},{"type":"function","name":"latestAuditCid","inputs":[{"name":"","type":"address","internalType":"address"}],"outputs":[{"name":"","type":"string","internalType":"string"}],"stateMutability":"view"},{"type":"function","name":"nonces","inputs":[{"name":"","type":"address","internalType":"address"}],"outputs":[{"name":"","type":"uint256","internalType":"uint256"}],"stateMutability":"view"},{"type":"function","name":"pause","inputs":[],"outputs":[],"stateMutability":"nonpayable"},{"type":"function","name":"paused","inputs":[],"outputs":[{"name":"","type":"bool","internalType":"bool"}],"stateMutability":"view"},{"type":"function","name":"protocolTreasury","inputs":[],"outputs":[{"name":"","type":"address","internalType":"address"}],"stateMutability":"view"},{"type":"function","name":"purchaseAgentSignal","inputs":[{"name":"operator","type":"address","internalType":"address"}],"outputs":[],"stateMutability":"nonpayable"},{"type":"function","name":"recordSignal","inputs":[{"name":"operator","type":"address","internalType":"address"},{"name":"nonce","type":"uint256","internalType":"uint256"},{"name":"ipfsCid","type":"string","internalType":"string"}],"outputs":[],"stateMutability":"nonpayable"},{"type":"function","name":"registerAgent","inputs":[{"name":"operator","type":"address","internalType":"address"},{"name":"llmProvider","type":"string","internalType":"string"},{"name":"initialSignalPrice","type":"uint256","internalType":"uint256"}],"outputs":[],"stateMutability":"payable"},{"type":"function","name":"renounceRole","inputs":[{"name":"role","type":"bytes32","internalType":"bytes32"},{"name":"callerConfirmation","type":"address","internalType":"address"}],"outputs":[],"stateMutability":"nonpayable"},{"type":"function","name":"revokeRole","inputs":[{"name":"role","type":"bytes32","internalType":"bytes32"},{"name":"account","type":"address","internalType":"address"}],"outputs":[],"stateMutability":"nonpayable"},{"type":"function","name":"setProtocolTreasury","inputs":[{"name":"_newTreasury","type":"address","internalType":"address"}],"outputs":[],"stateMutability":"nonpayable"},{"type":"function","name":"setSignalPrice","inputs":[{"name":"operator","type":"address","internalType":"address"},{"name":"newPrice","type":"uint256","internalType":"uint256"}],"outputs":[],"stateMutability":"nonpayable"},{"type":"function","name":"supportsInterface","inputs":[{"name":"interfaceId","type":"bytes4","internalType":"bytes4"}],"outputs":[{"name":"","type":"bool","internalType":"bool"}],"stateMutability":"view"},{"type":"function","name":"unpause","inputs":[],"outputs":[],"stateMutability":"nonpayable"},{"type":"function","name":"updateActivationFeeNative","inputs":[{"name":"_newFee","type":"uint256","internalType":"uint256"}],"outputs":[],"stateMutability":"nonpayable"},{"type":"event","name":"AgentDeactivated","inputs":[{"name":"operator","type":"address","indexed":true,"internalType":"address"}],"anonymous":false},{"type":"event","name":"AgentLicensingActivated","inputs":[{"name":"creator","type":"address","indexed":true,"internalType":"address"},{"name":"operator","type":"address","indexed":true,"internalType":"address"},{"name":"activationFee","type":"uint256","indexed":false,"internalType":"uint256"}],"anonymous":false},{"type":"event","name":"Paused","inputs":[{"name":"account","type":"address","indexed":false,"internalType":"address"}],"anonymous":false},{"type":"event","name":"RoleAdminChanged","inputs":[{"name":"role","type":"bytes32","indexed":true,"internalType":"bytes32"},{"name":"previousAdminRole","type":"bytes32","indexed":true,"internalType":"bytes32"},{"name":"newAdminRole","type":"bytes32","indexed":true,"internalType":"bytes32"}],"anonymous":false},{"type":"event","name":"RoleGranted","inputs":[{"name":"role","type":"bytes32","indexed":true,"internalType":"bytes32"},{"name":"account","type":"address","indexed":true,"internalType":"address"},{"name":"sender","type":"address","indexed":true,"internalType":"address"}],"anonymous":false},{"type":"event","name":"RoleRevoked","inputs":[{"name":"role","type":"bytes32","indexed":true,"internalType":"bytes32"},{"name":"account","type":"address","indexed":true,"internalType":"address"},{"name":"sender","type":"address","indexed":true,"internalType":"address"}],"anonymous":false},{"type":"event","name":"SignalMarketplacePurchase","inputs":[{"name":"buyer","type":"address","indexed":true,"internalType":"address"},{"name":"operator","type":"address","indexed":true,"internalType":"address"},{"name":"softwareToll","type":"uint256","indexed":false,"internalType":"uint256"},{"name":"agentRevenue","type":"uint256","indexed":false,"internalType":"uint256"}],"anonymous":false},{"type":"event","name":"SignalPriceUpdated","inputs":[{"name":"operator","type":"address","indexed":true,"internalType":"address"},{"name":"newPrice","type":"uint256","indexed":false,"internalType":"uint256"}],"anonymous":false},{"type":"event","name":"SignalRecorded","inputs":[{"name":"operator","type":"address","indexed":true,"internalType":"address"},{"name":"nonce","type":"uint256","indexed":false,"internalType":"uint256"},{"name":"ipfsCid","type":"string","indexed":false,"internalType":"string"}],"anonymous":false},{"type":"event","name":"Unpaused","inputs":[{"name":"account","type":"address","indexed":false,"internalType":"address"}],"anonymous":false},{"type":"error","name":"AccessControlBadConfirmation","inputs":[]},{"type":"error","name":"AccessControlUnauthorizedAccount","inputs":[{"name":"account","type":"address","internalType":"address"},{"name":"neededRole","type":"bytes32","internalType":"bytes32"}]},{"type":"error","name":"AgentAlreadyRegistered","inputs":[]},{"type":"error","name":"AgentNotActive","inputs":[]},{"type":"error","name":"EnforcedPause","inputs":[]},{"type":"error","name":"ExpectedPause","inputs":[]},{"type":"error","name":"InsufficientAllowance","inputs":[]},{"type":"error","name":"InvalidNonce","inputs":[]},{"type":"error","name":"ReentrancyGuardReentrantCall","inputs":[]},{"type":"error","name":"SafeERC20FailedOperation","inputs":[{"name":"token","type":"address","internalType":"address"}]},{"type":"error","name":"UnauthorizedCreator","inputs":[]}],"bytecode":{"object":"0x60a0346100f357601f6122b238819003918201601f19168301916001600160401b038311848410176100f7578084926060946040528339810103126100f3576100478161010b565b906100a2610063604061005c6020850161010b565b930161010b565b9260017f9b779b17422d0df92223018b32b4d1fa46e071723d6817e2486d003becc55f00556605543df729c00060025561009c8161011f565b50610195565b506001600160a01b031660805260018054610100600160a81b03191660089290921b610100600160a81b0316919091179055604051612029908161022982396080518181816102c40152610c430152f35b5f80fd5b634e487b7160e01b5f52604160045260245ffd5b51906001600160a01b03821682036100f357565b6001600160a01b0381165f9081525f80516020612292833981519152602052604090205460ff16610190576001600160a01b03165f8181525f8051602061229283398151915260205260408120805460ff191660011790553391905f805160206122528339815191528180a4600190565b505f90565b6001600160a01b0381165f9081525f80516020612272833981519152602052604090205460ff16610190576001600160a01b03165f8181525f8051602061227283398151915260205260408120805460ff191660011790553391907fa49807205ce4d355092ef5a8a18f56e8913cf4a201fbe287825b095693c21775905f805160206122528339815191529080a460019056fe6080806040526004361015610012575f80fd5b5f3560e01c9081630140aed2146116a55750806301ffc9a7146115e65780630c5a61f81461155e578063184db5f2146110615780631f36fd3514610f81578063248a9ca314610f315780632f2ff15d14610ed65780632f80c54f14610e6a57806336568abe14610de25780633f4ba83a14610d275780635c975abb14610ce7578063750d0cb214610b5c57806375b238fc14610b045780637ecebe0014610aa1578063803db96d14610a4d5780638456cb59146109b957806391cab63e1461097e57806391d148541461090a5780639c24c9871461054f578063a1dcf282146104f7578063a217fddf146104bf578063b0a0a92714610404578063d547741f146103a2578063d65edcca14610363578063e608dc2c146102e8578063f5f3bf6c1461027a578063f8e6fcb5146102415763fd66091e14610150575f80fd5b3461023d5760207ffffffffffffffffffffffffffffffffffffffffffffffffffffffffffffffffc36011261023d5773ffffffffffffffffffffffffffffffffffffffff61019c6116dd565b165f52600360205260405f2073ffffffffffffffffffffffffffffffffffffffff81541673ffffffffffffffffffffffffffffffffffffffff600183015416916101e860028201611828565b600382015491600481015461022260ff6006600585015494015416936040519788978852602088015260e0604088015260e08701906118e6565b936060860152608085015260a0840152151560c08301520390f35b5f80fd5b3461023d575f7ffffffffffffffffffffffffffffffffffffffffffffffffffffffffffffffffc36011261023d57602060405160648152f35b3461023d575f7ffffffffffffffffffffffffffffffffffffffffffffffffffffffffffffffffc36011261023d57602060405173ffffffffffffffffffffffffffffffffffffffff7f0000000000000000000000000000000000000000000000000000000000000000168152f35b3461023d5760207ffffffffffffffffffffffffffffffffffffffffffffffffffffffffffffffffc36011261023d5773ffffffffffffffffffffffffffffffffffffffff6103346116dd565b165f52600660205261035f61034b60405f20611828565b6040519182916020835260208301906118e6565b0390f35b3461023d5760207ffffffffffffffffffffffffffffffffffffffffffffffffffffffffffffffffc36011261023d5761039a6119df565b600435600255005b3461023d5760407ffffffffffffffffffffffffffffffffffffffffffffffffffffffffffffffffc36011261023d576104026004356103df611700565b906103fd6103f8825f525f602052600160405f20015490565b611a67565b611e55565b005b3461023d5760207ffffffffffffffffffffffffffffffffffffffffffffffffffffffffffffffffc36011261023d5761043b6116dd565b6104436119df565b61049873ffffffffffffffffffffffffffffffffffffffff821691825f526003602052600660405f20017fffffffffffffffffffffffffffffffffffffffffffffffffffffffffffffff008154169055611d53565b507fa58c733780f5c1527d6106ff1e731cbf2e9ffc0eb11ad399ca33ea55f057ddf45f80a2005b3461023d575f7ffffffffffffffffffffffffffffffffffffffffffffffffffffffffffffffffc36011261023d5760206040515f8152f35b3461023d575f7ffffffffffffffffffffffffffffffffffffffffffffffffffffffffffffffffc36011261023d5760206040517f2fbb137a62ebd69bc6a41f4b4e96301da2105eef211fb1a3c75e8cfb9bfe78798152f35b3461023d5760607ffffffffffffffffffffffffffffffffffffffffffffffffffffffffffffffffc36011261023d576105866116dd565b6024359060443567ffffffffffffffff811161023d576105aa903690600401611723565b335f9081527fe8424ec1ecf42e9e88998e7da204f6091f75a50979eee18faf18b49b474940b0602052604090205490929060ff16156108ba5773ffffffffffffffffffffffffffffffffffffffff1691825f52600360205260ff600660405f200154161561089257825f52600560205260405f2054840361086a57825f52600560205260405f2061063b81546119b2565b9055825f526003602052600560405f200161065681546119b2565b9055825f52600660205260405f2067ffffffffffffffff821161083d57610687826106818354611796565b83611963565b5f601f831160011461075457601f837f978eeb38ebabdfe833f0931a9a09605b30ca5eee077bbe882570668c4f188db196979361071b826060977fffffffffffffffffffffffffffffffffffffffffffffffffffffffffffffffe0965f91610749575b507fffffffffffffffffffffffffffffffffffffffffffffffffffffffffffffffff8260011b9260031b1c19161790565b90555b80604051968795865260406020870152816040870152868601375f85828601015201168101030190a2005b90508901358c6106ea565b7fffffffffffffffffffffffffffffffffffffffffffffffffffffffffffffffe0831690825f5260205f20915f5b8181106108255750937f978eeb38ebabdfe833f0931a9a09605b30ca5eee077bbe882570668c4f188db19697937fffffffffffffffffffffffffffffffffffffffffffffffffffffffffffffffe093601f9383606098106107ed575b5050600182811b01905561071e565b7fffffffffffffffffffffffffffffffffffffffffffffffffffffffffffffffff60f88560031b161c199089013516905589806107de565b9192602060018192868a013581550194019201610782565b7f4e487b71000000000000000000000000000000000000000000000000000000005f52604160045260245ffd5b7f756688fe000000000000000000000000000000000000000000000000000000005f5260045ffd5b7f486fcee2000000000000000000000000000000000000000000000000000000005f5260045ffd5b7fe2517d3f000000000000000000000000000000000000000000000000000000005f52336004527f2fbb137a62ebd69bc6a41f4b4e96301da2105eef211fb1a3c75e8cfb9bfe787960245260445ffd5b3461023d5760407ffffffffffffffffffffffffffffffffffffffffffffffffffffffffffffffffc36011261023d57610941611700565b6004355f525f60205273ffffffffffffffffffffffffffffffffffffffff60405f2091165f52602052602060ff60405f2054166040519015158152f35b3461023d575f7ffffffffffffffffffffffffffffffffffffffffffffffffffffffffffffffffc36011261023d576020600454604051908152f35b3461023d575f7ffffffffffffffffffffffffffffffffffffffffffffffffffffffffffffffffc36011261023d576109ef6119df565b6109f7611b44565b60017fffffffffffffffffffffffffffffffffffffffffffffffffffffffffffffff00815416176001557f62e78cea01bee320cd4e420270b5ea74000d11b0c9f74754ebdbfc544b05a2586020604051338152a1005b3461023d575f7ffffffffffffffffffffffffffffffffffffffffffffffffffffffffffffffffc36011261023d57602073ffffffffffffffffffffffffffffffffffffffff60015460081c16604051908152f35b3461023d5760207ffffffffffffffffffffffffffffffffffffffffffffffffffffffffffffffffc36011261023d5773ffffffffffffffffffffffffffffffffffffffff610aed6116dd565b165f526005602052602060405f2054604051908152f35b3461023d575f7ffffffffffffffffffffffffffffffffffffffffffffffffffffffffffffffffc36011261023d5760206040517fa49807205ce4d355092ef5a8a18f56e8913cf4a201fbe287825b095693c217758152f35b3461023d5760207ffffffffffffffffffffffffffffffffffffffffffffffffffffffffffffffffc36011261023d5773ffffffffffffffffffffffffffffffffffffffff610ba86116dd565b610bb0611acd565b610bb8611b44565b16805f52600360205260405f2060ff6006820154161561089257600381015480158015610c06575b60017f9b779b17422d0df92223018b32b4d1fa46e071723d6817e2486d003becc55f0055005b60648202908282046064141715610cba57612710900491828203918211610cba5781610c809173ffffffffffffffffffffffffffffffffffffffff7f000000000000000000000000000000000000000000000000000000000000000091610c76878360015460081c163386611f1d565b5416903390611f1d565b60405191825260208201527f2ab1b0fad7b07a89a90c1f8df2666f33d77de26dc6b07cd58a831b305db748e560403392a380808080610be0565b7f4e487b71000000000000000000000000000000000000000000000000000000005f52601160045260245ffd5b3461023d575f7ffffffffffffffffffffffffffffffffffffffffffffffffffffffffffffffffc36011261023d57602060ff600154166040519015158152f35b3461023d575f7ffffffffffffffffffffffffffffffffffffffffffffffffffffffffffffffffc36011261023d57610d5d6119df565b60015460ff811615610dba577fffffffffffffffffffffffffffffffffffffffffffffffffffffffffffffff00166001557f5db9ee0a495bf2e6ff9c91a7834c1ba4fdd244a5e8aa4e537bd38aeae4b073aa6020604051338152a1005b7f8dfc202b000000000000000000000000000000000000000000000000000000005f5260045ffd5b3461023d5760407ffffffffffffffffffffffffffffffffffffffffffffffffffffffffffffffffc36011261023d57610e19611700565b3373ffffffffffffffffffffffffffffffffffffffff821603610e425761040290600435611e55565b7f6697b232000000000000000000000000000000000000000000000000000000005f5260045ffd5b3461023d5760207ffffffffffffffffffffffffffffffffffffffffffffffffffffffffffffffffc36011261023d5760043560045481101561023d5773ffffffffffffffffffffffffffffffffffffffff610ec6602092611751565b90549060031b1c16604051908152f35b3461023d5760407ffffffffffffffffffffffffffffffffffffffffffffffffffffffffffffffffc36011261023d57610402600435610f13611700565b90610f2c6103f8825f525f602052600160405f20015490565b611c81565b3461023d5760207ffffffffffffffffffffffffffffffffffffffffffffffffffffffffffffffffc36011261023d576020610f796004355f525f602052600160405f20015490565b604051908152f35b3461023d5760407ffffffffffffffffffffffffffffffffffffffffffffffffffffffffffffffffc36011261023d57610fb86116dd565b73ffffffffffffffffffffffffffffffffffffffff602435911690815f52600360205273ffffffffffffffffffffffffffffffffffffffff60405f20541633036110395760207f9333dcbba706884b39f2f76b08fbcf66c7c6fd12d8fe3630aff64b86b2d5fe4191835f526003825280600360405f200155604051908152a2005b7f8ef0dd5d000000000000000000000000000000000000000000000000000000005f5260045ffd5b60607ffffffffffffffffffffffffffffffffffffffffffffffffffffffffffffffffc36011261023d576110936116dd565b60243567ffffffffffffffff811161023d576110b3903690600401611723565b90916110bd611acd565b6110c5611b44565b60025434036115005773ffffffffffffffffffffffffffffffffffffffff811691825f526003602052600460405f2001546114d8575f8080803473ffffffffffffffffffffffffffffffffffffffff60015460081c165af13d156114d3573d61112d81611929565b9061113b60405192836117e7565b81525f60203d92013e5b156114755760405160e0810181811067ffffffffffffffff82111761083d57604052338152602081019184835261117b81611929565b9561118960405197886117e7565b818752368282011161023d57815f92602092838a013787010152604081019485526060810160443581526080820142815260a08301915f835273ffffffffffffffffffffffffffffffffffffffff60c085019560018752885f526003602052818060405f20975116167fffffffffffffffffffffffff0000000000000000000000000000000000000000875416178655511673ffffffffffffffffffffffffffffffffffffffff6001860191167fffffffffffffffffffffffff000000000000000000000000000000000000000082541617905560028401975197885167ffffffffffffffff811161083d57611289816112838454611796565b84611963565b6020601f82116001146113d15790806112db926006999a9b9c5f926113c6575b50507fffffffffffffffffffffffffffffffffffffffffffffffffffffffffffffffff8260011b9260031b1c19161790565b90555b516003840155516004830155516005820155019051151560ff7fffffffffffffffffffffffffffffffffffffffffffffffffffffffffffffff008354169116179055600454906801000000000000000082101561083d576113488260016113739401600455611751565b81549060031b9073ffffffffffffffffffffffffffffffffffffffff86831b921b1916179055611b78565b506040513481527f43a1cfc5ceeea657a28b620c431182b93f1e8f26f063ab8201b1bb919ad5754260203392a360017f9b779b17422d0df92223018b32b4d1fa46e071723d6817e2486d003becc55f0055005b015190508c806112a9565b7fffffffffffffffffffffffffffffffffffffffffffffffffffffffffffffffe082169a835f52815f209b5f5b81811061145d5750916006999a9b9c91846001959410611426575b505050811b0190556112de565b01517fffffffffffffffffffffffffffffffffffffffffffffffffffffffffffffffff60f88460031b161c191690558b8080611419565b838301518e556001909d019c602093840193016113fe565b60646040517f08c379a000000000000000000000000000000000000000000000000000000000815260206004820152601860248201527f5472656173757279207472616e73666572206661696c656400000000000000006044820152fd5b611145565b7fe098d3ee000000000000000000000000000000000000000000000000000000005f5260045ffd5b60646040517f08c379a000000000000000000000000000000000000000000000000000000000815260206004820152601960248201527f4578616374206e617469766520666565207265717569726564000000000000006044820152fd5b3461023d5760207ffffffffffffffffffffffffffffffffffffffffffffffffffffffffffffffffc36011261023d576115956116dd565b61159d6119df565b7fffffffffffffffffffffff0000000000000000000000000000000000000000ff74ffffffffffffffffffffffffffffffffffffffff006001549260081b169116176001555f80f35b3461023d5760207ffffffffffffffffffffffffffffffffffffffffffffffffffffffffffffffffc36011261023d576004357fffffffff00000000000000000000000000000000000000000000000000000000811680910361023d57807f7965db0b000000000000000000000000000000000000000000000000000000006020921490811561167b575b506040519015158152f35b7f01ffc9a70000000000000000000000000000000000000000000000000000000091501482611670565b3461023d575f7ffffffffffffffffffffffffffffffffffffffffffffffffffffffffffffffffc36011261023d576020906002548152f35b6004359073ffffffffffffffffffffffffffffffffffffffff8216820361023d57565b6024359073ffffffffffffffffffffffffffffffffffffffff8216820361023d57565b9181601f8401121561023d5782359167ffffffffffffffff831161023d576020838186019501011161023d57565b6004548110156117695760045f5260205f2001905f90565b7f4e487b71000000000000000000000000000000000000000000000000000000005f52603260045260245ffd5b90600182811c921680156117dd575b60208310146117b057565b7f4e487b71000000000000000000000000000000000000000000000000000000005f52602260045260245ffd5b91607f16916117a5565b90601f7fffffffffffffffffffffffffffffffffffffffffffffffffffffffffffffffe0910116810190811067ffffffffffffffff82111761083d57604052565b9060405191825f82549261183b84611796565b80845293600181169081156118a65750600114611862575b50611860925003836117e7565b565b90505f9291925260205f20905f915b81831061188a575050906020611860928201015f611853565b6020919350806001915483858901015201910190918492611871565b602093506118609592507fffffffffffffffffffffffffffffffffffffffffffffffffffffffffffffff0091501682840152151560051b8201015f611853565b907fffffffffffffffffffffffffffffffffffffffffffffffffffffffffffffffe0601f602080948051918291828752018686015e5f8582860101520116010190565b67ffffffffffffffff811161083d57601f017fffffffffffffffffffffffffffffffffffffffffffffffffffffffffffffffe01660200190565b601f821161197057505050565b5f5260205f20906020601f840160051c830193106119a8575b601f0160051c01905b81811061199d575050565b5f8155600101611992565b9091508190611989565b7fffffffffffffffffffffffffffffffffffffffffffffffffffffffffffffffff8114610cba5760010190565b335f9081527f7d7ffb7a348e1c6a02869081a26547b49160dd3df72d1d75a570eb9b698292ec602052604090205460ff1615611a1757565b7fe2517d3f000000000000000000000000000000000000000000000000000000005f52336004527fa49807205ce4d355092ef5a8a18f56e8913cf4a201fbe287825b095693c2177560245260445ffd5b805f525f60205260405f2073ffffffffffffffffffffffffffffffffffffffff33165f5260205260ff60405f20541615611a9e5750565b7fe2517d3f000000000000000000000000000000000000000000000000000000005f523360045260245260445ffd5b60027f9b779b17422d0df92223018b32b4d1fa46e071723d6817e2486d003becc55f005414611b1c5760027f9b779b17422d0df92223018b32b4d1fa46e071723d6817e2486d003becc55f0055565b7f3ee5aeb5000000000000000000000000000000000000000000000000000000005f5260045ffd5b60ff60015416611b5057565b7fd93c0665000000000000000000000000000000000000000000000000000000005f5260045ffd5b73ffffffffffffffffffffffffffffffffffffffff81165f9081527fe8424ec1ecf42e9e88998e7da204f6091f75a50979eee18faf18b49b474940b0602052604090205460ff16611c7c5773ffffffffffffffffffffffffffffffffffffffff165f8181527fe8424ec1ecf42e9e88998e7da204f6091f75a50979eee18faf18b49b474940b06020526040812080547fffffffffffffffffffffffffffffffffffffffffffffffffffffffffffffff001660011790553391907f2fbb137a62ebd69bc6a41f4b4e96301da2105eef211fb1a3c75e8cfb9bfe7879907f2f8788117e7eff1d82e926ec794901d17c78024a50270940304540a733656f0d9080a4600190565b505f90565b805f525f60205260405f2073ffffffffffffffffffffffffffffffffffffffff83165f5260205260ff60405f205416155f14611d4d57805f525f60205260405f2073ffffffffffffffffffffffffffffffffffffffff83165f5260205260405f2060017fffffffffffffffffffffffffffffffffffffffffffffffffffffffffffffff0082541617905573ffffffffffffffffffffffffffffffffffffffff339216907f2f8788117e7eff1d82e926ec794901d17c78024a50270940304540a733656f0d5f80a4600190565b50505f90565b73ffffffffffffffffffffffffffffffffffffffff81165f9081527fe8424ec1ecf42e9e88998e7da204f6091f75a50979eee18faf18b49b474940b0602052604090205460ff1615611c7c5773ffffffffffffffffffffffffffffffffffffffff165f8181527fe8424ec1ecf42e9e88998e7da204f6091f75a50979eee18faf18b49b474940b06020526040812080547fffffffffffffffffffffffffffffffffffffffffffffffffffffffffffffff001690553391907f2fbb137a62ebd69bc6a41f4b4e96301da2105eef211fb1a3c75e8cfb9bfe7879907ff6391f5c32d9c69d2a47ea670b442974b53935d1edc7fd64eb21e047a839171b9080a4600190565b805f525f60205260405f2073ffffffffffffffffffffffffffffffffffffffff83165f5260205260ff60405f2054165f14611d4d57805f525f60205260405f2073ffffffffffffffffffffffffffffffffffffffff83165f5260205260405f207fffffffffffffffffffffffffffffffffffffffffffffffffffffffffffffff00815416905573ffffffffffffffffffffffffffffffffffffffff339216907ff6391f5c32d9c69d2a47ea670b442974b53935d1edc7fd64eb21e047a839171b5f80a4600190565b92909173ffffffffffffffffffffffffffffffffffffffff9081604051947f23b872dd000000000000000000000000000000000000000000000000000000005f52166004521660245260445260205f60648180865af19060015f5114821615611fd2575b6040525f60605215611f905750565b73ffffffffffffffffffffffffffffffffffffffff907f5274afe7000000000000000000000000000000000000000000000000000000005f521660045260245ffd5b906001811516611fea57823b15153d15161690611f81565b503d5f823e3d90fdfea2646970667358221220fdd48e611c19a6bee8e85ccae5cef01846fea186a9c30bff07e68c200f5a9f4c64736f6c634300081a00332f8788117e7eff1d82e926ec794901d17c78024a50270940304540a733656f0d7d7ffb7a348e1c6a02869081a26547b49160dd3df72d1d75a570eb9b698292ecad3228b676f7d3cd4284a5443f17f1962b36e491b30a40b2405849e597ba5fb5","linkReferences":{}},"methodIdentifiers":{"ADMIN_ROLE()":"75b238fc","AGENT_OPERATOR_ROLE()":"a1dcf282","DEFAULT_ADMIN_ROLE()":"a217fddf","SOFTWARE_TOKEN()":"f5f3bf6c","SOFTWARE_TOLL_BPS()":"f8e6fcb5","activationFeeNative()":"0140aed2","agentList(uint256)":"2f80c54f","agents(address)":"fd66091e","deactivateAgent(address)":"b0a0a927","getAgentCount()":"91cab63e","getRoleAdmin(bytes32)":"248a9ca3","grantRole(bytes32,address)":"2f2ff15d","hasRole(bytes32,address)":"91d14854","latestAuditCid(address)":"e608dc2c","nonces(address)":"7ecebe00","pause()":"8456cb59","paused()":"5c975abb","protocolTreasury()":"803db96d","purchaseAgentSignal(address)":"750d0cb2","recordSignal(address,uint256,string)":"9c24c987","registerAgent(address,string,uint256)":"184db5f2","renounceRole(bytes32,address)":"36568abe","revokeRole(bytes32,address)":"d547741f","setProtocolTreasury(address)":"0c5a61f8","setSignalPrice(address,uint256)":"1f36fd35","supportsInterface(bytes4)":"01ffc9a7","unpause()":"3f4ba83a","updateActivationFeeNative(uint256)":"d65edcca"},"id":120}