{"abi":[{"type":"constructor","inputs":[{"name":"_admin","type":"address","internalType":"address"},{"name":"_softwareToken","type":"address","internalType":"address"},{"name":"_protocolTreasury","type":"address","internalType":"address"}],"stateMutability":"nonpayable"},{"type":"function","name":"ADMIN_ROLE","inputs":[],"outputs":[{"name":"","type":"bytes32","internalType":"bytes32"}],"stateMutability":"view"},{"type":"function","name":"AGENT_OPERATOR_ROLE","inputs":[],"outputs":[{"name":"","type":"bytes32","internalType":"bytes32"}],"stateMutability":"view"},{"type":"function","name":"DEFAULT_ADMIN_ROLE","inputs":[],"outputs":[{"name":"","type":"bytes32","internalType":"bytes32"}],"stateMutability":"view"},{"type":"function","name":"SOFTWARE_TOLL_BPS","inputs":[],"outputs":[{"name":"","type":"uint256","internalType":"uint256"}],"stateMutability":"view"},{"type":"function","name":"activationFeeNative","inputs":[],"outputs":[{"name":"","type":"uint256","internalType":"uint256"}],"stateMutability":"view"},{"type":"function","name":"agentList","inputs":[{"name":"","type":"uint256","internalType":"uint256"}],"outputs":[{"name":"","type":"address","internalType":"address"}],"stateMutability":"view"},{"type":"function","name":"agents","inputs":[{"name":"","type":"address","internalType":"address"}],"outputs":[{"name":"creator","type":"address","internalType":"address"},{"name":"operator","type":"address","internalType":"address"},{"name":"llmProvider","type":"string","internalType":"string"},{"name":"signalPrice","type":"uint256","internalType":"uint256"},{"name":"registeredAt","type":"uint256","internalType":"uint256"},{"name":"signalCount","type":"uint256","internalType":"uint256"},{"name":"active","type":"bool","internalType":"bool"}],"stateMutability":"view"},{"type":"function","name":"deactivateAgent","inputs":[{"name":"operator","type":"address","internalType":"address"}],"outputs":[],"stateMutability":"nonpayable"},{"type":"function","name":"getAgentCount","inputs":[],"outputs":[{"name":"","type":"uint256","internalType":"uint256"}],"stateMutability":"view"},{"type":"function","name":"getRoleAdmin","inputs":[{"name":"role","type":"bytes32","internalType":"bytes32"}],"outputs":[{"name":"","type":"bytes32","internalType":"bytes32"}],"stateMutability":"view"},{"type":"function","name":"grantRole","inputs":[{"name":"role","type":"bytes32","internalType":"bytes32"},{"name":"account","type":"address","internalType":"address"}],"outputs":[],"stateMutability":"nonpayable"},{"type":"function","name":"hasRole","inputs":[{"name":"role","type":"bytes32","internalType":"bytes32"},{"name":"account","type":"address","internalType":"address"}],"outputs":[{"name":"","type":"bool","internalType":"bool"}],"stateMutability":"view"},{"type":"function","name":"latestAuditCID","inputs":[{"name":"","type":"address","internalType":"address"}],"outputs":[{"name":"","type":"string","internalType":"string"}],"stateMutability":"view"},{"type":"function","name":"nonces","inputs":[{"name":"","type":"address","internalType":"address"}],"outputs":[{"name":"","type":"uint256","internalType":"uint256"}],"stateMutability":"view"},{"type":"function","name":"pause","inputs":[],"outputs":[],"stateMutability":"nonpayable"},{"type":"function","name":"paused","inputs":[],"outputs":[{"name":"","type":"bool","internalType":"bool"}],"stateMutability":"view"},{"type":"function","name":"protocolTreasury","inputs":[],"outputs":[{"name":"","type":"address","internalType":"address"}],"stateMutability":"view"},{"type":"function","name":"purchaseAgentSignal","inputs":[{"name":"operator","type":"address","internalType":"address"}],"outputs":[],"stateMutability":"nonpayable"},{"type":"function","name":"recordSignal","inputs":[{"name":"operator","type":"address","internalType":"address"},{"name":"nonce","type":"uint256","internalType":"uint256"},{"name":"ipfsCID","type":"string","internalType":"string"}],"outputs":[],"stateMutability":"nonpayable"},{"type":"function","name":"registerAgent","inputs":[{"name":"operator","type":"address","internalType":"address"},{"name":"llmProvider","type":"string","internalType":"string"},{"name":"initialSignalPrice","type":"uint256","internalType":"uint256"}],"outputs":[],"stateMutability":"payable"},{"type":"function","name":"renounceRole","inputs":[{"name":"role","type":"bytes32","internalType":"bytes32"},{"name":"callerConfirmation","type":"address","internalType":"address"}],"outputs":[],"stateMutability":"nonpayable"},{"type":"function","name":"revokeRole","inputs":[{"name":"role","type":"bytes32","internalType":"bytes32"},{"name":"account","type":"address","internalType":"address"}],"outputs":[],"stateMutability":"nonpayable"},{"type":"function","name":"setProtocolTreasury","inputs":[{"name":"_newTreasury","type":"address","internalType":"address"}],"outputs":[],"stateMutability":"nonpayable"},{"type":"function","name":"setSignalPrice","inputs":[{"name":"operator","type":"address","internalType":"address"},{"name":"newPrice","type":"uint256","internalType":"uint256"}],"outputs":[],"stateMutability":"nonpayable"},{"type":"function","name":"softwareToken","inputs":[],"outputs":[{"name":"","type":"address","internalType":"contract IERC20"}],"stateMutability":"view"},{"type":"function","name":"supportsInterface","inputs":[{"name":"interfaceId","type":"bytes4","internalType":"bytes4"}],"outputs":[{"name":"","type":"bool","internalType":"bool"}],"stateMutability":"view"},{"type":"function","name":"unpause","inputs":[],"outputs":[],"stateMutability":"nonpayable"},{"type":"function","name":"updateActivationFeeNative","inputs":[{"name":"_newFee","type":"uint256","internalType":"uint256"}],"outputs":[],"stateMutability":"nonpayable"},{"type":"event","name":"AgentDeactivated","inputs":[{"name":"operator","type":"address","indexed":true,"internalType":"address"}],"anonymous":false},{"type":"event","name":"AgentLicensingActivated","inputs":[{"name":"creator","type":"address","indexed":true,"internalType":"address"},{"name":"operator","type":"address","indexed":true,"internalType":"address"},{"name":"activationFee","type":"uint256","indexed":false,"internalType":"uint256"}],"anonymous":false},{"type":"event","name":"Paused","inputs":[{"name":"account","type":"address","indexed":false,"internalType":"address"}],"anonymous":false},{"type":"event","name":"RoleAdminChanged","inputs":[{"name":"role","type":"bytes32","indexed":true,"internalType":"bytes32"},{"name":"previousAdminRole","type":"bytes32","indexed":true,"internalType":"bytes32"},{"name":"newAdminRole","type":"bytes32","indexed":true,"internalType":"bytes32"}],"anonymous":false},{"type":"event","name":"RoleGranted","inputs":[{"name":"role","type":"bytes32","indexed":true,"internalType":"bytes32"},{"name":"account","type":"address","indexed":true,"internalType":"address"},{"name":"sender","type":"address","indexed":true,"internalType":"address"}],"anonymous":false},{"type":"event","name":"RoleRevoked","inputs":[{"name":"role","type":"bytes32","indexed":true,"internalType":"bytes32"},{"name":"account","type":"address","indexed":true,"internalType":"address"},{"name":"sender","type":"address","indexed":true,"internalType":"address"}],"anonymous":false},{"type":"event","name":"SignalMarketplacePurchase","inputs":[{"name":"buyer","type":"address","indexed":true,"internalType":"address"},{"name":"operator","type":"address","indexed":true,"internalType":"address"},{"name":"softwareToll","type":"uint256","indexed":false,"internalType":"uint256"},{"name":"agentRevenue","type":"uint256","indexed":false,"internalType":"uint256"}],"anonymous":false},{"type":"event","name":"SignalPriceUpdated","inputs":[{"name":"operator","type":"address","indexed":true,"internalType":"address"},{"name":"newPrice","type":"uint256","indexed":false,"internalType":"uint256"}],"anonymous":false},{"type":"event","name":"SignalRecorded","inputs":[{"name":"operator","type":"address","indexed":true,"internalType":"address"},{"name":"nonce","type":"uint256","indexed":false,"internalType":"uint256"},{"name":"ipfsCID","type":"string","indexed":false,"internalType":"string"}],"anonymous":false},{"type":"event","name":"Unpaused","inputs":[{"name":"account","type":"address","indexed":false,"internalType":"address"}],"anonymous":false},{"type":"error","name":"AccessControlBadConfirmation","inputs":[]},{"type":"error","name":"AccessControlUnauthorizedAccount","inputs":[{"name":"account","type":"address","internalType":"address"},{"name":"neededRole","type":"bytes32","internalType":"bytes32"}]},{"type":"error","name":"AgentAlreadyRegistered","inputs":[]},{"type":"error","name":"AgentNotActive","inputs":[]},{"type":"error","name":"EnforcedPause","inputs":[]},{"type":"error","name":"ExpectedPause","inputs":[]},{"type":"error","name":"InsufficientAllowance","inputs":[]},{"type":"error","name":"InvalidNonce","inputs":[]},{"type":"error","name":"ReentrancyGuardReentrantCall","inputs":[]},{"type":"error","name":"UnauthorizedCreator","inputs":[]}],"bytecode":{"object":"0x60a0346100f357601f61231238819003918201601f19168301916001600160401b038311848410176100f7578084926060946040528339810103126100f3576100478161010b565b906100a2610063604061005c6020850161010b565b930161010b565b9260017f9b779b17422d0df92223018b32b4d1fa46e071723d6817e2486d003becc55f00556605543df729c00060025561009c8161011f565b50610195565b506001600160a01b031660805260018054610100600160a81b03191660089290921b610100600160a81b03169190911790556040516120899081610229823960805181818161019a0152610c070152f35b5f80fd5b634e487b7160e01b5f52604160045260245ffd5b51906001600160a01b03821682036100f357565b6001600160a01b0381165f9081525f805160206122f2833981519152602052604090205460ff16610190576001600160a01b03165f8181525f805160206122f283398151915260205260408120805460ff191660011790553391905f805160206122b28339815191528180a4600190565b505f90565b6001600160a01b0381165f9081525f805160206122d2833981519152602052604090205460ff16610190576001600160a01b03165f8181525f805160206122d283398151915260205260408120805460ff191660011790553391907fa49807205ce4d355092ef5a8a18f56e8913cf4a201fbe287825b095693c21775905f805160206122b28339815191529080a460019056fe6080806040526004361015610012575f80fd5b5f3560e01c9081630140aed2146117c35750806301ffc9a7146117045780630c5a61f81461167c578063184db5f21461117f5780631f36fd351461109f578063248a9ca31461104f5780632f2ff15d14610ff45780632f80c54f14610f8857806331d72dae14610f0d57806336568abe14610e855780633f4ba83a14610dca5780635c975abb14610d8a578063750d0cb214610ae157806375b238fc14610a895780637ecebe0014610a26578063803db96d146109d25780638456cb591461093e57806391cab63e1461090357806391d148541461088f5780639c24c987146104d4578063a1dcf2821461047c578063a217fddf14610444578063b0a0a92714610389578063d547741f14610327578063d65edcca146102e8578063f8e6fcb5146102af578063fd66091e146101c25763febe601e14610150575f80fd5b346101be575f7ffffffffffffffffffffffffffffffffffffffffffffffffffffffffffffffffc3601126101be57602060405173ffffffffffffffffffffffffffffffffffffffff7f0000000000000000000000000000000000000000000000000000000000000000168152f35b5f80fd5b346101be5760207ffffffffffffffffffffffffffffffffffffffffffffffffffffffffffffffffc3601126101be5773ffffffffffffffffffffffffffffffffffffffff61020e6117fb565b165f52600360205260405f2073ffffffffffffffffffffffffffffffffffffffff81541673ffffffffffffffffffffffffffffffffffffffff6001830154169161025a60028201611946565b600382015491600481015461029460ff6006600585015494015416936040519788978852602088015260e0604088015260e0870190611a04565b936060860152608085015260a0840152151560c08301520390f35b346101be575f7ffffffffffffffffffffffffffffffffffffffffffffffffffffffffffffffffc3601126101be57602060405160648152f35b346101be5760207ffffffffffffffffffffffffffffffffffffffffffffffffffffffffffffffffc3601126101be5761031f611b15565b600435600255005b346101be5760407ffffffffffffffffffffffffffffffffffffffffffffffffffffffffffffffffc3601126101be5761038760043561036461181e565b9061038261037d825f525f602052600160405f20015490565b611b9d565b611f8b565b005b346101be5760207ffffffffffffffffffffffffffffffffffffffffffffffffffffffffffffffffc3601126101be576103c06117fb565b6103c8611b15565b61041d73ffffffffffffffffffffffffffffffffffffffff821691825f526003602052600660405f20017fffffffffffffffffffffffffffffffffffffffffffffffffffffffffffffff008154169055611e89565b507fa58c733780f5c1527d6106ff1e731cbf2e9ffc0eb11ad399ca33ea55f057ddf45f80a2005b346101be575f7ffffffffffffffffffffffffffffffffffffffffffffffffffffffffffffffffc3601126101be5760206040515f8152f35b346101be575f7ffffffffffffffffffffffffffffffffffffffffffffffffffffffffffffffffc3601126101be5760206040517f2fbb137a62ebd69bc6a41f4b4e96301da2105eef211fb1a3c75e8cfb9bfe78798152f35b346101be5760607ffffffffffffffffffffffffffffffffffffffffffffffffffffffffffffffffc3601126101be5761050b6117fb565b6024359060443567ffffffffffffffff81116101be5761052f903690600401611841565b335f9081527fe8424ec1ecf42e9e88998e7da204f6091f75a50979eee18faf18b49b474940b0602052604090205490929060ff161561083f5773ffffffffffffffffffffffffffffffffffffffff1691825f52600360205260ff600660405f200154161561081757825f52600560205260405f205484036107ef57825f52600560205260405f206105c08154611ae8565b9055825f526003602052600560405f20016105db8154611ae8565b9055825f52600660205260405f2067ffffffffffffffff82116107c25761060c8261060683546118b4565b83611a81565b5f601f83116001146106d957601f837f978eeb38ebabdfe833f0931a9a09605b30ca5eee077bbe882570668c4f188db19697936106a0826060977fffffffffffffffffffffffffffffffffffffffffffffffffffffffffffffffe0965f916106ce575b507fffffffffffffffffffffffffffffffffffffffffffffffffffffffffffffffff8260011b9260031b1c19161790565b90555b80604051968795865260406020870152816040870152868601375f85828601015201168101030190a2005b90508901358c61066f565b7fffffffffffffffffffffffffffffffffffffffffffffffffffffffffffffffe0831690825f5260205f20915f5b8181106107aa5750937f978eeb38ebabdfe833f0931a9a09605b30ca5eee077bbe882570668c4f188db19697937fffffffffffffffffffffffffffffffffffffffffffffffffffffffffffffffe093601f938360609810610772575b5050600182811b0190556106a3565b7fffffffffffffffffffffffffffffffffffffffffffffffffffffffffffffffff60f88560031b161c19908901351690558980610763565b9192602060018192868a013581550194019201610707565b7f4e487b71000000000000000000000000000000000000000000000000000000005f52604160045260245ffd5b7f756688fe000000000000000000000000000000000000000000000000000000005f5260045ffd5b7f486fcee2000000000000000000000000000000000000000000000000000000005f5260045ffd5b7fe2517d3f000000000000000000000000000000000000000000000000000000005f52336004527f2fbb137a62ebd69bc6a41f4b4e96301da2105eef211fb1a3c75e8cfb9bfe787960245260445ffd5b346101be5760407ffffffffffffffffffffffffffffffffffffffffffffffffffffffffffffffffc3601126101be576108c661181e565b6004355f525f60205273ffffffffffffffffffffffffffffffffffffffff60405f2091165f52602052602060ff60405f2054166040519015158152f35b346101be575f7ffffffffffffffffffffffffffffffffffffffffffffffffffffffffffffffffc3601126101be576020600454604051908152f35b346101be575f7ffffffffffffffffffffffffffffffffffffffffffffffffffffffffffffffffc3601126101be57610974611b15565b61097c611c7a565b60017fffffffffffffffffffffffffffffffffffffffffffffffffffffffffffffff00815416176001557f62e78cea01bee320cd4e420270b5ea74000d11b0c9f74754ebdbfc544b05a2586020604051338152a1005b346101be575f7ffffffffffffffffffffffffffffffffffffffffffffffffffffffffffffffffc3601126101be57602073ffffffffffffffffffffffffffffffffffffffff60015460081c16604051908152f35b346101be5760207ffffffffffffffffffffffffffffffffffffffffffffffffffffffffffffffffc3601126101be5773ffffffffffffffffffffffffffffffffffffffff610a726117fb565b165f526005602052602060405f2054604051908152f35b346101be575f7ffffffffffffffffffffffffffffffffffffffffffffffffffffffffffffffffc3601126101be5760206040517fa49807205ce4d355092ef5a8a18f56e8913cf4a201fbe287825b095693c217758152f35b346101be5760207ffffffffffffffffffffffffffffffffffffffffffffffffffffffffffffffffc3601126101be5773ffffffffffffffffffffffffffffffffffffffff610b2d6117fb565b610b35611c03565b610b3d611c7a565b16805f52600360205260405f2060ff6006820154161561081757600381015480158015610b8b575b60017f9b779b17422d0df92223018b32b4d1fa46e071723d6817e2486d003becc55f0055005b60648202908282046064141715610d5d57612710900491828203918211610d5d576001546040517f23b872dd00000000000000000000000000000000000000000000000000000000815233600482015260089190911c73ffffffffffffffffffffffffffffffffffffffff9081166024830152604482018590527f00000000000000000000000000000000000000000000000000000000000000001691906020816064815f875af1928315610d375773ffffffffffffffffffffffffffffffffffffffff6020938693610cc096610d42575b5054165f6040518096819582947f23b872dd000000000000000000000000000000000000000000000000000000008452336004850173ffffffffffffffffffffffffffffffffffffffff6040929594938160608401971683521660208201520152565b03925af18015610d3757610d0a575b5060405191825260208201527f2ab1b0fad7b07a89a90c1f8df2666f33d77de26dc6b07cd58a831b305db748e560403392a380808080610b65565b610d2b9060203d602011610d30575b610d238183611905565b810190611ad0565b610ccf565b503d610d19565b6040513d5f823e3d90fd5b610d5890863d8811610d3057610d238183611905565b610c5d565b7f4e487b71000000000000000000000000000000000000000000000000000000005f52601160045260245ffd5b346101be575f7ffffffffffffffffffffffffffffffffffffffffffffffffffffffffffffffffc3601126101be57602060ff600154166040519015158152f35b346101be575f7ffffffffffffffffffffffffffffffffffffffffffffffffffffffffffffffffc3601126101be57610e00611b15565b60015460ff811615610e5d577fffffffffffffffffffffffffffffffffffffffffffffffffffffffffffffff00166001557f5db9ee0a495bf2e6ff9c91a7834c1ba4fdd244a5e8aa4e537bd38aeae4b073aa6020604051338152a1005b7f8dfc202b000000000000000000000000000000000000000000000000000000005f5260045ffd5b346101be5760407ffffffffffffffffffffffffffffffffffffffffffffffffffffffffffffffffc3601126101be57610ebc61181e565b3373ffffffffffffffffffffffffffffffffffffffff821603610ee55761038790600435611f8b565b7f6697b232000000000000000000000000000000000000000000000000000000005f5260045ffd5b346101be5760207ffffffffffffffffffffffffffffffffffffffffffffffffffffffffffffffffc3601126101be5773ffffffffffffffffffffffffffffffffffffffff610f596117fb565b165f526006602052610f84610f7060405f20611946565b604051918291602083526020830190611a04565b0390f35b346101be5760207ffffffffffffffffffffffffffffffffffffffffffffffffffffffffffffffffc3601126101be576004356004548110156101be5773ffffffffffffffffffffffffffffffffffffffff610fe460209261186f565b90549060031b1c16604051908152f35b346101be5760407ffffffffffffffffffffffffffffffffffffffffffffffffffffffffffffffffc3601126101be5761038760043561103161181e565b9061104a61037d825f525f602052600160405f20015490565b611db7565b346101be5760207ffffffffffffffffffffffffffffffffffffffffffffffffffffffffffffffffc3601126101be5760206110976004355f525f602052600160405f20015490565b604051908152f35b346101be5760407ffffffffffffffffffffffffffffffffffffffffffffffffffffffffffffffffc3601126101be576110d66117fb565b73ffffffffffffffffffffffffffffffffffffffff602435911690815f52600360205273ffffffffffffffffffffffffffffffffffffffff60405f20541633036111575760207f9333dcbba706884b39f2f76b08fbcf66c7c6fd12d8fe3630aff64b86b2d5fe4191835f526003825280600360405f200155604051908152a2005b7f8ef0dd5d000000000000000000000000000000000000000000000000000000005f5260045ffd5b60607ffffffffffffffffffffffffffffffffffffffffffffffffffffffffffffffffc3601126101be576111b16117fb565b60243567ffffffffffffffff81116101be576111d1903690600401611841565b90916111db611c03565b6111e3611c7a565b600254340361161e5773ffffffffffffffffffffffffffffffffffffffff811691825f526003602052600460405f2001546115f6575f8080803473ffffffffffffffffffffffffffffffffffffffff60015460081c165af13d156115f1573d61124b81611a47565b906112596040519283611905565b81525f60203d92013e5b156115935760405160e0810181811067ffffffffffffffff8211176107c257604052338152602081019184835261129981611a47565b956112a76040519788611905565b81875236828201116101be57815f92602092838a013787010152604081019485526060810160443581526080820142815260a08301915f835273ffffffffffffffffffffffffffffffffffffffff60c085019560018752885f526003602052818060405f20975116167fffffffffffffffffffffffff0000000000000000000000000000000000000000875416178655511673ffffffffffffffffffffffffffffffffffffffff6001860191167fffffffffffffffffffffffff000000000000000000000000000000000000000082541617905560028401975197885167ffffffffffffffff81116107c2576113a7816113a184546118b4565b84611a81565b6020601f82116001146114ef5790806113f9926006999a9b9c5f926114e4575b50507fffffffffffffffffffffffffffffffffffffffffffffffffffffffffffffffff8260011b9260031b1c19161790565b90555b516003840155516004830155516005820155019051151560ff7fffffffffffffffffffffffffffffffffffffffffffffffffffffffffffffff00835416911617905560045490680100000000000000008210156107c257611466826001611491940160045561186f565b81549060031b9073ffffffffffffffffffffffffffffffffffffffff86831b921b1916179055611cae565b506040513481527f43a1cfc5ceeea657a28b620c431182b93f1e8f26f063ab8201b1bb919ad5754260203392a360017f9b779b17422d0df92223018b32b4d1fa46e071723d6817e2486d003becc55f0055005b015190508c806113c7565b7fffffffffffffffffffffffffffffffffffffffffffffffffffffffffffffffe082169a835f52815f209b5f5b81811061157b5750916006999a9b9c91846001959410611544575b505050811b0190556113fc565b01517fffffffffffffffffffffffffffffffffffffffffffffffffffffffffffffffff60f88460031b161c191690558b8080611537565b838301518e556001909d019c6020938401930161151c565b60646040517f08c379a000000000000000000000000000000000000000000000000000000000815260206004820152601860248201527f5472656173757279207472616e73666572206661696c656400000000000000006044820152fd5b611263565b7fe098d3ee000000000000000000000000000000000000000000000000000000005f5260045ffd5b60646040517f08c379a000000000000000000000000000000000000000000000000000000000815260206004820152601960248201527f4578616374206e617469766520666565207265717569726564000000000000006044820152fd5b346101be5760207ffffffffffffffffffffffffffffffffffffffffffffffffffffffffffffffffc3601126101be576116b36117fb565b6116bb611b15565b7fffffffffffffffffffffff0000000000000000000000000000000000000000ff74ffffffffffffffffffffffffffffffffffffffff006001549260081b169116176001555f80f35b346101be5760207ffffffffffffffffffffffffffffffffffffffffffffffffffffffffffffffffc3601126101be576004357fffffffff0000000000000000000000000000000000000000000000000000000081168091036101be57807f7965db0b0000000000000000000000000000000000000000000000000000000060209214908115611799575b506040519015158152f35b7f01ffc9a7000000000000000000000000000000000000000000000000000000009150148261178e565b346101be575f7ffffffffffffffffffffffffffffffffffffffffffffffffffffffffffffffffc3601126101be576020906002548152f35b6004359073ffffffffffffffffffffffffffffffffffffffff821682036101be57565b6024359073ffffffffffffffffffffffffffffffffffffffff821682036101be57565b9181601f840112156101be5782359167ffffffffffffffff83116101be57602083818601950101116101be57565b6004548110156118875760045f5260205f2001905f90565b7f4e487b71000000000000000000000000000000000000000000000000000000005f52603260045260245ffd5b90600182811c921680156118fb575b60208310146118ce57565b7f4e487b71000000000000000000000000000000000000000000000000000000005f52602260045260245ffd5b91607f16916118c3565b90601f7fffffffffffffffffffffffffffffffffffffffffffffffffffffffffffffffe0910116810190811067ffffffffffffffff8211176107c257604052565b9060405191825f825492611959846118b4565b80845293600181169081156119c45750600114611980575b5061197e92500383611905565b565b90505f9291925260205f20905f915b8183106119a857505090602061197e928201015f611971565b602091935080600191548385890101520191019091849261198f565b6020935061197e9592507fffffffffffffffffffffffffffffffffffffffffffffffffffffffffffffff0091501682840152151560051b8201015f611971565b907fffffffffffffffffffffffffffffffffffffffffffffffffffffffffffffffe0601f602080948051918291828752018686015e5f8582860101520116010190565b67ffffffffffffffff81116107c257601f017fffffffffffffffffffffffffffffffffffffffffffffffffffffffffffffffe01660200190565b601f8211611a8e57505050565b5f5260205f20906020601f840160051c83019310611ac6575b601f0160051c01905b818110611abb575050565b5f8155600101611ab0565b9091508190611aa7565b908160209103126101be575180151581036101be5790565b7fffffffffffffffffffffffffffffffffffffffffffffffffffffffffffffffff8114610d5d5760010190565b335f9081527f7d7ffb7a348e1c6a02869081a26547b49160dd3df72d1d75a570eb9b698292ec602052604090205460ff1615611b4d57565b7fe2517d3f000000000000000000000000000000000000000000000000000000005f52336004527fa49807205ce4d355092ef5a8a18f56e8913cf4a201fbe287825b095693c2177560245260445ffd5b805f525f60205260405f2073ffffffffffffffffffffffffffffffffffffffff33165f5260205260ff60405f20541615611bd45750565b7fe2517d3f000000000000000000000000000000000000000000000000000000005f523360045260245260445ffd5b60027f9b779b17422d0df92223018b32b4d1fa46e071723d6817e2486d003becc55f005414611c525760027f9b779b17422d0df92223018b32b4d1fa46e071723d6817e2486d003becc55f0055565b7f3ee5aeb5000000000000000000000000000000000000000000000000000000005f5260045ffd5b60ff60015416611c8657565b7fd93c0665000000000000000000000000000000000000000000000000000000005f5260045ffd5b73ffffffffffffffffffffffffffffffffffffffff81165f9081527fe8424ec1ecf42e9e88998e7da204f6091f75a50979eee18faf18b49b474940b0602052604090205460ff16611db25773ffffffffffffffffffffffffffffffffffffffff165f8181527fe8424ec1ecf42e9e88998e7da204f6091f75a50979eee18faf18b49b474940b06020526040812080547fffffffffffffffffffffffffffffffffffffffffffffffffffffffffffffff001660011790553391907f2fbb137a62ebd69bc6a41f4b4e96301da2105eef211fb1a3c75e8cfb9bfe7879907f2f8788117e7eff1d82e926ec794901d17c78024a50270940304540a733656f0d9080a4600190565b505f90565b805f525f60205260405f2073ffffffffffffffffffffffffffffffffffffffff83165f5260205260ff60405f205416155f14611e8357805f525f60205260405f2073ffffffffffffffffffffffffffffffffffffffff83165f5260205260405f2060017fffffffffffffffffffffffffffffffffffffffffffffffffffffffffffffff0082541617905573ffffffffffffffffffffffffffffffffffffffff339216907f2f8788117e7eff1d82e926ec794901d17c78024a50270940304540a733656f0d5f80a4600190565b50505f90565b73ffffffffffffffffffffffffffffffffffffffff81165f9081527fe8424ec1ecf42e9e88998e7da204f6091f75a50979eee18faf18b49b474940b0602052604090205460ff1615611db25773ffffffffffffffffffffffffffffffffffffffff165f8181527fe8424ec1ecf42e9e88998e7da204f6091f75a50979eee18faf18b49b474940b06020526040812080547fffffffffffffffffffffffffffffffffffffffffffffffffffffffffffffff001690553391907f2fbb137a62ebd69bc6a41f4b4e96301da2105eef211fb1a3c75e8cfb9bfe7879907ff6391f5c32d9c69d2a47ea670b442974b53935d1edc7fd64eb21e047a839171b9080a4600190565b805f525f60205260405f2073ffffffffffffffffffffffffffffffffffffffff83165f5260205260ff60405f2054165f14611e8357805f525f60205260405f2073ffffffffffffffffffffffffffffffffffffffff83165f5260205260405f207fffffffffffffffffffffffffffffffffffffffffffffffffffffffffffffff00815416905573ffffffffffffffffffffffffffffffffffffffff339216907ff6391f5c32d9c69d2a47ea670b442974b53935d1edc7fd64eb21e047a839171b5f80a460019056fea2646970667358221220e564afe0e7bbf5ea389b8e064b447664dc0c7f70d8043e8f69a3aea675cf03b464736f6c634300081a00332f8788117e7eff1d82e926ec794901d17c78024a50270940304540a733656f0d7d7ffb7a348e1c6a02869081a26547b49160dd3df72d1d75a570eb9b698292ecad3228b676f7d3cd4284a5443f17f1962b36e491b30a40b2405849e597ba5fb5","linkReferences":{}},"methodIdentifiers":{"ADMIN_ROLE()":"75b238fc","AGENT_OPERATOR_ROLE()":"a1dcf282","DEFAULT_ADMIN_ROLE()":"a217fddf","SOFTWARE_TOLL_BPS()":"f8e6fcb5","activationFeeNative()":"0140aed2","agentList(uint256)":"2f80c54f","agents(address)":"fd66091e","deactivateAgent(address)":"b0a0a927","getAgentCount()":"91cab63e","getRoleAdmin(bytes32)":"248a9ca3","grantRole(bytes32,address)":"2f2ff15d","hasRole(bytes32,address)":"91d14854","latestAuditCID(address)":"31d72dae","nonces(address)":"7ecebe00","pause()":"8456cb59","paused()":"5c975abb","protocolTreasury()":"803db96d","purchaseAgentSignal(address)":"750d0cb2","recordSignal(address,uint256,string)":"9c24c987","registerAgent(address,string,uint256)":"184db5f2","renounceRole(bytes32,address)":"36568abe","revokeRole(bytes32,address)":"d547741f","setProtocolTreasury(address)":"0c5a61f8","setSignalPrice(address,uint256)":"1f36fd35","softwareToken()":"febe601e","supportsInterface(bytes4)":"01ffc9a7","unpause()":"3f4ba83a","updateActivationFeeNative(uint256)":"d65edcca"},"id":66}