{"abi":[{"type":"constructor","inputs":[{"name":"_poolManager","type":"address","internalType":"contract IPoolManager"},{"name":"_agentRegistry","type":"address","internalType":"contract AgentRegistry"},{"name":"_yieldVault","type":"address","internalType":"contract YieldVault"},{"name":"_ilInsurance","type":"address","internalType":"contract ILInsurance"},{"name":"_admin","type":"address","internalType":"address"},{"name":"_protocolTreasury","type":"address","internalType":"address"}],"stateMutability":"nonpayable"},{"type":"function","name":"AGENT_REGISTRY","inputs":[],"outputs":[{"name":"","type":"address","internalType":"contract AgentRegistry"}],"stateMutability":"view"},{"type":"function","name":"MAX_FEE","inputs":[],"outputs":[{"name":"","type":"uint24","internalType":"uint24"}],"stateMutability":"view"},{"type":"function","name":"MIN_FEE","inputs":[],"outputs":[{"name":"","type":"uint24","internalType":"uint24"}],"stateMutability":"view"},{"type":"function","name":"MIN_UPDATE_INTERVAL","inputs":[],"outputs":[{"name":"","type":"uint256","internalType":"uint256"}],"stateMutability":"view"},{"type":"function","name":"SOFTWARE_TOLL_BPS","inputs":[],"outputs":[{"name":"","type":"uint256","internalType":"uint256"}],"stateMutability":"view"},{"type":"function","name":"admin","inputs":[],"outputs":[{"name":"","type":"address","internalType":"address"}],"stateMutability":"view"},{"type":"function","name":"afterAddLiquidity","inputs":[{"name":"sender","type":"address","internalType":"address"},{"name":"key","type":"tuple","internalType":"struct PoolKey","components":[{"name":"currency0","type":"address","internalType":"Currency"},{"name":"currency1","type":"address","internalType":"Currency"},{"name":"fee","type":"uint24","internalType":"uint24"},{"name":"tickSpacing","type":"int24","internalType":"int24"},{"name":"hooks","type":"address","internalType":"contract IHooks"}]},{"name":"params","type":"tuple","internalType":"struct ModifyLiquidityParams","components":[{"name":"tickLower","type":"int24","internalType":"int24"},{"name":"tickUpper","type":"int24","internalType":"int24"},{"name":"liquidityDelta","type":"int256","internalType":"int256"},{"name":"salt","type":"bytes32","internalType":"bytes32"}]},{"name":"delta","type":"int256","internalType":"BalanceDelta"},{"name":"feesAccrued","type":"int256","internalType":"BalanceDelta"},{"name":"hookData","type":"bytes","internalType":"bytes"}],"outputs":[{"name":"","type":"bytes4","internalType":"bytes4"},{"name":"","type":"int256","internalType":"BalanceDelta"}],"stateMutability":"nonpayable"},{"type":"function","name":"afterDonate","inputs":[{"name":"sender","type":"address","internalType":"address"},{"name":"key","type":"tuple","internalType":"struct PoolKey","components":[{"name":"currency0","type":"address","internalType":"Currency"},{"name":"currency1","type":"address","internalType":"Currency"},{"name":"fee","type":"uint24","internalType":"uint24"},{"name":"tickSpacing","type":"int24","internalType":"int24"},{"name":"hooks","type":"address","internalType":"contract IHooks"}]},{"name":"amount0","type":"uint256","internalType":"uint256"},{"name":"amount1","type":"uint256","internalType":"uint256"},{"name":"hookData","type":"bytes","internalType":"bytes"}],"outputs":[{"name":"","type":"bytes4","internalType":"bytes4"}],"stateMutability":"nonpayable"},{"type":"function","name":"afterInitialize","inputs":[{"name":"sender","type":"address","internalType":"address"},{"name":"key","type":"tuple","internalType":"struct PoolKey","components":[{"name":"currency0","type":"address","internalType":"Currency"},{"name":"currency1","type":"address","internalType":"Currency"},{"name":"fee","type":"uint24","internalType":"uint24"},{"name":"tickSpacing","type":"int24","internalType":"int24"},{"name":"hooks","type":"address","internalType":"contract IHooks"}]},{"name":"sqrtPriceX96","type":"uint160","internalType":"uint160"},{"name":"tick","type":"int24","internalType":"int24"}],"outputs":[{"name":"","type":"bytes4","internalType":"bytes4"}],"stateMutability":"nonpayable"},{"type":"function","name":"afterRemoveLiquidity","inputs":[{"name":"sender","type":"address","internalType":"address"},{"name":"key","type":"tuple","internalType":"struct PoolKey","components":[{"name":"currency0","type":"address","internalType":"Currency"},{"name":"currency1","type":"address","internalType":"Currency"},{"name":"fee","type":"uint24","internalType":"uint24"},{"name":"tickSpacing","type":"int24","internalType":"int24"},{"name":"hooks","type":"address","internalType":"contract IHooks"}]},{"name":"params","type":"tuple","internalType":"struct ModifyLiquidityParams","components":[{"name":"tickLower","type":"int24","internalType":"int24"},{"name":"tickUpper","type":"int24","internalType":"int24"},{"name":"liquidityDelta","type":"int256","internalType":"int256"},{"name":"salt","type":"bytes32","internalType":"bytes32"}]},{"name":"delta","type":"int256","internalType":"BalanceDelta"},{"name":"feesAccrued","type":"int256","internalType":"BalanceDelta"},{"name":"hookData","type":"bytes","internalType":"bytes"}],"outputs":[{"name":"","type":"bytes4","internalType":"bytes4"},{"name":"","type":"int256","internalType":"BalanceDelta"}],"stateMutability":"nonpayable"},{"type":"function","name":"afterSwap","inputs":[{"name":"sender","type":"address","internalType":"address"},{"name":"key","type":"tuple","internalType":"struct PoolKey","components":[{"name":"currency0","type":"address","internalType":"Currency"},{"name":"currency1","type":"address","internalType":"Currency"},{"name":"fee","type":"uint24","internalType":"uint24"},{"name":"tickSpacing","type":"int24","internalType":"int24"},{"name":"hooks","type":"address","internalType":"contract IHooks"}]},{"name":"params","type":"tuple","internalType":"struct SwapParams","components":[{"name":"zeroForOne","type":"bool","internalType":"bool"},{"name":"amountSpecified","type":"int256","internalType":"int256"},{"name":"sqrtPriceLimitX96","type":"uint160","internalType":"uint160"}]},{"name":"delta","type":"int256","internalType":"BalanceDelta"},{"name":"hookData","type":"bytes","internalType":"bytes"}],"outputs":[{"name":"","type":"bytes4","internalType":"bytes4"},{"name":"","type":"int128","internalType":"int128"}],"stateMutability":"nonpayable"},{"type":"function","name":"agentNonces","inputs":[{"name":"","type":"address","internalType":"address"}],"outputs":[{"name":"","type":"uint256","internalType":"uint256"}],"stateMutability":"view"},{"type":"function","name":"beforeAddLiquidity","inputs":[{"name":"sender","type":"address","internalType":"address"},{"name":"key","type":"tuple","internalType":"struct PoolKey","components":[{"name":"currency0","type":"address","internalType":"Currency"},{"name":"currency1","type":"address","internalType":"Currency"},{"name":"fee","type":"uint24","internalType":"uint24"},{"name":"tickSpacing","type":"int24","internalType":"int24"},{"name":"hooks","type":"address","internalType":"contract IHooks"}]},{"name":"params","type":"tuple","internalType":"struct ModifyLiquidityParams","components":[{"name":"tickLower","type":"int24","internalType":"int24"},{"name":"tickUpper","type":"int24","internalType":"int24"},{"name":"liquidityDelta","type":"int256","internalType":"int256"},{"name":"salt","type":"bytes32","internalType":"bytes32"}]},{"name":"hookData","type":"bytes","internalType":"bytes"}],"outputs":[{"name":"","type":"bytes4","internalType":"bytes4"}],"stateMutability":"nonpayable"},{"type":"function","name":"beforeDonate","inputs":[{"name":"sender","type":"address","internalType":"address"},{"name":"key","type":"tuple","internalType":"struct PoolKey","components":[{"name":"currency0","type":"address","internalType":"Currency"},{"name":"currency1","type":"address","internalType":"Currency"},{"name":"fee","type":"uint24","internalType":"uint24"},{"name":"tickSpacing","type":"int24","internalType":"int24"},{"name":"hooks","type":"address","internalType":"contract IHooks"}]},{"name":"amount0","type":"uint256","internalType":"uint256"},{"name":"amount1","type":"uint256","internalType":"uint256"},{"name":"hookData","type":"bytes","internalType":"bytes"}],"outputs":[{"name":"","type":"bytes4","internalType":"bytes4"}],"stateMutability":"nonpayable"},{"type":"function","name":"beforeInitialize","inputs":[{"name":"sender","type":"address","internalType":"address"},{"name":"key","type":"tuple","internalType":"struct PoolKey","components":[{"name":"currency0","type":"address","internalType":"Currency"},{"name":"currency1","type":"address","internalType":"Currency"},{"name":"fee","type":"uint24","internalType":"uint24"},{"name":"tickSpacing","type":"int24","internalType":"int24"},{"name":"hooks","type":"address","internalType":"contract IHooks"}]},{"name":"sqrtPriceX96","type":"uint160","internalType":"uint160"}],"outputs":[{"name":"","type":"bytes4","internalType":"bytes4"}],"stateMutability":"nonpayable"},{"type":"function","name":"beforeRemoveLiquidity","inputs":[{"name":"sender","type":"address","internalType":"address"},{"name":"key","type":"tuple","internalType":"struct PoolKey","components":[{"name":"currency0","type":"address","internalType":"Currency"},{"name":"currency1","type":"address","internalType":"Currency"},{"name":"fee","type":"uint24","internalType":"uint24"},{"name":"tickSpacing","type":"int24","internalType":"int24"},{"name":"hooks","type":"address","internalType":"contract IHooks"}]},{"name":"params","type":"tuple","internalType":"struct ModifyLiquidityParams","components":[{"name":"tickLower","type":"int24","internalType":"int24"},{"name":"tickUpper","type":"int24","internalType":"int24"},{"name":"liquidityDelta","type":"int256","internalType":"int256"},{"name":"salt","type":"bytes32","internalType":"bytes32"}]},{"name":"hookData","type":"bytes","internalType":"bytes"}],"outputs":[{"name":"","type":"bytes4","internalType":"bytes4"}],"stateMutability":"nonpayable"},{"type":"function","name":"beforeSwap","inputs":[{"name":"sender","type":"address","internalType":"address"},{"name":"key","type":"tuple","internalType":"struct PoolKey","components":[{"name":"currency0","type":"address","internalType":"Currency"},{"name":"currency1","type":"address","internalType":"Currency"},{"name":"fee","type":"uint24","internalType":"uint24"},{"name":"tickSpacing","type":"int24","internalType":"int24"},{"name":"hooks","type":"address","internalType":"contract IHooks"}]},{"name":"params","type":"tuple","internalType":"struct SwapParams","components":[{"name":"zeroForOne","type":"bool","internalType":"bool"},{"name":"amountSpecified","type":"int256","internalType":"int256"},{"name":"sqrtPriceLimitX96","type":"uint160","internalType":"uint160"}]},{"name":"hookData","type":"bytes","internalType":"bytes"}],"outputs":[{"name":"","type":"bytes4","internalType":"bytes4"},{"name":"","type":"int256","internalType":"BeforeSwapDelta"},{"name":"","type":"uint24","internalType":"uint24"}],"stateMutability":"nonpayable"},{"type":"function","name":"currentDynamicFee","inputs":[{"name":"","type":"bytes32","internalType":"PoolId"}],"outputs":[{"name":"","type":"uint24","internalType":"uint24"}],"stateMutability":"view"},{"type":"function","name":"getHookPermissions","inputs":[],"outputs":[{"name":"","type":"tuple","internalType":"struct Hooks.Permissions","components":[{"name":"beforeInitialize","type":"bool","internalType":"bool"},{"name":"afterInitialize","type":"bool","internalType":"bool"},{"name":"beforeAddLiquidity","type":"bool","internalType":"bool"},{"name":"afterAddLiquidity","type":"bool","internalType":"bool"},{"name":"beforeRemoveLiquidity","type":"bool","internalType":"bool"},{"name":"afterRemoveLiquidity","type":"bool","internalType":"bool"},{"name":"beforeSwap","type":"bool","internalType":"bool"},{"name":"afterSwap","type":"bool","internalType":"bool"},{"name":"beforeDonate","type":"bool","internalType":"bool"},{"name":"afterDonate","type":"bool","internalType":"bool"},{"name":"beforeSwapReturnDelta","type":"bool","internalType":"bool"},{"name":"afterSwapReturnDelta","type":"bool","internalType":"bool"},{"name":"afterAddLiquidityReturnDelta","type":"bool","internalType":"bool"},{"name":"afterRemoveLiquidityReturnDelta","type":"bool","internalType":"bool"}]}],"stateMutability":"pure"},{"type":"function","name":"ilInsurance","inputs":[],"outputs":[{"name":"","type":"address","internalType":"contract ILInsurance"}],"stateMutability":"view"},{"type":"function","name":"pause","inputs":[],"outputs":[],"stateMutability":"nonpayable"},{"type":"function","name":"paused","inputs":[],"outputs":[{"name":"","type":"bool","internalType":"bool"}],"stateMutability":"view"},{"type":"function","name":"poolIntelligence","inputs":[{"name":"","type":"bytes32","internalType":"PoolId"}],"outputs":[{"name":"targetFeeBps","type":"uint24","internalType":"uint24"},{"name":"volatilityScore","type":"uint256","internalType":"uint256"},{"name":"lastAgentUpdate","type":"uint256","internalType":"uint256"},{"name":"ilProtectionActive","type":"bool","internalType":"bool"},{"name":"epochFeesAccrued","type":"uint256","internalType":"uint256"}],"stateMutability":"view"},{"type":"function","name":"poolManager","inputs":[],"outputs":[{"name":"","type":"address","internalType":"contract IPoolManager"}],"stateMutability":"view"},{"type":"function","name":"protocolTreasury","inputs":[],"outputs":[{"name":"","type":"address","internalType":"address"}],"stateMutability":"view"},{"type":"function","name":"setProtocolTreasury","inputs":[{"name":"_newTreasury","type":"address","internalType":"address"}],"outputs":[],"stateMutability":"nonpayable"},{"type":"function","name":"setVaults","inputs":[{"name":"_yieldVault","type":"address","internalType":"contract YieldVault"},{"name":"_ilInsurance","type":"address","internalType":"contract ILInsurance"}],"outputs":[],"stateMutability":"nonpayable"},{"type":"function","name":"unpause","inputs":[],"outputs":[],"stateMutability":"nonpayable"},{"type":"function","name":"updateNeuralState","inputs":[{"name":"key","type":"tuple","internalType":"struct PoolKey","components":[{"name":"currency0","type":"address","internalType":"Currency"},{"name":"currency1","type":"address","internalType":"Currency"},{"name":"fee","type":"uint24","internalType":"uint24"},{"name":"tickSpacing","type":"int24","internalType":"int24"},{"name":"hooks","type":"address","internalType":"contract IHooks"}]},{"name":"newFee","type":"uint24","internalType":"uint24"},{"name":"volatilityScore","type":"uint256","internalType":"uint256"},{"name":"ilProtect","type":"bool","internalType":"bool"},{"name":"ipfsCid","type":"string","internalType":"string"},{"name":"nonce","type":"uint256","internalType":"uint256"},{"name":"signature","type":"bytes","internalType":"bytes"}],"outputs":[],"stateMutability":"nonpayable"},{"type":"function","name":"yieldVault","inputs":[],"outputs":[{"name":"","type":"address","internalType":"contract YieldVault"}],"stateMutability":"view"},{"type":"event","name":"AgentSignalProcessed","inputs":[{"name":"poolId","type":"bytes32","indexed":true,"internalType":"PoolId"},{"name":"agent","type":"address","indexed":true,"internalType":"address"},{"name":"newFeeBps","type":"uint24","indexed":false,"internalType":"uint24"},{"name":"volatilityScore","type":"uint256","indexed":false,"internalType":"uint256"},{"name":"ilProtectionActive","type":"bool","indexed":false,"internalType":"bool"},{"name":"ipfsCid","type":"string","indexed":false,"internalType":"string"}],"anonymous":false},{"type":"event","name":"FeesRouteToVault","inputs":[{"name":"poolId","type":"bytes32","indexed":true,"internalType":"PoolId"},{"name":"amount","type":"uint256","indexed":false,"internalType":"uint256"}],"anonymous":false},{"type":"event","name":"ILProtectionTriggered","inputs":[{"name":"poolId","type":"bytes32","indexed":true,"internalType":"PoolId"},{"name":"deltaExposure","type":"int256","indexed":false,"internalType":"int256"}],"anonymous":false},{"type":"event","name":"Paused","inputs":[{"name":"account","type":"address","indexed":false,"internalType":"address"}],"anonymous":false},{"type":"event","name":"SoftwareTollCollected","inputs":[{"name":"poolId","type":"bytes32","indexed":true,"internalType":"PoolId"},{"name":"amount","type":"uint256","indexed":false,"internalType":"uint256"}],"anonymous":false},{"type":"event","name":"Unpaused","inputs":[{"name":"account","type":"address","indexed":false,"internalType":"address"}],"anonymous":false},{"type":"error","name":"ECDSAInvalidSignature","inputs":[]},{"type":"error","name":"ECDSAInvalidSignatureLength","inputs":[{"name":"length","type":"uint256","internalType":"uint256"}]},{"type":"error","name":"ECDSAInvalidSignatureS","inputs":[{"name":"s","type":"bytes32","internalType":"bytes32"}]},{"type":"error","name":"EnforcedPause","inputs":[]},{"type":"error","name":"ExpectedPause","inputs":[]},{"type":"error","name":"HookNotImplemented","inputs":[]},{"type":"error","name":"InvalidFeeRange","inputs":[]},{"type":"error","name":"InvalidSignature","inputs":[]},{"type":"error","name":"NotAgentOperator","inputs":[]},{"type":"error","name":"NotPoolManager","inputs":[]},{"type":"error","name":"PoolNotRegistered","inputs":[]},{"type":"error","name":"ReentrancyGuardReentrantCall","inputs":[]},{"type":"error","name":"UpdateTooFrequent","inputs":[]}],"bytecode":{"object":"0x60c06040523461039357604051601f61299938819003918201601f19168301916001600160401b038311848410176103975780849260c094604052833981010312610393578051906001600160a01b03821682036103935760208101516001600160a01b03811681036103935760408201516001600160a01b03811681036103935760608301516001600160a01b0381169290839003610393576100b160a06100aa608087016103cb565b95016103cb565b946080525f6101a06100c16103ab565b8281528260208201528260408201528260608201528260808201528260a08201528260c08201528260e0820152826101008201528261012082015282610140820152826101608201528261018082015201525f6101a061011f6103ab565b8281526001602082015282604082015260016060820152826080820152600160a0820152600160c0820152600160e08201528261010082015282610120820152600161014082015282610160820152826101808201520152612000301615801590610382575b8015610375575b8015610364575b8015610357575b8015610346575b8015610336575b8015610326575b801561031a575b801561030e575b80156102fe575b80156102f2575b80156102e6575b80156102da575b6102c75760017f9b779b17422d0df92223018b32b4d1fa46e071723d6817e2486d003becc55f0081905560a0919091525f8054610100600160a81b03191660089390931b610100600160a81b03169290921790915580546001600160a01b03199081169290921790556002805482166001600160a01b0393841617905560038054909116929091169190911790556040516125b990816103e0823960805181818161022101528181610317015281816103ad01528181610d360152818161112e015281816114c201528181611660015281816119060152611cb4015260a051818181610663015261181b0152f35b630732d7b560e51b5f523060045260245ffd5b506001301615156101d9565b506002301615156101d2565b506004301615156101cb565b50600830161515600114156101c4565b506010301615156101bd565b506020301615156101b6565b50604030161515600114156101af565b50608030161515600114156101a8565b5061010030161515600114156101a1565b506102003016151561019a565b506104003016151560011415610193565b506108003016151561018c565b506110003016151560011415610185565b5f80fd5b634e487b7160e01b5f52604160045260245ffd5b604051906101c082016001600160401b0381118382101761039757604052565b51906001600160a01b03821682036103935756fe60806040526004361015610011575f80fd5b5f803560e01c80630c5a61f814611d0257806321d0ee7014611c8a578063259982e514611c8a57806326f9009914611c275780633eaa80f214611bda5780633f4ba83a14611b0a5780634c451a6a14611a06578063575e24b41461183f5780635af586ca146117d15780635c975abb146117925780636c2bbe7e146116315780636fe7e6eb1461143557806376c7a3c7146113fa578063803db96d146113a85780638456cb59146112fc57806385d4198b146112aa5780639f063efc14611101578063a61a88b714611082578063a7f8a5e21461102e578063b47b2fb114610c6a578063b6a8b0fa146101f2578063bc063e1a14610c2f578063bd3be27c14610bf5578063c4e833ce14610a6a578063d9048878146103d1578063dc4c90d314610362578063dc98354e14610291578063e1b4af69146101f2578063f851a440146101a05763f8e6fcb514610164575f80fd5b3461019d57807ffffffffffffffffffffffffffffffffffffffffffffffffffffffffffffffffc36011261019d57602060405160648152f35b80fd5b503461019d57807ffffffffffffffffffffffffffffffffffffffffffffffffffffffffffffffffc36011261019d57602073ffffffffffffffffffffffffffffffffffffffff60025416604051908152f35b503461019d5760049061020436611fcc565b50505050505073ffffffffffffffffffffffffffffffffffffffff7f000000000000000000000000000000000000000000000000000000000000000016330361026c577f0a85dc29000000000000000000000000000000000000000000000000000000008152fd5b7fae18210a000000000000000000000000000000000000000000000000000000008152fd5b503461019d5760e07ffffffffffffffffffffffffffffffffffffffffffffffffffffffffffffffffc36011261019d576102c9611d8b565b5060a07fffffffffffffffffffffffffffffffffffffffffffffffffffffffffffffffdc36011261019d576004906102ff611f99565b5073ffffffffffffffffffffffffffffffffffffffff7f000000000000000000000000000000000000000000000000000000000000000016330361026c577f0a85dc29000000000000000000000000000000000000000000000000000000008152fd5b503461019d57807ffffffffffffffffffffffffffffffffffffffffffffffffffffffffffffffffc36011261019d57602060405173ffffffffffffffffffffffffffffffffffffffff7f0000000000000000000000000000000000000000000000000000000000000000168152f35b503461019d577ffffffffffffffffffffffffffffffffffffffffffffffffffffffffffffffffc36016101608112610a665760a01361019d5760a43562ffffff811690818103610a625760c43560e43592831515808503610a5e576101043567ffffffffffffffff8111610a5a5761044d903690600401611dcf565b9161012435966101443567ffffffffffffffff8111610a5657610474903690600401611dcf565b61047f999199612338565b6104876123af565b604051610493816120d2565b60043573ffffffffffffffffffffffffffffffffffffffff81168103610a5257815260243573ffffffffffffffffffffffffffffffffffffffff81168103610a5257602082015260443562ffffff81168103610a525760408201526064358060020b8103610a525760608201526084359073ffffffffffffffffffffffffffffffffffffffff82168203610a525760a091608082015220986040517fffffff000000000000000000000000000000000000000000000000000000000060208201928c845260e81b1660408201528960438201528560f81b60638201528787606483013761059b60406064838b8101888382015246608482015203016020810184520182612138565b5190207f19457468657265756d205369676e6564204d6573736167653a0a3332000000008c52601c52603c8b2067ffffffffffffffff8211610a25576040519061060d60207fffffffffffffffffffffffffffffffffffffffffffffffffffffffffffffffe0601f8601160183612138565b8282528c368d85011161019d576020846106329561063b9f83870137840101526123e2565b909a919a61241c565b6040517fa1dcf2820000000000000000000000000000000000000000000000000000000081527f000000000000000000000000000000000000000000000000000000000000000073ffffffffffffffffffffffffffffffffffffffff1699906020816004818e5afa908115610a1a578c916109d0575b5073ffffffffffffffffffffffffffffffffffffffff91604460209260405194859384927f91d148540000000000000000000000000000000000000000000000000000000084526004840152169d8e60248301525afa9081156109c5578b91610986575b501561095e57888a52600660205260408a2054036109365787895260066020526040892080547fffffffffffffffffffffffffffffffffffffffffffffffffffffffffffffffff81146109095760010190556101f4851080156108fe575b6108d6578360a0947f12aeb94efd71d3dd160ba7aec1a9660ae3113c1bb8f75e3a3073b7fe48f278ee9796947fffffffffffffffffffffffffffffffffffffffffffffffffffffffffffffffe094601f9461084660408f8e815260046020522091600360028401936107e68554426122cf565b508b7fffffffffffffffffffffffffffffffffffffffffffffffffffffffffff0000008254161781558d6001820155019060ff7fffffffffffffffffffffffffffffffffffffffffffffffffffffffffffffff0083541691151516179055565b4290558a8d52600560205260408d20877fffffffffffffffffffffffffffffffffffffffffffffffffffffffffff00000082541617905560405198899788526020880152604087015260806060870152816080870152868601378985828601015201168101030190a360017f9b779b17422d0df92223018b32b4d1fa46e071723d6817e2486d003becc55f005580f35b6004897fc15a4e6d000000000000000000000000000000000000000000000000000000008152fd5b506127108511610773565b60248b7f4e487b710000000000000000000000000000000000000000000000000000000081526011600452fd5b6004897f53f7a6ee000000000000000000000000000000000000000000000000000000008152fd5b60048a7f63dcebb1000000000000000000000000000000000000000000000000000000008152fd5b90506020813d6020116109bd575b816109a160209383612138565b810103126109b9575180151581036109b9575f610715565b8a80fd5b3d9150610994565b6040513d8d823e3d90fd5b90506020813d602011610a12575b816109eb60209383612138565b81010312610a0e575173ffffffffffffffffffffffffffffffffffffffff6106b1565b8b80fd5b3d91506109de565b6040513d8e823e3d90fd5b60248c7f4e487b710000000000000000000000000000000000000000000000000000000081526041600452fd5b8c80fd5b8980fd5b8680fd5b8580fd5b8280fd5b5080fd5b503461019d57807ffffffffffffffffffffffffffffffffffffffffffffffffffffffffffffffffc36011261019d57806101c0916101a0604051610aad8161211b565b8281528260208201528260408201528260608201528260808201528260a08201528260c08201528260e08201528261010082015282610120820152826101408201528261016082015282610180820152015260405190610b0c8261211b565b8082526020820191600183526040810182815260608201600181526080830184815260a084016001815260c085016001815260e086019060018252610100870192888452610120880194898652610140890196600188526101608a01988b8a526101a06101808c019b8d8d52019b808d5260206040519e8f92835251151591015251151560408d015251151560608c015251151560808b015251151560a08a015251151560c089015251151560e08801525115156101008701525115156101208601525115156101408501525115156101608401525115156101808301525115156101a0820152f35b503461019d57807ffffffffffffffffffffffffffffffffffffffffffffffffffffffffffffffffc36011261019d57602090604051908152f35b503461019d57807ffffffffffffffffffffffffffffffffffffffffffffffffffffffffffffffffc36011261019d5760206040516127108152f35b503461019d576101607ffffffffffffffffffffffffffffffffffffffffffffffffffffffffffffffffc36011261019d57610ca3611d8b565b5060a07fffffffffffffffffffffffffffffffffffffffffffffffffffffffffffffffdc36011261019d5760607fffffffffffffffffffffffffffffffffffffffffffffffffffffffffffffff3c36011261019d57610124356101443567ffffffffffffffff8111610a6257610d1d903690600401611dcf565b505073ffffffffffffffffffffffffffffffffffffffff7f000000000000000000000000000000000000000000000000000000000000000016330361100657610d64612338565b60a0610d6f36612179565b2090638d5e12345c908060801d9283600f0b9262ffffff6fffffffffffffffffffffffffffffffff87861296875f1461100157610dab90612309565b16911690818102918183041490151715610fd457620f4240900480158015610e83575b50508452600460205260ff600360408620015416610e3b575b60408460017f9b779b17422d0df92223018b32b4d1fa46e071723d6817e2486d003becc55f00558151907fb47b2fb10000000000000000000000000000000000000000000000000000000082526020820152f35b600f0b809101128015821691151617610e56575f8080610de7565b807f4e487b7100000000000000000000000000000000000000000000000000000000602492526011600452fd5b60648202908282046064141715610fa757612710610ea3910480926122cf565b9086851315610f34576044359073ffffffffffffffffffffffffffffffffffffffff82168203610f30578392837fb858f5722f66588fa2a2dcd3957a6c4a63a1f8ec30d9ddd1ad410ab51eff3d1e60208094867f62baeaef79315aec3f2237a4bc92640c050d1c17d41154a590e85ed2bae5b5319750505b604051908152a2604051908152a25f80610dce565b8780fd5b6024359073ffffffffffffffffffffffffffffffffffffffff82168203610f30578392837fb858f5722f66588fa2a2dcd3957a6c4a63a1f8ec30d9ddd1ad410ab51eff3d1e60208094867f62baeaef79315aec3f2237a4bc92640c050d1c17d41154a590e85ed2bae5b531975050610f1b565b6024877f4e487b710000000000000000000000000000000000000000000000000000000081526011600452fd5b6024867f4e487b710000000000000000000000000000000000000000000000000000000081526011600452fd5b610dab565b6004827fae18210a000000000000000000000000000000000000000000000000000000008152fd5b503461019d57807ffffffffffffffffffffffffffffffffffffffffffffffffffffffffffffffffc36011261019d5773ffffffffffffffffffffffffffffffffffffffff6020915460081c16604051908152f35b503461019d5760207ffffffffffffffffffffffffffffffffffffffffffffffffffffffffffffffffc36011261019d57604060a091600435815260046020522062ffffff815416906001810154906002810154600460ff6003840154169201549260405194855260208501526040840152151560608301526080820152f35b503461019d5761111036611ec8565b5050509291905073ffffffffffffffffffffffffffffffffffffffff7f00000000000000000000000000000000000000000000000000000000000000001633036112825783908360801d8281600f0b125f1461127a5761116f90612309565b6fffffffffffffffffffffffffffffffff16905b60a06111a973ffffffffffffffffffffffffffffffffffffffff60015416923690612245565b2093813b1561127657836064926fffffffffffffffffffffffffffffffff73ffffffffffffffffffffffffffffffffffffffff9560405198899788967fdeeaaa2100000000000000000000000000000000000000000000000000000000885216600487015260248601521660448401525af1801561126b57611256575b604080517f9f063efc00000000000000000000000000000000000000000000000000000000815260208101849052f35b611261838092612138565b610a66575f611226565b6040513d85823e3d90fd5b8380fd5b508190611183565b6004847fae18210a000000000000000000000000000000000000000000000000000000008152fd5b503461019d57807ffffffffffffffffffffffffffffffffffffffffffffffffffffffffffffffffc36011261019d57602073ffffffffffffffffffffffffffffffffffffffff60015416604051908152f35b503461019d57807ffffffffffffffffffffffffffffffffffffffffffffffffffffffffffffffffc36011261019d5773ffffffffffffffffffffffffffffffffffffffff60025416330361019d576113526123af565b60017fffffffffffffffffffffffffffffffffffffffffffffffffffffffffffffff008254161781557f62e78cea01bee320cd4e420270b5ea74000d11b0c9f74754ebdbfc544b05a2586020604051338152a180f35b503461019d57807ffffffffffffffffffffffffffffffffffffffffffffffffffffffffffffffffc36011261019d57602073ffffffffffffffffffffffffffffffffffffffff60035416604051908152f35b503461019d57807ffffffffffffffffffffffffffffffffffffffffffffffffffffffffffffffffc36011261019d5760206040516101f48152f35b503461019d576101007ffffffffffffffffffffffffffffffffffffffffffffffffffffffffffffffffc36011261019d5761146e611d8b565b5060a07fffffffffffffffffffffffffffffffffffffffffffffffffffffffffffffffdc36011261019d576114a1611f99565b506114aa611fbc565b5073ffffffffffffffffffffffffffffffffffffffff7f00000000000000000000000000000000000000000000000000000000000000001633036116095760409060a06114f636612179565b208251611502816120d2565b610bb8815260046020820161138881526115a986840142815260608501906001825260808601938885528789528560205262ffffff808b8b20985116167fffffffffffffffffffffffffffffffffffffffffffffffffffffffffff000000885416178755516001870155516002860155511515600385019060ff7fffffffffffffffffffffffffffffffffffffffffffffffffffffffffffffff0083541691151516179055565b519101558152600560205220610bb87fffffffffffffffffffffffffffffffffffffffffffffffffffffffffff00000082541617905560206040517f6fe7e6eb000000000000000000000000000000000000000000000000000000008152f35b807fae18210a0000000000000000000000000000000000000000000000000000000060049252fd5b50346117665761164036611ec8565b50505091905073ffffffffffffffffffffffffffffffffffffffff9392937f000000000000000000000000000000000000000000000000000000000000000016330361176a5760a06116ac73ffffffffffffffffffffffffffffffffffffffff60015416923690612245565b2093813b1561176657604473ffffffffffffffffffffffffffffffffffffffff915f809460405198899586947f6b82df7000000000000000000000000000000000000000000000000000000000865216600485015260248401525af192831561175b57604093611746575b50825191507f6c2bbe7e0000000000000000000000000000000000000000000000000000000082526020820152f35b6117539192505f90612138565b5f905f611717565b6040513d5f823e3d90fd5b5f80fd5b7fae18210a000000000000000000000000000000000000000000000000000000005f5260045ffd5b34611766575f7ffffffffffffffffffffffffffffffffffffffffffffffffffffffffffffffffc36011261176657602060ff5f54166040519015158152f35b34611766575f7ffffffffffffffffffffffffffffffffffffffffffffffffffffffffffffffffc36011261176657602060405173ffffffffffffffffffffffffffffffffffffffff7f0000000000000000000000000000000000000000000000000000000000000000168152f35b34611766576101407ffffffffffffffffffffffffffffffffffffffffffffffffffffffffffffffffc36011261176657611877611d8b565b5060a07fffffffffffffffffffffffffffffffffffffffffffffffffffffffffffffffdc3601126117665760607fffffffffffffffffffffffffffffffffffffffffffffffffffffffffffffff3c360112611766576101243567ffffffffffffffff8111611766576118ed903690600401611dcf565b505073ffffffffffffffffffffffffffffffffffffffff7f000000000000000000000000000000000000000000000000000000000000000016330361176a576119346123af565b606060a061194136612179565b20805f52600560205262ffffff60405f2054169081156119fc575b81638d5e12345d5f526004602052611b5860405f2060405161197d816120d2565b62ffffff8254168152608060046001840154938460208501526002810154604085015260ff6003820154161515888501520154910152116119f7575b62ffffff62400000604051927f575e24b40000000000000000000000000000000000000000000000000000000084525f602085015217166040820152f35b6119b9565b610bb8915061195c565b346117665760407ffffffffffffffffffffffffffffffffffffffffffffffffffffffffffffffffc3601126117665760043573ffffffffffffffffffffffffffffffffffffffff81168103611766576024359073ffffffffffffffffffffffffffffffffffffffff821680920361176657611a9a73ffffffffffffffffffffffffffffffffffffffff60025416331461206d565b7fffffffffffffffffffffff0000000000000000000000000000000000000000ff74ffffffffffffffffffffffffffffffffffffffff005f549260081b169116175f557fffffffffffffffffffffffff000000000000000000000000000000000000000060015416176001555f80f35b34611766575f7ffffffffffffffffffffffffffffffffffffffffffffffffffffffffffffffffc3601126117665773ffffffffffffffffffffffffffffffffffffffff600254163303611766575f5460ff811615611bb2577fffffffffffffffffffffffffffffffffffffffffffffffffffffffffffffff00165f557f5db9ee0a495bf2e6ff9c91a7834c1ba4fdd244a5e8aa4e537bd38aeae4b073aa6020604051338152a1005b7f8dfc202b000000000000000000000000000000000000000000000000000000005f5260045ffd5b346117665760207ffffffffffffffffffffffffffffffffffffffffffffffffffffffffffffffffc360112611766576004355f526005602052602062ffffff60405f205416604051908152f35b346117665760207ffffffffffffffffffffffffffffffffffffffffffffffffffffffffffffffffc3601126117665773ffffffffffffffffffffffffffffffffffffffff611c73611d8b565b165f526006602052602060405f2054604051908152f35b3461176657611c9836611dfd565b505050505073ffffffffffffffffffffffffffffffffffffffff7f000000000000000000000000000000000000000000000000000000000000000016330361176a577f0a85dc29000000000000000000000000000000000000000000000000000000005f5260045ffd5b346117665760207ffffffffffffffffffffffffffffffffffffffffffffffffffffffffffffffffc3601126117665773ffffffffffffffffffffffffffffffffffffffff611d4e611d8b565b611d5d8260025416331461206d565b167fffffffffffffffffffffffff000000000000000000000000000000000000000060035416176003555f80f35b6004359073ffffffffffffffffffffffffffffffffffffffff8216820361176657565b359073ffffffffffffffffffffffffffffffffffffffff8216820361176657565b9181601f840112156117665782359167ffffffffffffffff8311611766576020838186019501011161176657565b906101607ffffffffffffffffffffffffffffffffffffffffffffffffffffffffffffffffc8301126117665760043573ffffffffffffffffffffffffffffffffffffffff81168103611766579160a07fffffffffffffffffffffffffffffffffffffffffffffffffffffffffffffffdc8201126117665760249160807fffffffffffffffffffffffffffffffffffffffffffffffffffffffffffffff3c8301126117665760c491610144359067ffffffffffffffff821161176657611ec491600401611dcf565b9091565b906101a07ffffffffffffffffffffffffffffffffffffffffffffffffffffffffffffffffc8301126117665760043573ffffffffffffffffffffffffffffffffffffffff81168103611766579160a07fffffffffffffffffffffffffffffffffffffffffffffffffffffffffffffffdc8201126117665760249160807fffffffffffffffffffffffffffffffffffffffffffffffffffffffffffffff3c8301126117665760c49161014435916101643591610184359067ffffffffffffffff821161176657611ec491600401611dcf565b60c4359073ffffffffffffffffffffffffffffffffffffffff8216820361176657565b60e435908160020b820361176657565b6101207ffffffffffffffffffffffffffffffffffffffffffffffffffffffffffffffffc8201126117665760043573ffffffffffffffffffffffffffffffffffffffff81168103611766579160a07fffffffffffffffffffffffffffffffffffffffffffffffffffffffffffffffdc8301126117665760249160c4359160e43591610104359067ffffffffffffffff821161176657611ec491600401611dcf565b1561207457565b60646040517f08c379a000000000000000000000000000000000000000000000000000000000815260206004820152600a60248201527f4f6e6c792061646d696e000000000000000000000000000000000000000000006044820152fd5b60a0810190811067ffffffffffffffff8211176120ee57604052565b7f4e487b71000000000000000000000000000000000000000000000000000000005f52604160045260245ffd5b6101c0810190811067ffffffffffffffff8211176120ee57604052565b90601f7fffffffffffffffffffffffffffffffffffffffffffffffffffffffffffffffe0910116810190811067ffffffffffffffff8211176120ee57604052565b7fffffffffffffffffffffffffffffffffffffffffffffffffffffffffffffffdc60a091011261176657604051906121b0826120d2565b8160243573ffffffffffffffffffffffffffffffffffffffff8116810361176657815260443573ffffffffffffffffffffffffffffffffffffffff8116810361176657602082015260643562ffffff811681036117665760408201526084358060020b810361176657606082015260a4359073ffffffffffffffffffffffffffffffffffffffff821682036117665760800152565b91908260a09103126117665760405161225d816120d2565b809261226881611dae565b825261227660208201611dae565b6020830152604081013562ffffff811681036117665760408301526060810135908160020b820361176657608091606084015201359073ffffffffffffffffffffffffffffffffffffffff821682036117665760800152565b919082039182116122dc57565b7f4e487b71000000000000000000000000000000000000000000000000000000005f52601160045260245ffd5b600f0b7fffffffffffffffffffffffffffffffff8000000000000000000000000000000081146122dc575f0390565b60027f9b779b17422d0df92223018b32b4d1fa46e071723d6817e2486d003becc55f0054146123875760027f9b779b17422d0df92223018b32b4d1fa46e071723d6817e2486d003becc55f0055565b7f3ee5aeb5000000000000000000000000000000000000000000000000000000005f5260045ffd5b60ff5f54166123ba57565b7fd93c0665000000000000000000000000000000000000000000000000000000005f5260045ffd5b81519190604183036124125761240b9250602082015190606060408401519301515f1a906124f4565b9192909190565b50505f9160029190565b60048110156124c7578061242e575050565b6001810361245e577ff645eedf000000000000000000000000000000000000000000000000000000005f5260045ffd5b6002810361249257507ffce698f7000000000000000000000000000000000000000000000000000000005f5260045260245ffd5b60031461249c5750565b7fd78bce0c000000000000000000000000000000000000000000000000000000005f5260045260245ffd5b7f4e487b71000000000000000000000000000000000000000000000000000000005f52602160045260245ffd5b91907f7fffffffffffffffffffffffffffffff5d576e7357a4501ddfe92f46681b20a08411612578579160209360809260ff5f9560405194855216868401526040830152606082015282805260015afa1561175b575f5173ffffffffffffffffffffffffffffffffffffffff81161561256e57905f905f90565b505f906001905f90565b5050505f916003919056fea264697066735822122029c5111e27ec3ffa6a2309fb2b350de9157db0e623c545fba5c20fd4c0324d7364736f6c634300081a0033","linkReferences":{}},"methodIdentifiers":{"AGENT_REGISTRY()":"5af586ca","MAX_FEE()":"bc063e1a","MIN_FEE()":"76c7a3c7","MIN_UPDATE_INTERVAL()":"bd3be27c","SOFTWARE_TOLL_BPS()":"f8e6fcb5","admin()":"f851a440","afterAddLiquidity(address,(address,address,uint24,int24,address),(int24,int24,int256,bytes32),int256,int256,bytes)":"9f063efc","afterDonate(address,(address,address,uint24,int24,address),uint256,uint256,bytes)":"e1b4af69","afterInitialize(address,(address,address,uint24,int24,address),uint160,int24)":"6fe7e6eb","afterRemoveLiquidity(address,(address,address,uint24,int24,address),(int24,int24,int256,bytes32),int256,int256,bytes)":"6c2bbe7e","afterSwap(address,(address,address,uint24,int24,address),(bool,int256,uint160),int256,bytes)":"b47b2fb1","agentNonces(address)":"26f90099","beforeAddLiquidity(address,(address,address,uint24,int24,address),(int24,int24,int256,bytes32),bytes)":"259982e5","beforeDonate(address,(address,address,uint24,int24,address),uint256,uint256,bytes)":"b6a8b0fa","beforeInitialize(address,(address,address,uint24,int24,address),uint160)":"dc98354e","beforeRemoveLiquidity(address,(address,address,uint24,int24,address),(int24,int24,int256,bytes32),bytes)":"21d0ee70","beforeSwap(address,(address,address,uint24,int24,address),(bool,int256,uint160),bytes)":"575e24b4","currentDynamicFee(bytes32)":"3eaa80f2","getHookPermissions()":"c4e833ce","ilInsurance()":"85d4198b","pause()":"8456cb59","paused()":"5c975abb","poolIntelligence(bytes32)":"a61a88b7","poolManager()":"dc4c90d3","protocolTreasury()":"803db96d","setProtocolTreasury(address)":"0c5a61f8","setVaults(address,address)":"4c451a6a","unpause()":"3f4ba83a","updateNeuralState((address,address,uint24,int24,address),uint24,uint256,bool,string,uint256,bytes)":"d9048878","yieldVault()":"a7f8a5e2"},"id":121}