{"abi":[{"type":"constructor","inputs":[{"name":"_poolManager","type":"address","internalType":"contract IPoolManager"},{"name":"_agentRegistry","type":"address","internalType":"contract AgentRegistry"},{"name":"_yieldVault","type":"address","internalType":"contract YieldVault"},{"name":"_ilInsurance","type":"address","internalType":"contract ILInsurance"},{"name":"_admin","type":"address","internalType":"address"},{"name":"_protocolTreasury","type":"address","internalType":"address"}],"stateMutability":"nonpayable"},{"type":"function","name":"MAX_FEE","inputs":[],"outputs":[{"name":"","type":"uint24","internalType":"uint24"}],"stateMutability":"view"},{"type":"function","name":"MIN_FEE","inputs":[],"outputs":[{"name":"","type":"uint24","internalType":"uint24"}],"stateMutability":"view"},{"type":"function","name":"MIN_UPDATE_INTERVAL","inputs":[],"outputs":[{"name":"","type":"uint256","internalType":"uint256"}],"stateMutability":"view"},{"type":"function","name":"SOFTWARE_TOLL_BPS","inputs":[],"outputs":[{"name":"","type":"uint256","internalType":"uint256"}],"stateMutability":"view"},{"type":"function","name":"admin","inputs":[],"outputs":[{"name":"","type":"address","internalType":"address"}],"stateMutability":"view"},{"type":"function","name":"afterAddLiquidity","inputs":[{"name":"sender","type":"address","internalType":"address"},{"name":"key","type":"tuple","internalType":"struct PoolKey","components":[{"name":"currency0","type":"address","internalType":"Currency"},{"name":"currency1","type":"address","internalType":"Currency"},{"name":"fee","type":"uint24","internalType":"uint24"},{"name":"tickSpacing","type":"int24","internalType":"int24"},{"name":"hooks","type":"address","internalType":"contract IHooks"}]},{"name":"params","type":"tuple","internalType":"struct ModifyLiquidityParams","components":[{"name":"tickLower","type":"int24","internalType":"int24"},{"name":"tickUpper","type":"int24","internalType":"int24"},{"name":"liquidityDelta","type":"int256","internalType":"int256"},{"name":"salt","type":"bytes32","internalType":"bytes32"}]},{"name":"delta","type":"int256","internalType":"BalanceDelta"},{"name":"feesAccrued","type":"int256","internalType":"BalanceDelta"},{"name":"hookData","type":"bytes","internalType":"bytes"}],"outputs":[{"name":"","type":"bytes4","internalType":"bytes4"},{"name":"","type":"int256","internalType":"BalanceDelta"}],"stateMutability":"nonpayable"},{"type":"function","name":"afterDonate","inputs":[{"name":"sender","type":"address","internalType":"address"},{"name":"key","type":"tuple","internalType":"struct PoolKey","components":[{"name":"currency0","type":"address","internalType":"Currency"},{"name":"currency1","type":"address","internalType":"Currency"},{"name":"fee","type":"uint24","internalType":"uint24"},{"name":"tickSpacing","type":"int24","internalType":"int24"},{"name":"hooks","type":"address","internalType":"contract IHooks"}]},{"name":"amount0","type":"uint256","internalType":"uint256"},{"name":"amount1","type":"uint256","internalType":"uint256"},{"name":"hookData","type":"bytes","internalType":"bytes"}],"outputs":[{"name":"","type":"bytes4","internalType":"bytes4"}],"stateMutability":"nonpayable"},{"type":"function","name":"afterInitialize","inputs":[{"name":"sender","type":"address","internalType":"address"},{"name":"key","type":"tuple","internalType":"struct PoolKey","components":[{"name":"currency0","type":"address","internalType":"Currency"},{"name":"currency1","type":"address","internalType":"Currency"},{"name":"fee","type":"uint24","internalType":"uint24"},{"name":"tickSpacing","type":"int24","internalType":"int24"},{"name":"hooks","type":"address","internalType":"contract IHooks"}]},{"name":"sqrtPriceX96","type":"uint160","internalType":"uint160"},{"name":"tick","type":"int24","internalType":"int24"}],"outputs":[{"name":"","type":"bytes4","internalType":"bytes4"}],"stateMutability":"nonpayable"},{"type":"function","name":"afterRemoveLiquidity","inputs":[{"name":"sender","type":"address","internalType":"address"},{"name":"key","type":"tuple","internalType":"struct PoolKey","components":[{"name":"currency0","type":"address","internalType":"Currency"},{"name":"currency1","type":"address","internalType":"Currency"},{"name":"fee","type":"uint24","internalType":"uint24"},{"name":"tickSpacing","type":"int24","internalType":"int24"},{"name":"hooks","type":"address","internalType":"contract IHooks"}]},{"name":"params","type":"tuple","internalType":"struct ModifyLiquidityParams","components":[{"name":"tickLower","type":"int24","internalType":"int24"},{"name":"tickUpper","type":"int24","internalType":"int24"},{"name":"liquidityDelta","type":"int256","internalType":"int256"},{"name":"salt","type":"bytes32","internalType":"bytes32"}]},{"name":"delta","type":"int256","internalType":"BalanceDelta"},{"name":"feesAccrued","type":"int256","internalType":"BalanceDelta"},{"name":"hookData","type":"bytes","internalType":"bytes"}],"outputs":[{"name":"","type":"bytes4","internalType":"bytes4"},{"name":"","type":"int256","internalType":"BalanceDelta"}],"stateMutability":"nonpayable"},{"type":"function","name":"afterSwap","inputs":[{"name":"sender","type":"address","internalType":"address"},{"name":"key","type":"tuple","internalType":"struct PoolKey","components":[{"name":"currency0","type":"address","internalType":"Currency"},{"name":"currency1","type":"address","internalType":"Currency"},{"name":"fee","type":"uint24","internalType":"uint24"},{"name":"tickSpacing","type":"int24","internalType":"int24"},{"name":"hooks","type":"address","internalType":"contract IHooks"}]},{"name":"params","type":"tuple","internalType":"struct SwapParams","components":[{"name":"zeroForOne","type":"bool","internalType":"bool"},{"name":"amountSpecified","type":"int256","internalType":"int256"},{"name":"sqrtPriceLimitX96","type":"uint160","internalType":"uint160"}]},{"name":"delta","type":"int256","internalType":"BalanceDelta"},{"name":"hookData","type":"bytes","internalType":"bytes"}],"outputs":[{"name":"","type":"bytes4","internalType":"bytes4"},{"name":"","type":"int128","internalType":"int128"}],"stateMutability":"nonpayable"},{"type":"function","name":"agentRegistry","inputs":[],"outputs":[{"name":"","type":"address","internalType":"contract AgentRegistry"}],"stateMutability":"view"},{"type":"function","name":"beforeAddLiquidity","inputs":[{"name":"sender","type":"address","internalType":"address"},{"name":"key","type":"tuple","internalType":"struct PoolKey","components":[{"name":"currency0","type":"address","internalType":"Currency"},{"name":"currency1","type":"address","internalType":"Currency"},{"name":"fee","type":"uint24","internalType":"uint24"},{"name":"tickSpacing","type":"int24","internalType":"int24"},{"name":"hooks","type":"address","internalType":"contract IHooks"}]},{"name":"params","type":"tuple","internalType":"struct ModifyLiquidityParams","components":[{"name":"tickLower","type":"int24","internalType":"int24"},{"name":"tickUpper","type":"int24","internalType":"int24"},{"name":"liquidityDelta","type":"int256","internalType":"int256"},{"name":"salt","type":"bytes32","internalType":"bytes32"}]},{"name":"hookData","type":"bytes","internalType":"bytes"}],"outputs":[{"name":"","type":"bytes4","internalType":"bytes4"}],"stateMutability":"nonpayable"},{"type":"function","name":"beforeDonate","inputs":[{"name":"sender","type":"address","internalType":"address"},{"name":"key","type":"tuple","internalType":"struct PoolKey","components":[{"name":"currency0","type":"address","internalType":"Currency"},{"name":"currency1","type":"address","internalType":"Currency"},{"name":"fee","type":"uint24","internalType":"uint24"},{"name":"tickSpacing","type":"int24","internalType":"int24"},{"name":"hooks","type":"address","internalType":"contract IHooks"}]},{"name":"amount0","type":"uint256","internalType":"uint256"},{"name":"amount1","type":"uint256","internalType":"uint256"},{"name":"hookData","type":"bytes","internalType":"bytes"}],"outputs":[{"name":"","type":"bytes4","internalType":"bytes4"}],"stateMutability":"nonpayable"},{"type":"function","name":"beforeInitialize","inputs":[{"name":"sender","type":"address","internalType":"address"},{"name":"key","type":"tuple","internalType":"struct PoolKey","components":[{"name":"currency0","type":"address","internalType":"Currency"},{"name":"currency1","type":"address","internalType":"Currency"},{"name":"fee","type":"uint24","internalType":"uint24"},{"name":"tickSpacing","type":"int24","internalType":"int24"},{"name":"hooks","type":"address","internalType":"contract IHooks"}]},{"name":"sqrtPriceX96","type":"uint160","internalType":"uint160"}],"outputs":[{"name":"","type":"bytes4","internalType":"bytes4"}],"stateMutability":"nonpayable"},{"type":"function","name":"beforeRemoveLiquidity","inputs":[{"name":"sender","type":"address","internalType":"address"},{"name":"key","type":"tuple","internalType":"struct PoolKey","components":[{"name":"currency0","type":"address","internalType":"Currency"},{"name":"currency1","type":"address","internalType":"Currency"},{"name":"fee","type":"uint24","internalType":"uint24"},{"name":"tickSpacing","type":"int24","internalType":"int24"},{"name":"hooks","type":"address","internalType":"contract IHooks"}]},{"name":"params","type":"tuple","internalType":"struct ModifyLiquidityParams","components":[{"name":"tickLower","type":"int24","internalType":"int24"},{"name":"tickUpper","type":"int24","internalType":"int24"},{"name":"liquidityDelta","type":"int256","internalType":"int256"},{"name":"salt","type":"bytes32","internalType":"bytes32"}]},{"name":"hookData","type":"bytes","internalType":"bytes"}],"outputs":[{"name":"","type":"bytes4","internalType":"bytes4"}],"stateMutability":"nonpayable"},{"type":"function","name":"beforeSwap","inputs":[{"name":"sender","type":"address","internalType":"address"},{"name":"key","type":"tuple","internalType":"struct PoolKey","components":[{"name":"currency0","type":"address","internalType":"Currency"},{"name":"currency1","type":"address","internalType":"Currency"},{"name":"fee","type":"uint24","internalType":"uint24"},{"name":"tickSpacing","type":"int24","internalType":"int24"},{"name":"hooks","type":"address","internalType":"contract IHooks"}]},{"name":"params","type":"tuple","internalType":"struct SwapParams","components":[{"name":"zeroForOne","type":"bool","internalType":"bool"},{"name":"amountSpecified","type":"int256","internalType":"int256"},{"name":"sqrtPriceLimitX96","type":"uint160","internalType":"uint160"}]},{"name":"hookData","type":"bytes","internalType":"bytes"}],"outputs":[{"name":"","type":"bytes4","internalType":"bytes4"},{"name":"","type":"int256","internalType":"BeforeSwapDelta"},{"name":"","type":"uint24","internalType":"uint24"}],"stateMutability":"nonpayable"},{"type":"function","name":"currentDynamicFee","inputs":[{"name":"","type":"bytes32","internalType":"PoolId"}],"outputs":[{"name":"","type":"uint24","internalType":"uint24"}],"stateMutability":"view"},{"type":"function","name":"getHookPermissions","inputs":[],"outputs":[{"name":"","type":"tuple","internalType":"struct Hooks.Permissions","components":[{"name":"beforeInitialize","type":"bool","internalType":"bool"},{"name":"afterInitialize","type":"bool","internalType":"bool"},{"name":"beforeAddLiquidity","type":"bool","internalType":"bool"},{"name":"afterAddLiquidity","type":"bool","internalType":"bool"},{"name":"beforeRemoveLiquidity","type":"bool","internalType":"bool"},{"name":"afterRemoveLiquidity","type":"bool","internalType":"bool"},{"name":"beforeSwap","type":"bool","internalType":"bool"},{"name":"afterSwap","type":"bool","internalType":"bool"},{"name":"beforeDonate","type":"bool","internalType":"bool"},{"name":"afterDonate","type":"bool","internalType":"bool"},{"name":"beforeSwapReturnDelta","type":"bool","internalType":"bool"},{"name":"afterSwapReturnDelta","type":"bool","internalType":"bool"},{"name":"afterAddLiquidityReturnDelta","type":"bool","internalType":"bool"},{"name":"afterRemoveLiquidityReturnDelta","type":"bool","internalType":"bool"}]}],"stateMutability":"pure"},{"type":"function","name":"ilInsurance","inputs":[],"outputs":[{"name":"","type":"address","internalType":"contract ILInsurance"}],"stateMutability":"view"},{"type":"function","name":"pause","inputs":[],"outputs":[],"stateMutability":"nonpayable"},{"type":"function","name":"paused","inputs":[],"outputs":[{"name":"","type":"bool","internalType":"bool"}],"stateMutability":"view"},{"type":"function","name":"poolIntelligence","inputs":[{"name":"","type":"bytes32","internalType":"PoolId"}],"outputs":[{"name":"targetFeeBps","type":"uint24","internalType":"uint24"},{"name":"volatilityScore","type":"uint256","internalType":"uint256"},{"name":"lastAgentUpdate","type":"uint256","internalType":"uint256"},{"name":"ilProtectionActive","type":"bool","internalType":"bool"},{"name":"epochFeesAccrued","type":"uint256","internalType":"uint256"}],"stateMutability":"view"},{"type":"function","name":"poolManager","inputs":[],"outputs":[{"name":"","type":"address","internalType":"contract IPoolManager"}],"stateMutability":"view"},{"type":"function","name":"protocolTreasury","inputs":[],"outputs":[{"name":"","type":"address","internalType":"address"}],"stateMutability":"view"},{"type":"function","name":"setProtocolTreasury","inputs":[{"name":"_newTreasury","type":"address","internalType":"address"}],"outputs":[],"stateMutability":"nonpayable"},{"type":"function","name":"setVaults","inputs":[{"name":"_yieldVault","type":"address","internalType":"contract YieldVault"},{"name":"_ilInsurance","type":"address","internalType":"contract ILInsurance"}],"outputs":[],"stateMutability":"nonpayable"},{"type":"function","name":"unpause","inputs":[],"outputs":[],"stateMutability":"nonpayable"},{"type":"function","name":"updateNeuralState","inputs":[{"name":"key","type":"tuple","internalType":"struct PoolKey","components":[{"name":"currency0","type":"address","internalType":"Currency"},{"name":"currency1","type":"address","internalType":"Currency"},{"name":"fee","type":"uint24","internalType":"uint24"},{"name":"tickSpacing","type":"int24","internalType":"int24"},{"name":"hooks","type":"address","internalType":"contract IHooks"}]},{"name":"newFee","type":"uint24","internalType":"uint24"},{"name":"ilProtect","type":"bool","internalType":"bool"},{"name":"signature","type":"bytes","internalType":"bytes"}],"outputs":[],"stateMutability":"nonpayable"},{"type":"function","name":"yieldVault","inputs":[],"outputs":[{"name":"","type":"address","internalType":"contract YieldVault"}],"stateMutability":"view"},{"type":"event","name":"AgentSignalProcessed","inputs":[{"name":"poolId","type":"bytes32","indexed":true,"internalType":"PoolId"},{"name":"agent","type":"address","indexed":true,"internalType":"address"},{"name":"newFeeBps","type":"uint24","indexed":false,"internalType":"uint24"},{"name":"volatilityScore","type":"uint256","indexed":false,"internalType":"uint256"},{"name":"ilProtectionActive","type":"bool","indexed":false,"internalType":"bool"},{"name":"ipfsCID","type":"string","indexed":false,"internalType":"string"}],"anonymous":false},{"type":"event","name":"FeesRouteToVault","inputs":[{"name":"poolId","type":"bytes32","indexed":true,"internalType":"PoolId"},{"name":"amount","type":"uint256","indexed":false,"internalType":"uint256"}],"anonymous":false},{"type":"event","name":"ILProtectionTriggered","inputs":[{"name":"poolId","type":"bytes32","indexed":true,"internalType":"PoolId"},{"name":"deltaExposure","type":"int256","indexed":false,"internalType":"int256"}],"anonymous":false},{"type":"event","name":"Paused","inputs":[{"name":"account","type":"address","indexed":false,"internalType":"address"}],"anonymous":false},{"type":"event","name":"SoftwareTollCollected","inputs":[{"name":"poolId","type":"bytes32","indexed":true,"internalType":"PoolId"},{"name":"amount","type":"uint256","indexed":false,"internalType":"uint256"}],"anonymous":false},{"type":"event","name":"Unpaused","inputs":[{"name":"account","type":"address","indexed":false,"internalType":"address"}],"anonymous":false},{"type":"error","name":"ECDSAInvalidSignature","inputs":[]},{"type":"error","name":"ECDSAInvalidSignatureLength","inputs":[{"name":"length","type":"uint256","internalType":"uint256"}]},{"type":"error","name":"ECDSAInvalidSignatureS","inputs":[{"name":"s","type":"bytes32","internalType":"bytes32"}]},{"type":"error","name":"EnforcedPause","inputs":[]},{"type":"error","name":"ExpectedPause","inputs":[]},{"type":"error","name":"HookNotImplemented","inputs":[]},{"type":"error","name":"InvalidFeeRange","inputs":[]},{"type":"error","name":"InvalidSignature","inputs":[]},{"type":"error","name":"NotAgentOperator","inputs":[]},{"type":"error","name":"NotPoolManager","inputs":[]},{"type":"error","name":"PoolNotRegistered","inputs":[]},{"type":"error","name":"ReentrancyGuardReentrantCall","inputs":[]},{"type":"error","name":"UpdateTooFrequent","inputs":[]}],"bytecode":{"object":"0x60c06040523461038e57604051601f61271638819003918201601f19168301916001600160401b038311848410176103925780849260c09460405283398101031261038e578051906001600160a01b038216820361038e5760208101516001600160a01b038116810361038e5760408201516001600160a01b038116810361038e5760608301516001600160a01b038116929083900361038e576100b160a06100aa608087016103c6565b95016103c6565b946080525f6101a06100c16103a6565b8281528260208201528260408201528260608201528260808201528260a08201528260c08201528260e0820152826101008201528261012082015282610140820152826101608201528261018082015201525f6101a061011f6103a6565b8281526001602082015282604082015260016060820152826080820152600160a0820152600160c0820152600160e08201528261010082015282610120820152826101408201528261016082015282610180820152015261200030161580159061037d575b8015610370575b801561035f575b8015610352575b8015610341575b8015610331575b8015610321575b8015610315575b8015610309575b80156102fd575b80156102f1575b80156102e5575b80156102d9575b6102c65760017f9b779b17422d0df92223018b32b4d1fa46e071723d6817e2486d003becc55f0081905560a0919091525f8054610100600160a81b03191660089390931b610100600160a81b03169290921790915580546001600160a01b03199081169290921790556002805482166001600160a01b03938416179055600380549091169290911691909117905560405161233b90816103db82396080518181816102160152818161030c015281816103a20152818161069101528181610a8c01528181610dfc01528181610f9a015281816111d201526114c0015260a0518181816117450152611a8d0152f35b630732d7b560e51b5f523060045260245ffd5b506001301615156101d8565b506002301615156101d1565b506004301615156101ca565b506008301615156101c3565b506010301615156101bc565b506020301615156101b5565b50604030161515600114156101ae565b50608030161515600114156101a7565b5061010030161515600114156101a0565b5061020030161515610199565b506104003016151560011415610192565b506108003016151561018b565b506110003016151560011415610184565b5f80fd5b634e487b7160e01b5f52604160045260245ffd5b604051906101c082016001600160401b0381118382101761039257604052565b51906001600160a01b038216820361038e5756fe60806040526004361015610011575f80fd5b5f803560e01c80630c5a61f814611ab15780630d1cfcae14611a435780631901a7111461150e57806321d0ee7014611496578063259982e5146114965780633eaa80f2146114495780633f4ba83a146113795780634c451a6a14611275578063575e24b41461110b5780635c975abb146110cc5780636c2bbe7e14610f6b5780636fe7e6eb14610d6f57806376c7a3c714610d34578063803db96d14610ce25780638456cb5914610c3657806385d4198b14610be45780639f063efc14610a60578063a61a88b7146109e1578063a7f8a5e21461098d578063b47b2fb1146105c5578063b6a8b0fa146101e7578063bc063e1a1461058a578063bd3be27c14610550578063c4e833ce146103c6578063dc4c90d314610357578063dc98354e14610286578063e1b4af69146101e7578063f851a440146101955763f8e6fcb514610159575f80fd5b3461019257807ffffffffffffffffffffffffffffffffffffffffffffffffffffffffffffffffc36011261019257602060405160648152f35b80fd5b503461019257807ffffffffffffffffffffffffffffffffffffffffffffffffffffffffffffffffc36011261019257602073ffffffffffffffffffffffffffffffffffffffff60025416604051908152f35b5034610192576004906101f936611d7b565b50505050505073ffffffffffffffffffffffffffffffffffffffff7f0000000000000000000000000000000000000000000000000000000000000000163303610261577f0a85dc29000000000000000000000000000000000000000000000000000000008152fd5b7fae18210a000000000000000000000000000000000000000000000000000000008152fd5b50346101925760e07ffffffffffffffffffffffffffffffffffffffffffffffffffffffffffffffffc360112610192576102be611b3a565b5060a07fffffffffffffffffffffffffffffffffffffffffffffffffffffffffffffffdc360112610192576004906102f4611d48565b5073ffffffffffffffffffffffffffffffffffffffff7f0000000000000000000000000000000000000000000000000000000000000000163303610261577f0a85dc29000000000000000000000000000000000000000000000000000000008152fd5b503461019257807ffffffffffffffffffffffffffffffffffffffffffffffffffffffffffffffffc36011261019257602060405173ffffffffffffffffffffffffffffffffffffffff7f0000000000000000000000000000000000000000000000000000000000000000168152f35b503461019257807ffffffffffffffffffffffffffffffffffffffffffffffffffffffffffffffffc36011261019257806101c0916101a060405161040981611e9d565b8281528260208201528260408201528260608201528260808201528260a08201528260c08201528260e0820152826101008201528261012082015282610140820152826101608201528261018082015201526040519061046882611e9d565b8082526020820191600183526040810182815260608201600181526080830184815260a084016001815260c085016001815260e0860190600182526101008701928884526101208801948986526101408901968a88526101608a01988b8a526101a06101808c019b8d8d52019b808d5260206040519e8f92835251151591015251151560408d015251151560608c015251151560808b015251151560a08a015251151560c089015251151560e08801525115156101008701525115156101208601525115156101408501525115156101608401525115156101808301525115156101a0820152f35b503461019257807ffffffffffffffffffffffffffffffffffffffffffffffffffffffffffffffffc36011261019257602090604051908152f35b503461019257807ffffffffffffffffffffffffffffffffffffffffffffffffffffffffffffffffc3601126101925760206040516127108152f35b5034610192576101607ffffffffffffffffffffffffffffffffffffffffffffffffffffffffffffffffc360112610192576105fe611b3a565b5060a07fffffffffffffffffffffffffffffffffffffffffffffffffffffffffffffffdc3601126101925760607fffffffffffffffffffffffffffffffffffffffffffffffffffffffffffffff3c36011261019257610124356101443567ffffffffffffffff811161098957610678903690600401611b7e565b505073ffffffffffffffffffffffffffffffffffffffff7f0000000000000000000000000000000000000000000000000000000000000000163303610961576106bf61208b565b60a06106ca36611efb565b2090638d5e12345c908060801d9283600f0b9262ffffff6fffffffffffffffffffffffffffffffff87861296875f1461095c5761070690612135565b1691169081810291818304149015171561092f57620f42409004801580156107de575b50508452600460205260ff600360408620015416610796575b60408460017f9b779b17422d0df92223018b32b4d1fa46e071723d6817e2486d003becc55f00558151907fb47b2fb10000000000000000000000000000000000000000000000000000000082526020820152f35b600f0b8091011280158216911516176107b1575f8080610742565b807f4e487b7100000000000000000000000000000000000000000000000000000000602492526011600452fd5b60648202908282046064141715610902576127106107fe91048092612051565b908685131561088f576044359073ffffffffffffffffffffffffffffffffffffffff8216820361088b578392837fb858f5722f66588fa2a2dcd3957a6c4a63a1f8ec30d9ddd1ad410ab51eff3d1e60208094867f62baeaef79315aec3f2237a4bc92640c050d1c17d41154a590e85ed2bae5b5319750505b604051908152a2604051908152a25f80610729565b8780fd5b6024359073ffffffffffffffffffffffffffffffffffffffff8216820361088b578392837fb858f5722f66588fa2a2dcd3957a6c4a63a1f8ec30d9ddd1ad410ab51eff3d1e60208094867f62baeaef79315aec3f2237a4bc92640c050d1c17d41154a590e85ed2bae5b531975050610876565b6024877f4e487b710000000000000000000000000000000000000000000000000000000081526011600452fd5b6024867f4e487b710000000000000000000000000000000000000000000000000000000081526011600452fd5b610706565b6004827fae18210a000000000000000000000000000000000000000000000000000000008152fd5b8280fd5b503461019257807ffffffffffffffffffffffffffffffffffffffffffffffffffffffffffffffffc3601126101925773ffffffffffffffffffffffffffffffffffffffff6020915460081c16604051908152f35b50346101925760207ffffffffffffffffffffffffffffffffffffffffffffffffffffffffffffffffc36011261019257604060a091600435815260046020522062ffffff815416906001810154906002810154600460ff6003840154169201549260405194855260208501526040840152151560608301526080820152f35b503461019257610a6f36611c77565b50505092905073ffffffffffffffffffffffffffffffffffffffff7f0000000000000000000000000000000000000000000000000000000000000000163303610bbc57839060a0610ada73ffffffffffffffffffffffffffffffffffffffff60015416943690611fc7565b2092610ae88560801d612135565b91813b15610bb857836064926fffffffffffffffffffffffffffffffff73ffffffffffffffffffffffffffffffffffffffff9560405198899788967f5d01b04b00000000000000000000000000000000000000000000000000000000885216600487015260248601521660448401525af18015610bad57610b94575b604080517f9f063efc00000000000000000000000000000000000000000000000000000000815260208101849052f35b610b9f838092611eba565b610ba9575f610b64565b5080fd5b6040513d85823e3d90fd5b8380fd5b6004847fae18210a000000000000000000000000000000000000000000000000000000008152fd5b503461019257807ffffffffffffffffffffffffffffffffffffffffffffffffffffffffffffffffc36011261019257602073ffffffffffffffffffffffffffffffffffffffff60015416604051908152f35b503461019257807ffffffffffffffffffffffffffffffffffffffffffffffffffffffffffffffffc3601126101925773ffffffffffffffffffffffffffffffffffffffff60025416330361019257610c8c612102565b60017fffffffffffffffffffffffffffffffffffffffffffffffffffffffffffffff008254161781557f62e78cea01bee320cd4e420270b5ea74000d11b0c9f74754ebdbfc544b05a2586020604051338152a180f35b503461019257807ffffffffffffffffffffffffffffffffffffffffffffffffffffffffffffffffc36011261019257602073ffffffffffffffffffffffffffffffffffffffff60035416604051908152f35b503461019257807ffffffffffffffffffffffffffffffffffffffffffffffffffffffffffffffffc3601126101925760206040516101f48152f35b5034610192576101007ffffffffffffffffffffffffffffffffffffffffffffffffffffffffffffffffc36011261019257610da8611b3a565b5060a07fffffffffffffffffffffffffffffffffffffffffffffffffffffffffffffffdc36011261019257610ddb611d48565b50610de4611d6b565b5073ffffffffffffffffffffffffffffffffffffffff7f0000000000000000000000000000000000000000000000000000000000000000163303610f435760409060a0610e3036611efb565b208251610e3c81611e81565b610bb881526004602082016113888152610ee386840142815260608501906001825260808601938885528789528560205262ffffff808b8b20985116167fffffffffffffffffffffffffffffffffffffffffffffffffffffffffff000000885416178755516001870155516002860155511515600385019060ff7fffffffffffffffffffffffffffffffffffffffffffffffffffffffffffffff0083541691151516179055565b519101558152600560205220610bb87fffffffffffffffffffffffffffffffffffffffffffffffffffffffffff00000082541617905560206040517f6fe7e6eb000000000000000000000000000000000000000000000000000000008152f35b807fae18210a0000000000000000000000000000000000000000000000000000000060049252fd5b50346110a057610f7a36611c77565b50505091905073ffffffffffffffffffffffffffffffffffffffff9392937f00000000000000000000000000000000000000000000000000000000000000001633036110a45760a0610fe673ffffffffffffffffffffffffffffffffffffffff60015416923690611fc7565b2093813b156110a057604473ffffffffffffffffffffffffffffffffffffffff915f809460405198899586947f6b82df7000000000000000000000000000000000000000000000000000000000865216600485015260248401525af192831561109557604093611080575b50825191507f6c2bbe7e0000000000000000000000000000000000000000000000000000000082526020820152f35b61108d9192505f90611eba565b5f905f611051565b6040513d5f823e3d90fd5b5f80fd5b7fae18210a000000000000000000000000000000000000000000000000000000005f5260045ffd5b346110a0575f7ffffffffffffffffffffffffffffffffffffffffffffffffffffffffffffffffc3601126110a057602060ff5f54166040519015158152f35b346110a0576101407ffffffffffffffffffffffffffffffffffffffffffffffffffffffffffffffffc3601126110a057611143611b3a565b5060a07fffffffffffffffffffffffffffffffffffffffffffffffffffffffffffffffdc3601126110a05760607fffffffffffffffffffffffffffffffffffffffffffffffffffffffffffffff3c3601126110a0576101243567ffffffffffffffff81116110a0576111b9903690600401611b7e565b505073ffffffffffffffffffffffffffffffffffffffff7f00000000000000000000000000000000000000000000000000000000000000001633036110a457611200612102565b60a061120b36611efb565b205f52600560205262ffffff60405f205416801561126c575b80606091638d5e12345d62ffffff62400000604051927f575e24b40000000000000000000000000000000000000000000000000000000084525f602085015217166040820152f35b50610bb8611224565b346110a05760407ffffffffffffffffffffffffffffffffffffffffffffffffffffffffffffffffc3601126110a05760043573ffffffffffffffffffffffffffffffffffffffff811681036110a0576024359073ffffffffffffffffffffffffffffffffffffffff82168092036110a05761130973ffffffffffffffffffffffffffffffffffffffff600254163314611e1c565b7fffffffffffffffffffffff0000000000000000000000000000000000000000ff74ffffffffffffffffffffffffffffffffffffffff005f549260081b169116175f557fffffffffffffffffffffffff000000000000000000000000000000000000000060015416176001555f80f35b346110a0575f7ffffffffffffffffffffffffffffffffffffffffffffffffffffffffffffffffc3601126110a05773ffffffffffffffffffffffffffffffffffffffff6002541633036110a0575f5460ff811615611421577fffffffffffffffffffffffffffffffffffffffffffffffffffffffffffffff00165f557f5db9ee0a495bf2e6ff9c91a7834c1ba4fdd244a5e8aa4e537bd38aeae4b073aa6020604051338152a1005b7f8dfc202b000000000000000000000000000000000000000000000000000000005f5260045ffd5b346110a05760207ffffffffffffffffffffffffffffffffffffffffffffffffffffffffffffffffc3601126110a0576004355f526005602052602062ffffff60405f205416604051908152f35b346110a0576114a436611bac565b505050505073ffffffffffffffffffffffffffffffffffffffff7f00000000000000000000000000000000000000000000000000000000000000001633036110a4577f0a85dc29000000000000000000000000000000000000000000000000000000005f5260045ffd5b346110a0577ffffffffffffffffffffffffffffffffffffffffffffffffffffffffffffffffc360161010081126110a05760a0136110a05760a43562ffffff8116908181036110a05760c435801515908181036110a05760e43567ffffffffffffffff81116110a057611585903690600401611b7e565b949061158f61208b565b611597612102565b6040516115a381611e81565b60043573ffffffffffffffffffffffffffffffffffffffff811681036110a057815260243573ffffffffffffffffffffffffffffffffffffffff811681036110a057602082015260443562ffffff811681036110a05760408201526064358060020b81036110a05760608201526084359073ffffffffffffffffffffffffffffffffffffffff821682036110a05760a091608082015220946040517fffffff0000000000000000000000000000000000000000000000000000000000602082019288845260e81b1660408201528560f81b60438201524660448201526044815261168e606482611eba565b5190207f19457468657265756d205369676e6564204d6573736167653a0a3332000000005f52601c52603c5f2067ffffffffffffffff8711611a16576040519061170060207fffffffffffffffffffffffffffffffffffffffffffffffffffffffffffffffe0601f8b01160183611eba565b87825236888401116110a0575f60208961172e9a611725968387013784010152612164565b9096919661219e565b73ffffffffffffffffffffffffffffffffffffffff7f000000000000000000000000000000000000000000000000000000000000000016946040517fa1dcf2820000000000000000000000000000000000000000000000000000000081526020816004818a5afa908115611095575f916119d0575b5073ffffffffffffffffffffffffffffffffffffffff91604460209260405194859384927f91d14854000000000000000000000000000000000000000000000000000000008452600484015216998a60248301525afa908115611095575f91611995575b501561196d576101f481108015611962575b61193a577f12aeb94efd71d3dd160ba7aec1a9660ae3113c1bb8f75e3a3073b7fe48f278ee9260a092855f5260046020526118be60405f209160036002840193611864855442612051565b50867fffffffffffffffffffffffffffffffffffffffffffffffffffffffffff000000825416178155019060ff7fffffffffffffffffffffffffffffffffffffffffffffffffffffffffffffff0083541691151516179055565b429055845f52600560205260405f20827fffffffffffffffffffffffffffffffffffffffffffffffffffffffffff0000008254161790556040519182525f60208301526040820152608060608201525f6080820152a360017f9b779b17422d0df92223018b32b4d1fa46e071723d6817e2486d003becc55f0055005b7fc15a4e6d000000000000000000000000000000000000000000000000000000005f5260045ffd5b506127108111611819565b7f63dcebb1000000000000000000000000000000000000000000000000000000005f5260045ffd5b90506020813d6020116119c8575b816119b060209383611eba565b810103126110a0575180151581036110a05786611807565b3d91506119a3565b90506020813d602011611a0e575b816119eb60209383611eba565b810103126110a0575173ffffffffffffffffffffffffffffffffffffffff6117a3565b3d91506119de565b7f4e487b71000000000000000000000000000000000000000000000000000000005f52604160045260245ffd5b346110a0575f7ffffffffffffffffffffffffffffffffffffffffffffffffffffffffffffffffc3601126110a057602060405173ffffffffffffffffffffffffffffffffffffffff7f0000000000000000000000000000000000000000000000000000000000000000168152f35b346110a05760207ffffffffffffffffffffffffffffffffffffffffffffffffffffffffffffffffc3601126110a05773ffffffffffffffffffffffffffffffffffffffff611afd611b3a565b611b0c82600254163314611e1c565b167fffffffffffffffffffffffff000000000000000000000000000000000000000060035416176003555f80f35b6004359073ffffffffffffffffffffffffffffffffffffffff821682036110a057565b359073ffffffffffffffffffffffffffffffffffffffff821682036110a057565b9181601f840112156110a05782359167ffffffffffffffff83116110a057602083818601950101116110a057565b906101607ffffffffffffffffffffffffffffffffffffffffffffffffffffffffffffffffc8301126110a05760043573ffffffffffffffffffffffffffffffffffffffff811681036110a0579160a07fffffffffffffffffffffffffffffffffffffffffffffffffffffffffffffffdc8201126110a05760249160807fffffffffffffffffffffffffffffffffffffffffffffffffffffffffffffff3c8301126110a05760c491610144359067ffffffffffffffff82116110a057611c7391600401611b7e565b9091565b906101a07ffffffffffffffffffffffffffffffffffffffffffffffffffffffffffffffffc8301126110a05760043573ffffffffffffffffffffffffffffffffffffffff811681036110a0579160a07fffffffffffffffffffffffffffffffffffffffffffffffffffffffffffffffdc8201126110a05760249160807fffffffffffffffffffffffffffffffffffffffffffffffffffffffffffffff3c8301126110a05760c49161014435916101643591610184359067ffffffffffffffff82116110a057611c7391600401611b7e565b60c4359073ffffffffffffffffffffffffffffffffffffffff821682036110a057565b60e435908160020b82036110a057565b6101207ffffffffffffffffffffffffffffffffffffffffffffffffffffffffffffffffc8201126110a05760043573ffffffffffffffffffffffffffffffffffffffff811681036110a0579160a07fffffffffffffffffffffffffffffffffffffffffffffffffffffffffffffffdc8301126110a05760249160c4359160e43591610104359067ffffffffffffffff82116110a057611c7391600401611b7e565b15611e2357565b60646040517f08c379a000000000000000000000000000000000000000000000000000000000815260206004820152600a60248201527f4f6e6c792061646d696e000000000000000000000000000000000000000000006044820152fd5b60a0810190811067ffffffffffffffff821117611a1657604052565b6101c0810190811067ffffffffffffffff821117611a1657604052565b90601f7fffffffffffffffffffffffffffffffffffffffffffffffffffffffffffffffe0910116810190811067ffffffffffffffff821117611a1657604052565b7fffffffffffffffffffffffffffffffffffffffffffffffffffffffffffffffdc60a09101126110a05760405190611f3282611e81565b8160243573ffffffffffffffffffffffffffffffffffffffff811681036110a057815260443573ffffffffffffffffffffffffffffffffffffffff811681036110a057602082015260643562ffffff811681036110a05760408201526084358060020b81036110a057606082015260a4359073ffffffffffffffffffffffffffffffffffffffff821682036110a05760800152565b91908260a09103126110a057604051611fdf81611e81565b8092611fea81611b5d565b8252611ff860208201611b5d565b6020830152604081013562ffffff811681036110a05760408301526060810135908160020b82036110a057608091606084015201359073ffffffffffffffffffffffffffffffffffffffff821682036110a05760800152565b9190820391821161205e57565b7f4e487b71000000000000000000000000000000000000000000000000000000005f52601160045260245ffd5b60027f9b779b17422d0df92223018b32b4d1fa46e071723d6817e2486d003becc55f0054146120da5760027f9b779b17422d0df92223018b32b4d1fa46e071723d6817e2486d003becc55f0055565b7f3ee5aeb5000000000000000000000000000000000000000000000000000000005f5260045ffd5b60ff5f541661210d57565b7fd93c0665000000000000000000000000000000000000000000000000000000005f5260045ffd5b600f0b7fffffffffffffffffffffffffffffffff80000000000000000000000000000000811461205e575f0390565b81519190604183036121945761218d9250602082015190606060408401519301515f1a90612276565b9192909190565b50505f9160029190565b600481101561224957806121b0575050565b600181036121e0577ff645eedf000000000000000000000000000000000000000000000000000000005f5260045ffd5b6002810361221457507ffce698f7000000000000000000000000000000000000000000000000000000005f5260045260245ffd5b60031461221e5750565b7fd78bce0c000000000000000000000000000000000000000000000000000000005f5260045260245ffd5b7f4e487b71000000000000000000000000000000000000000000000000000000005f52602160045260245ffd5b91907f7fffffffffffffffffffffffffffffff5d576e7357a4501ddfe92f46681b20a084116122fa579160209360809260ff5f9560405194855216868401526040830152606082015282805260015afa15611095575f5173ffffffffffffffffffffffffffffffffffffffff8116156122f057905f905f90565b505f906001905f90565b5050505f916003919056fea2646970667358221220a14fe445ad5eb27180f9a938e60551beb6418e8728c5260d8ca8252df5422f3c64736f6c634300081a0033","linkReferences":{}},"methodIdentifiers":{"MAX_FEE()":"bc063e1a","MIN_FEE()":"76c7a3c7","MIN_UPDATE_INTERVAL()":"bd3be27c","SOFTWARE_TOLL_BPS()":"f8e6fcb5","admin()":"f851a440","afterAddLiquidity(address,(address,address,uint24,int24,address),(int24,int24,int256,bytes32),int256,int256,bytes)":"9f063efc","afterDonate(address,(address,address,uint24,int24,address),uint256,uint256,bytes)":"e1b4af69","afterInitialize(address,(address,address,uint24,int24,address),uint160,int24)":"6fe7e6eb","afterRemoveLiquidity(address,(address,address,uint24,int24,address),(int24,int24,int256,bytes32),int256,int256,bytes)":"6c2bbe7e","afterSwap(address,(address,address,uint24,int24,address),(bool,int256,uint160),int256,bytes)":"b47b2fb1","agentRegistry()":"0d1cfcae","beforeAddLiquidity(address,(address,address,uint24,int24,address),(int24,int24,int256,bytes32),bytes)":"259982e5","beforeDonate(address,(address,address,uint24,int24,address),uint256,uint256,bytes)":"b6a8b0fa","beforeInitialize(address,(address,address,uint24,int24,address),uint160)":"dc98354e","beforeRemoveLiquidity(address,(address,address,uint24,int24,address),(int24,int24,int256,bytes32),bytes)":"21d0ee70","beforeSwap(address,(address,address,uint24,int24,address),(bool,int256,uint160),bytes)":"575e24b4","currentDynamicFee(bytes32)":"3eaa80f2","getHookPermissions()":"c4e833ce","ilInsurance()":"85d4198b","pause()":"8456cb59","paused()":"5c975abb","poolIntelligence(bytes32)":"a61a88b7","poolManager()":"dc4c90d3","protocolTreasury()":"803db96d","setProtocolTreasury(address)":"0c5a61f8","setVaults(address,address)":"4c451a6a","unpause()":"3f4ba83a","updateNeuralState((address,address,uint24,int24,address),uint24,bool,bytes)":"1901a711","yieldVault()":"a7f8a5e2"},"id":67}