{"abi":[{"type":"constructor","inputs":[{"name":"_usdc","type":"address","internalType":"contract IERC20"},{"name":"_hook","type":"address","internalType":"address"},{"name":"_admin","type":"address","internalType":"address"}],"stateMutability":"nonpayable"},{"type":"function","name":"ADMIN_ROLE","inputs":[],"outputs":[{"name":"","type":"bytes32","internalType":"bytes32"}],"stateMutability":"view"},{"type":"function","name":"DEFAULT_ADMIN_ROLE","inputs":[],"outputs":[{"name":"","type":"bytes32","internalType":"bytes32"}],"stateMutability":"view"},{"type":"function","name":"GENESIS_TIME","inputs":[],"outputs":[{"name":"","type":"uint256","internalType":"uint256"}],"stateMutability":"view"},{"type":"function","name":"HOOK","inputs":[],"outputs":[{"name":"","type":"address","internalType":"address"}],"stateMutability":"view"},{"type":"function","name":"USDC","inputs":[],"outputs":[{"name":"","type":"address","internalType":"contract IERC20"}],"stateMutability":"view"},{"type":"function","name":"calculateProratedPayout","inputs":[{"name":"deltaExposure","type":"uint256","internalType":"uint256"}],"outputs":[{"name":"","type":"uint256","internalType":"uint256"}],"stateMutability":"view"},{"type":"function","name":"claimInsurance","inputs":[{"name":"lpTokenId","type":"uint256","internalType":"uint256"},{"name":"deltaExposure","type":"uint256","internalType":"uint256"}],"outputs":[],"stateMutability":"nonpayable"},{"type":"function","name":"enrollLp","inputs":[{"name":"lp","type":"address","internalType":"address"},{"name":"poolId","type":"bytes32","internalType":"PoolId"},{"name":"entryAmount0","type":"uint128","internalType":"uint128"}],"outputs":[],"stateMutability":"nonpayable"},{"type":"function","name":"epochDuration","inputs":[],"outputs":[{"name":"","type":"uint256","internalType":"uint256"}],"stateMutability":"view"},{"type":"function","name":"epochs","inputs":[{"name":"","type":"uint256","internalType":"uint256"}],"outputs":[{"name":"totalExposure","type":"uint256","internalType":"uint256"},{"name":"balanceAtEnd","type":"uint256","internalType":"uint256"},{"name":"finalized","type":"bool","internalType":"bool"}],"stateMutability":"view"},{"type":"function","name":"fundPool","inputs":[{"name":"amount","type":"uint256","internalType":"uint256"}],"outputs":[],"stateMutability":"nonpayable"},{"type":"function","name":"getCurrentEpoch","inputs":[],"outputs":[{"name":"","type":"uint256","internalType":"uint256"}],"stateMutability":"view"},{"type":"function","name":"getRoleAdmin","inputs":[{"name":"role","type":"bytes32","internalType":"bytes32"}],"outputs":[{"name":"","type":"bytes32","internalType":"bytes32"}],"stateMutability":"view"},{"type":"function","name":"grantRole","inputs":[{"name":"role","type":"bytes32","internalType":"bytes32"},{"name":"account","type":"address","internalType":"address"}],"outputs":[],"stateMutability":"nonpayable"},{"type":"function","name":"hasClaimed","inputs":[{"name":"","type":"address","internalType":"address"},{"name":"","type":"bytes32","internalType":"PoolId"},{"name":"","type":"uint256","internalType":"uint256"}],"outputs":[{"name":"","type":"bool","internalType":"bool"}],"stateMutability":"view"},{"type":"function","name":"hasRole","inputs":[{"name":"role","type":"bytes32","internalType":"bytes32"},{"name":"account","type":"address","internalType":"address"}],"outputs":[{"name":"","type":"bool","internalType":"bool"}],"stateMutability":"view"},{"type":"function","name":"ilThresholdBps","inputs":[],"outputs":[{"name":"","type":"uint256","internalType":"uint256"}],"stateMutability":"view"},{"type":"function","name":"maxPayoutPerLp","inputs":[],"outputs":[{"name":"","type":"uint256","internalType":"uint256"}],"stateMutability":"view"},{"type":"function","name":"maxRiskFactor","inputs":[],"outputs":[{"name":"","type":"uint256","internalType":"uint256"}],"stateMutability":"view"},{"type":"function","name":"payPremium","inputs":[{"name":"poolId","type":"bytes32","internalType":"PoolId"}],"outputs":[],"stateMutability":"nonpayable"},{"type":"function","name":"poolBalance","inputs":[],"outputs":[{"name":"","type":"uint256","internalType":"uint256"}],"stateMutability":"view"},{"type":"function","name":"positions","inputs":[{"name":"","type":"address","internalType":"address"},{"name":"","type":"bytes32","internalType":"PoolId"}],"outputs":[{"name":"entryAmount0","type":"uint256","internalType":"uint256"},{"name":"enrolledAt","type":"uint256","internalType":"uint256"},{"name":"insured","type":"bool","internalType":"bool"}],"stateMutability":"view"},{"type":"function","name":"premiumAmount","inputs":[],"outputs":[{"name":"","type":"uint256","internalType":"uint256"}],"stateMutability":"view"},{"type":"function","name":"processExit","inputs":[{"name":"lp","type":"address","internalType":"address"},{"name":"poolId","type":"bytes32","internalType":"PoolId"}],"outputs":[],"stateMutability":"nonpayable"},{"type":"function","name":"registeredExposurePerEpoch","inputs":[{"name":"","type":"address","internalType":"address"},{"name":"","type":"bytes32","internalType":"PoolId"},{"name":"","type":"uint256","internalType":"uint256"}],"outputs":[{"name":"","type":"uint256","internalType":"uint256"}],"stateMutability":"view"},{"type":"function","name":"renounceRole","inputs":[{"name":"role","type":"bytes32","internalType":"bytes32"},{"name":"callerConfirmation","type":"address","internalType":"address"}],"outputs":[],"stateMutability":"nonpayable"},{"type":"function","name":"revokeRole","inputs":[{"name":"role","type":"bytes32","internalType":"bytes32"},{"name":"account","type":"address","internalType":"address"}],"outputs":[],"stateMutability":"nonpayable"},{"type":"function","name":"setEpochDuration","inputs":[{"name":"_newDuration","type":"uint256","internalType":"uint256"}],"outputs":[],"stateMutability":"nonpayable"},{"type":"function","name":"setMaxRiskFactor","inputs":[{"name":"_newRiskFactor","type":"uint256","internalType":"uint256"}],"outputs":[],"stateMutability":"nonpayable"},{"type":"function","name":"supportsInterface","inputs":[{"name":"interfaceId","type":"bytes4","internalType":"bytes4"}],"outputs":[{"name":"","type":"bool","internalType":"bool"}],"stateMutability":"view"},{"type":"event","name":"ILPayout","inputs":[{"name":"lp","type":"address","indexed":true,"internalType":"address"},{"name":"poolId","type":"bytes32","indexed":true,"internalType":"PoolId"},{"name":"payout","type":"uint256","indexed":false,"internalType":"uint256"}],"anonymous":false},{"type":"event","name":"LPEnrolled","inputs":[{"name":"lp","type":"address","indexed":true,"internalType":"address"},{"name":"poolId","type":"bytes32","indexed":true,"internalType":"PoolId"},{"name":"premium","type":"uint256","indexed":false,"internalType":"uint256"}],"anonymous":false},{"type":"event","name":"LPRegistered","inputs":[{"name":"lp","type":"address","indexed":true,"internalType":"address"},{"name":"poolId","type":"bytes32","indexed":true,"internalType":"PoolId"},{"name":"entryAmount0","type":"uint128","indexed":false,"internalType":"uint128"}],"anonymous":false},{"type":"event","name":"PoolFunded","inputs":[{"name":"funder","type":"address","indexed":true,"internalType":"address"},{"name":"amount","type":"uint256","indexed":false,"internalType":"uint256"}],"anonymous":false},{"type":"event","name":"RoleAdminChanged","inputs":[{"name":"role","type":"bytes32","indexed":true,"internalType":"bytes32"},{"name":"previousAdminRole","type":"bytes32","indexed":true,"internalType":"bytes32"},{"name":"newAdminRole","type":"bytes32","indexed":true,"internalType":"bytes32"}],"anonymous":false},{"type":"event","name":"RoleGranted","inputs":[{"name":"role","type":"bytes32","indexed":true,"internalType":"bytes32"},{"name":"account","type":"address","indexed":true,"internalType":"address"},{"name":"sender","type":"address","indexed":true,"internalType":"address"}],"anonymous":false},{"type":"event","name":"RoleRevoked","inputs":[{"name":"role","type":"bytes32","indexed":true,"internalType":"bytes32"},{"name":"account","type":"address","indexed":true,"internalType":"address"},{"name":"sender","type":"address","indexed":true,"internalType":"address"}],"anonymous":false},{"type":"error","name":"AccessControlBadConfirmation","inputs":[]},{"type":"error","name":"AccessControlUnauthorizedAccount","inputs":[{"name":"account","type":"address","internalType":"address"},{"name":"neededRole","type":"bytes32","internalType":"bytes32"}]},{"type":"error","name":"InsufficientPoolBalance","inputs":[]},{"type":"error","name":"NotInsured","inputs":[]},{"type":"error","name":"OnlyHook","inputs":[]},{"type":"error","name":"ReentrancyGuardReentrantCall","inputs":[]},{"type":"error","name":"SafeERC20FailedOperation","inputs":[{"name":"token","type":"address","internalType":"address"}]}],"bytecode":{"object":"0x60e03461013557601f611d6a38819003918201601f19168301916001600160401b03831184841017610139578084926060946040528339810103126101355780516001600160a01b0381168103610135578161006c604061006560206100cb960161014d565b920161014d565b9160017f9b779b17422d0df92223018b32b4d1fa46e071723d6817e2486d003becc55f00556105dc60015562093a806002556298968060035560c8600455631dcd650060055560805260a0524260c0526100c581610161565b506101d7565b50604051611a9f908161026b823960805181818161035601528181610816015281816108df0152610cc1015260a0518181816106d701528181610b6c015261149d015260c05181818161019b0152818161020701528181610afd015281816115b301526116580152f35b5f80fd5b634e487b7160e01b5f52604160045260245ffd5b51906001600160a01b038216820361013557565b6001600160a01b0381165f9081525f80516020611d4a833981519152602052604090205460ff166101d2576001600160a01b03165f8181525f80516020611d4a83398151915260205260408120805460ff191660011790553391905f80516020611d0a8339815191528180a4600190565b505f90565b6001600160a01b0381165f9081525f80516020611d2a833981519152602052604090205460ff166101d2576001600160a01b03165f8181525f80516020611d2a83398151915260205260408120805460ff191660011790553391907fa49807205ce4d355092ef5a8a18f56e8913cf4a201fbe287825b095693c21775905f80516020611d0a8339815191529080a460019056fe6080806040526004361015610012575f80fd5b5f3560e01c90816301ffc9a71461128b57508063146003ea14611250578063208d86ec14611215578063248a9ca3146111cd5780632f2ff15d1461117257806330024dfe146110cb57806334176a6d1461103457806336568abe14610fac57806344530f3a14610f715780634ff0876a14610f3657806366d2d8ea14610ee05780636897955714610ea55780636b82df7014610e3457806375b238fc14610ddc57806385e0fbc014610d8b57806388df589214610ce557806389a3027114610c7757806391d1485414610c0357806396365d4414610bc8578063a217fddf14610b90578063a54eb24214610b22578063b97dd9e214610ac5578063c6b61e4c14610a51578063cdee52dc14610a0d578063d547741f146109ab578063d8e2d2ba1461089b578063da3a5f72146107d4578063deeaaa2114610668578063f0f8ec6e146101c25763f288246114610166575f80fd5b346101be575f7ffffffffffffffffffffffffffffffffffffffffffffffffffffffffffffffffc3601126101be5760206040517f00000000000000000000000000000000000000000000000000000000000000008152f35b5f80fd5b346101be5760407ffffffffffffffffffffffffffffffffffffffffffffffffffffffffffffffffc3601126101be576004356024356101ff61195e565b61023561022c7f000000000000000000000000000000000000000000000000000000000000000042611630565b60025490611442565b90811561060a577fffffffffffffffffffffffffffffffffffffffffffffffffffffffffffffffff82019182116105dd57335f52600960205260405f20835f5260205260405f20825f5260205260ff60405f20541661057f57335f52600860205260405f20835f5260205260405f20825f526020528060405f2054036105215780156104c357815f52600660205260405f2060028101805460ff81161561048d575b50506127106102ed60018301546001549061142f565b91549104808211610475575050905b335f52600960205260405f20835f5260205260405f20905f5260205260405f2060017fffffffffffffffffffffffffffffffffffffffffffffffffffffffffffffff0082541617905561035181600a54611630565b600a557f000000000000000000000000000000000000000000000000000000000000000090604051917fa9059cbb000000000000000000000000000000000000000000000000000000005f52336004528160245260205f60448180855af160015f5114811615610456575b8360405215610414575081527f1f7189d01fa4c9757c80ba0bfdc23cffa8e6de39f7330bd6127dd4253e961e5760203392a360017f9b779b17422d0df92223018b32b4d1fa46e071723d6817e2486d003becc55f0055005b73ffffffffffffffffffffffffffffffffffffffff907f5274afe7000000000000000000000000000000000000000000000000000000005f521660045260245ffd5b600181151661046c57813b15153d1516166103bc565b833d5f823e3d90fd5b610482906104879361142f565b611442565b906102fc565b7fffffffffffffffffffffffffffffffffffffffffffffffffffffffffffffff00600191600a54838601551617905584806102d7565b60646040517f08c379a000000000000000000000000000000000000000000000000000000000815260206004820152601260248201527f4e6f206c6f7373207265676973746572656400000000000000000000000000006044820152fd5b60646040517f08c379a000000000000000000000000000000000000000000000000000000000815260206004820152601660248201527f496e76616c6964206578706f737572652076616c7565000000000000000000006044820152fd5b60646040517f08c379a000000000000000000000000000000000000000000000000000000000815260206004820152601e60248201527f416c726561647920636c61696d656420666f7220746869732065706f636800006044820152fd5b7f4e487b71000000000000000000000000000000000000000000000000000000005f52601160045260245ffd5b60646040517f08c379a000000000000000000000000000000000000000000000000000000000815260206004820152601360248201527f4e6f2065706f63687320636f6d706c65746564000000000000000000000000006044820152fd5b346101be5760607ffffffffffffffffffffffffffffffffffffffffffffffffffffffffffffffffc3601126101be5761069f61136a565b602435906044356fffffffffffffffffffffffffffffffff81168091036101be5773ffffffffffffffffffffffffffffffffffffffff7f00000000000000000000000000000000000000000000000000000000000000001633036107ac5760207f726acc4a9a020ab59400246d667e3ded2576c9234df38bffc8b020be102cf739916107296113e2565b9381855260028386019542875273ffffffffffffffffffffffffffffffffffffffff60408201935f85521696875f526007865260405f20895f52865260405f2091518255516001820155019051151560ff7fffffffffffffffffffffffffffffffffffffffffffffffffffffffffffffff008354169116179055604051908152a3005b7f5a91834f000000000000000000000000000000000000000000000000000000005f5260045ffd5b346101be5760207ffffffffffffffffffffffffffffffffffffffffffffffffffffffffffffffffc3601126101be5760043561080e61195e565b61083a8130337f00000000000000000000000000000000000000000000000000000000000000006119d5565b61084681600a54611479565b600a556040519081527f32173d8e51cec3a6fe484b7a1c3febe760cdf96e03d4cca36a43563a4333e83860203392a260017f9b779b17422d0df92223018b32b4d1fa46e071723d6817e2486d003becc55f0055005b346101be5760207ffffffffffffffffffffffffffffffffffffffffffffffffffffffffffffffffc3601126101be576004356108d561195e565b61090360035430337f00000000000000000000000000000000000000000000000000000000000000006119d5565b610911600354600a54611479565b600a55335f52600760205260405f20815f52602052600260405f200160017fffffffffffffffffffffffffffffffffffffffffffffffffffffffffffffff008254161790556003546040519081527fb0ac725d6f9c0c5f6d4b5418000ba60645033e7e4844f40b387079a0cc488ea460203392a360017f9b779b17422d0df92223018b32b4d1fa46e071723d6817e2486d003becc55f0055005b346101be5760407ffffffffffffffffffffffffffffffffffffffffffffffffffffffffffffffffc3601126101be57610a0b6004356109e8611347565b90610a06610a01825f525f602052600160405f20015490565b61175e565b611896565b005b346101be5760207ffffffffffffffffffffffffffffffffffffffffffffffffffffffffffffffffc3601126101be576020610a4960043561163d565b604051908152f35b346101be5760207ffffffffffffffffffffffffffffffffffffffffffffffffffffffffffffffffc3601126101be576004355f52600660205260405f208054610ac160ff600260018501549401541660405193849384919260409194936060840195845260208401521515910152565b0390f35b346101be575f7ffffffffffffffffffffffffffffffffffffffffffffffffffffffffffffffffc3601126101be576020610a4961022c7f000000000000000000000000000000000000000000000000000000000000000042611630565b346101be575f7ffffffffffffffffffffffffffffffffffffffffffffffffffffffffffffffffc3601126101be57602060405173ffffffffffffffffffffffffffffffffffffffff7f0000000000000000000000000000000000000000000000000000000000000000168152f35b346101be575f7ffffffffffffffffffffffffffffffffffffffffffffffffffffffffffffffffc3601126101be5760206040515f8152f35b346101be575f7ffffffffffffffffffffffffffffffffffffffffffffffffffffffffffffffffc3601126101be576020600a54604051908152f35b346101be5760407ffffffffffffffffffffffffffffffffffffffffffffffffffffffffffffffffc3601126101be57610c3a611347565b6004355f525f60205273ffffffffffffffffffffffffffffffffffffffff60405f2091165f52602052602060ff60405f2054166040519015158152f35b346101be575f7ffffffffffffffffffffffffffffffffffffffffffffffffffffffffffffffffc3601126101be57602060405173ffffffffffffffffffffffffffffffffffffffff7f0000000000000000000000000000000000000000000000000000000000000000168152f35b346101be5760207ffffffffffffffffffffffffffffffffffffffffffffffffffffffffffffffffc3601126101be57600435610d1f6116d6565b6113888111610d2d57600155005b60646040517f08c379a000000000000000000000000000000000000000000000000000000000815260206004820152601460248201527f5269736b5f466163746f725f546f6f5f486967680000000000000000000000006044820152fd5b346101be5773ffffffffffffffffffffffffffffffffffffffff610dae3661138d565b929091165f52600860205260405f20905f5260205260405f20905f52602052602060405f2054604051908152f35b346101be575f7ffffffffffffffffffffffffffffffffffffffffffffffffffffffffffffffffc3601126101be5760206040517fa49807205ce4d355092ef5a8a18f56e8913cf4a201fbe287825b095693c217758152f35b346101be5760407ffffffffffffffffffffffffffffffffffffffffffffffffffffffffffffffffc3601126101be57610e7f610e6e61136a565b610e7661195e565b60243590611486565b60017f9b779b17422d0df92223018b32b4d1fa46e071723d6817e2486d003becc55f0055005b346101be575f7ffffffffffffffffffffffffffffffffffffffffffffffffffffffffffffffffc3601126101be576020600154604051908152f35b346101be5773ffffffffffffffffffffffffffffffffffffffff610f033661138d565b929091165f52600960205260405f20905f5260205260405f20905f52602052602060ff60405f2054166040519015158152f35b346101be575f7ffffffffffffffffffffffffffffffffffffffffffffffffffffffffffffffffc3601126101be576020600254604051908152f35b346101be575f7ffffffffffffffffffffffffffffffffffffffffffffffffffffffffffffffffc3601126101be576020600354604051908152f35b346101be5760407ffffffffffffffffffffffffffffffffffffffffffffffffffffffffffffffffc3601126101be57610fe3611347565b3373ffffffffffffffffffffffffffffffffffffffff82160361100c57610a0b90600435611896565b7f6697b232000000000000000000000000000000000000000000000000000000005f5260045ffd5b346101be5760407ffffffffffffffffffffffffffffffffffffffffffffffffffffffffffffffffc3601126101be5773ffffffffffffffffffffffffffffffffffffffff61108061136a565b165f52600760205260405f206024355f5260205260405f208054610ac160ff600260018501549401541660405193849384919260409194936060840195845260208401521515910152565b346101be5760207ffffffffffffffffffffffffffffffffffffffffffffffffffffffffffffffffc3601126101be576004356111056116d6565b62015180811061111457600255005b60646040517f08c379a000000000000000000000000000000000000000000000000000000000815260206004820152600f60248201527f45706f63685f546f6f5f53686f727400000000000000000000000000000000006044820152fd5b346101be5760407ffffffffffffffffffffffffffffffffffffffffffffffffffffffffffffffffc3601126101be57610a0b6004356111af611347565b906111c8610a01825f525f602052600160405f20015490565b6117c4565b346101be5760207ffffffffffffffffffffffffffffffffffffffffffffffffffffffffffffffffc3601126101be576020610a496004355f525f602052600160405f20015490565b346101be575f7ffffffffffffffffffffffffffffffffffffffffffffffffffffffffffffffffc3601126101be576020600554604051908152f35b346101be575f7ffffffffffffffffffffffffffffffffffffffffffffffffffffffffffffffffc3601126101be576020600454604051908152f35b346101be5760207ffffffffffffffffffffffffffffffffffffffffffffffffffffffffffffffffc3601126101be57600435907fffffffff0000000000000000000000000000000000000000000000000000000082168092036101be57817f7965db0b000000000000000000000000000000000000000000000000000000006020931490811561131d575b5015158152f35b7f01ffc9a70000000000000000000000000000000000000000000000000000000091501483611316565b6024359073ffffffffffffffffffffffffffffffffffffffff821682036101be57565b6004359073ffffffffffffffffffffffffffffffffffffffff821682036101be57565b7ffffffffffffffffffffffffffffffffffffffffffffffffffffffffffffffffc60609101126101be5760043573ffffffffffffffffffffffffffffffffffffffff811681036101be57906024359060443590565b604051906060820182811067ffffffffffffffff82111761140257604052565b7f4e487b71000000000000000000000000000000000000000000000000000000005f52604160045260245ffd5b818102929181159184041417156105dd57565b811561144c570490565b7f4e487b71000000000000000000000000000000000000000000000000000000005f52601260045260245ffd5b919082018092116105dd57565b73ffffffffffffffffffffffffffffffffffffffff7f00000000000000000000000000000000000000000000000000000000000000001633036107ac5773ffffffffffffffffffffffffffffffffffffffff16805f52600760205260405f20825f5260205260405f2060ff600282015416158061162a576115266115086113e2565b91600184549485855201549081602085015215604084015242611630565b90516005810290808204600514811517156105dd5760190290808204600514901517156105dd5765024b675dc0006115646127109361156f9361142f565b04926004549061142f565b04811161159d575b505f52600760205260405f20905f526020525f6002604082208281558260018201550155565b600554908181111561162357505b6115d861022c7f000000000000000000000000000000000000000000000000000000000000000042611630565b825f52600860205260405f20845f5260205260405f20815f5260205260405f20611603838254611479565b90555f52600660205261161b60405f20918254611479565b90555f611577565b90506115ab565b50505050565b919082039182116105dd57565b61271061164f600a546001549061142f565b0461167d61022c7f000000000000000000000000000000000000000000000000000000000000000042611630565b5f52600660205260405f2054908082118015906116ce575b156116b157505060055490818111156116ac575090565b905090565b610482906116be9361142f565b60055490818111156116ac575090565b508115611695565b335f9081527f7d7ffb7a348e1c6a02869081a26547b49160dd3df72d1d75a570eb9b698292ec602052604090205460ff161561170e57565b7fe2517d3f000000000000000000000000000000000000000000000000000000005f52336004527fa49807205ce4d355092ef5a8a18f56e8913cf4a201fbe287825b095693c2177560245260445ffd5b805f525f60205260405f2073ffffffffffffffffffffffffffffffffffffffff33165f5260205260ff60405f205416156117955750565b7fe2517d3f000000000000000000000000000000000000000000000000000000005f523360045260245260445ffd5b805f525f60205260405f2073ffffffffffffffffffffffffffffffffffffffff83165f5260205260ff60405f205416155f1461189057805f525f60205260405f2073ffffffffffffffffffffffffffffffffffffffff83165f5260205260405f2060017fffffffffffffffffffffffffffffffffffffffffffffffffffffffffffffff0082541617905573ffffffffffffffffffffffffffffffffffffffff339216907f2f8788117e7eff1d82e926ec794901d17c78024a50270940304540a733656f0d5f80a4600190565b50505f90565b805f525f60205260405f2073ffffffffffffffffffffffffffffffffffffffff83165f5260205260ff60405f2054165f1461189057805f525f60205260405f2073ffffffffffffffffffffffffffffffffffffffff83165f5260205260405f207fffffffffffffffffffffffffffffffffffffffffffffffffffffffffffffff00815416905573ffffffffffffffffffffffffffffffffffffffff339216907ff6391f5c32d9c69d2a47ea670b442974b53935d1edc7fd64eb21e047a839171b5f80a4600190565b60027f9b779b17422d0df92223018b32b4d1fa46e071723d6817e2486d003becc55f0054146119ad5760027f9b779b17422d0df92223018b32b4d1fa46e071723d6817e2486d003becc55f0055565b7f3ee5aeb5000000000000000000000000000000000000000000000000000000005f5260045ffd5b92909173ffffffffffffffffffffffffffffffffffffffff9081604051947f23b872dd000000000000000000000000000000000000000000000000000000005f52166004521660245260445260205f60648180865af19060015f5114821615611a48575b6040525f606052156104145750565b906001811516611a6057823b15153d15161690611a39565b503d5f823e3d90fdfea2646970667358221220e5ff6247abd7f81cf98e82fa88e2f0388bc2b59bb79698ad3a24d167aeaf996c64736f6c634300081a00332f8788117e7eff1d82e926ec794901d17c78024a50270940304540a733656f0d7d7ffb7a348e1c6a02869081a26547b49160dd3df72d1d75a570eb9b698292ecad3228b676f7d3cd4284a5443f17f1962b36e491b30a40b2405849e597ba5fb5","linkReferences":{}},"methodIdentifiers":{"ADMIN_ROLE()":"75b238fc","DEFAULT_ADMIN_ROLE()":"a217fddf","GENESIS_TIME()":"f2882461","HOOK()":"a54eb242","USDC()":"89a30271","calculateProratedPayout(uint256)":"cdee52dc","claimInsurance(uint256,uint256)":"f0f8ec6e","enrollLp(address,bytes32,uint128)":"deeaaa21","epochDuration()":"4ff0876a","epochs(uint256)":"c6b61e4c","fundPool(uint256)":"da3a5f72","getCurrentEpoch()":"b97dd9e2","getRoleAdmin(bytes32)":"248a9ca3","grantRole(bytes32,address)":"2f2ff15d","hasClaimed(address,bytes32,uint256)":"66d2d8ea","hasRole(bytes32,address)":"91d14854","ilThresholdBps()":"146003ea","maxPayoutPerLp()":"208d86ec","maxRiskFactor()":"68979557","payPremium(bytes32)":"d8e2d2ba","poolBalance()":"96365d44","positions(address,bytes32)":"34176a6d","premiumAmount()":"44530f3a","processExit(address,bytes32)":"6b82df70","registeredExposurePerEpoch(address,bytes32,uint256)":"85e0fbc0","renounceRole(bytes32,address)":"36568abe","revokeRole(bytes32,address)":"d547741f","setEpochDuration(uint256)":"30024dfe","setMaxRiskFactor(uint256)":"88df5892","supportsInterface(bytes4)":"01ffc9a7"},"id":122}