{"abi":[{"type":"constructor","inputs":[{"name":"_usdc","type":"address","internalType":"contract IERC20"},{"name":"_hook","type":"address","internalType":"address"},{"name":"_admin","type":"address","internalType":"address"}],"stateMutability":"nonpayable"},{"type":"function","name":"ADMIN_ROLE","inputs":[],"outputs":[{"name":"","type":"bytes32","internalType":"bytes32"}],"stateMutability":"view"},{"type":"function","name":"DEFAULT_ADMIN_ROLE","inputs":[],"outputs":[{"name":"","type":"bytes32","internalType":"bytes32"}],"stateMutability":"view"},{"type":"function","name":"calculateProratedPayout","inputs":[{"name":"deltaExposure","type":"uint256","internalType":"uint256"}],"outputs":[{"name":"","type":"uint256","internalType":"uint256"}],"stateMutability":"view"},{"type":"function","name":"claimInsurance","inputs":[{"name":"lpTokenId","type":"uint256","internalType":"uint256"},{"name":"deltaExposure","type":"uint256","internalType":"uint256"}],"outputs":[],"stateMutability":"nonpayable"},{"type":"function","name":"enrollLP","inputs":[{"name":"lp","type":"address","internalType":"address"},{"name":"poolId","type":"bytes32","internalType":"PoolId"},{"name":"entryAmount0","type":"uint128","internalType":"uint128"}],"outputs":[],"stateMutability":"nonpayable"},{"type":"function","name":"epochDuration","inputs":[],"outputs":[{"name":"","type":"uint256","internalType":"uint256"}],"stateMutability":"view"},{"type":"function","name":"epochs","inputs":[{"name":"","type":"uint256","internalType":"uint256"}],"outputs":[{"name":"totalExposure","type":"uint256","internalType":"uint256"},{"name":"balanceAtEnd","type":"uint256","internalType":"uint256"},{"name":"finalized","type":"bool","internalType":"bool"}],"stateMutability":"view"},{"type":"function","name":"fundPool","inputs":[{"name":"amount","type":"uint256","internalType":"uint256"}],"outputs":[],"stateMutability":"nonpayable"},{"type":"function","name":"genesisTime","inputs":[],"outputs":[{"name":"","type":"uint256","internalType":"uint256"}],"stateMutability":"view"},{"type":"function","name":"getCurrentEpoch","inputs":[],"outputs":[{"name":"","type":"uint256","internalType":"uint256"}],"stateMutability":"view"},{"type":"function","name":"getRoleAdmin","inputs":[{"name":"role","type":"bytes32","internalType":"bytes32"}],"outputs":[{"name":"","type":"bytes32","internalType":"bytes32"}],"stateMutability":"view"},{"type":"function","name":"grantRole","inputs":[{"name":"role","type":"bytes32","internalType":"bytes32"},{"name":"account","type":"address","internalType":"address"}],"outputs":[],"stateMutability":"nonpayable"},{"type":"function","name":"hasClaimed","inputs":[{"name":"","type":"address","internalType":"address"},{"name":"","type":"bytes32","internalType":"PoolId"},{"name":"","type":"uint256","internalType":"uint256"}],"outputs":[{"name":"","type":"bool","internalType":"bool"}],"stateMutability":"view"},{"type":"function","name":"hasRole","inputs":[{"name":"role","type":"bytes32","internalType":"bytes32"},{"name":"account","type":"address","internalType":"address"}],"outputs":[{"name":"","type":"bool","internalType":"bool"}],"stateMutability":"view"},{"type":"function","name":"hook","inputs":[],"outputs":[{"name":"","type":"address","internalType":"address"}],"stateMutability":"view"},{"type":"function","name":"ilThresholdBps","inputs":[],"outputs":[{"name":"","type":"uint256","internalType":"uint256"}],"stateMutability":"view"},{"type":"function","name":"maxPayoutPerLP","inputs":[],"outputs":[{"name":"","type":"uint256","internalType":"uint256"}],"stateMutability":"view"},{"type":"function","name":"maxRiskFactor","inputs":[],"outputs":[{"name":"","type":"uint256","internalType":"uint256"}],"stateMutability":"view"},{"type":"function","name":"payPremium","inputs":[{"name":"poolId","type":"bytes32","internalType":"PoolId"}],"outputs":[],"stateMutability":"nonpayable"},{"type":"function","name":"poolBalance","inputs":[],"outputs":[{"name":"","type":"uint256","internalType":"uint256"}],"stateMutability":"view"},{"type":"function","name":"positions","inputs":[{"name":"","type":"address","internalType":"address"},{"name":"","type":"bytes32","internalType":"PoolId"}],"outputs":[{"name":"entryAmount0","type":"uint256","internalType":"uint256"},{"name":"enrolledAt","type":"uint256","internalType":"uint256"},{"name":"insured","type":"bool","internalType":"bool"}],"stateMutability":"view"},{"type":"function","name":"premiumAmount","inputs":[],"outputs":[{"name":"","type":"uint256","internalType":"uint256"}],"stateMutability":"view"},{"type":"function","name":"processExit","inputs":[{"name":"lp","type":"address","internalType":"address"},{"name":"poolId","type":"bytes32","internalType":"PoolId"}],"outputs":[],"stateMutability":"nonpayable"},{"type":"function","name":"registeredExposurePerEpoch","inputs":[{"name":"","type":"address","internalType":"address"},{"name":"","type":"bytes32","internalType":"PoolId"},{"name":"","type":"uint256","internalType":"uint256"}],"outputs":[{"name":"","type":"uint256","internalType":"uint256"}],"stateMutability":"view"},{"type":"function","name":"renounceRole","inputs":[{"name":"role","type":"bytes32","internalType":"bytes32"},{"name":"callerConfirmation","type":"address","internalType":"address"}],"outputs":[],"stateMutability":"nonpayable"},{"type":"function","name":"revokeRole","inputs":[{"name":"role","type":"bytes32","internalType":"bytes32"},{"name":"account","type":"address","internalType":"address"}],"outputs":[],"stateMutability":"nonpayable"},{"type":"function","name":"setEpochDuration","inputs":[{"name":"_newDuration","type":"uint256","internalType":"uint256"}],"outputs":[],"stateMutability":"nonpayable"},{"type":"function","name":"setMaxRiskFactor","inputs":[{"name":"_newRiskFactor","type":"uint256","internalType":"uint256"}],"outputs":[],"stateMutability":"nonpayable"},{"type":"function","name":"supportsInterface","inputs":[{"name":"interfaceId","type":"bytes4","internalType":"bytes4"}],"outputs":[{"name":"","type":"bool","internalType":"bool"}],"stateMutability":"view"},{"type":"function","name":"usdc","inputs":[],"outputs":[{"name":"","type":"address","internalType":"contract IERC20"}],"stateMutability":"view"},{"type":"event","name":"ILPayout","inputs":[{"name":"lp","type":"address","indexed":true,"internalType":"address"},{"name":"poolId","type":"bytes32","indexed":true,"internalType":"PoolId"},{"name":"payout","type":"uint256","indexed":false,"internalType":"uint256"}],"anonymous":false},{"type":"event","name":"LPEnrolled","inputs":[{"name":"lp","type":"address","indexed":true,"internalType":"address"},{"name":"poolId","type":"bytes32","indexed":true,"internalType":"PoolId"},{"name":"premium","type":"uint256","indexed":false,"internalType":"uint256"}],"anonymous":false},{"type":"event","name":"PoolFunded","inputs":[{"name":"funder","type":"address","indexed":true,"internalType":"address"},{"name":"amount","type":"uint256","indexed":false,"internalType":"uint256"}],"anonymous":false},{"type":"event","name":"RoleAdminChanged","inputs":[{"name":"role","type":"bytes32","indexed":true,"internalType":"bytes32"},{"name":"previousAdminRole","type":"bytes32","indexed":true,"internalType":"bytes32"},{"name":"newAdminRole","type":"bytes32","indexed":true,"internalType":"bytes32"}],"anonymous":false},{"type":"event","name":"RoleGranted","inputs":[{"name":"role","type":"bytes32","indexed":true,"internalType":"bytes32"},{"name":"account","type":"address","indexed":true,"internalType":"address"},{"name":"sender","type":"address","indexed":true,"internalType":"address"}],"anonymous":false},{"type":"event","name":"RoleRevoked","inputs":[{"name":"role","type":"bytes32","indexed":true,"internalType":"bytes32"},{"name":"account","type":"address","indexed":true,"internalType":"address"},{"name":"sender","type":"address","indexed":true,"internalType":"address"}],"anonymous":false},{"type":"error","name":"AccessControlBadConfirmation","inputs":[]},{"type":"error","name":"AccessControlUnauthorizedAccount","inputs":[{"name":"account","type":"address","internalType":"address"},{"name":"neededRole","type":"bytes32","internalType":"bytes32"}]},{"type":"error","name":"InsufficientPoolBalance","inputs":[]},{"type":"error","name":"NotInsured","inputs":[]},{"type":"error","name":"OnlyHook","inputs":[]},{"type":"error","name":"ReentrancyGuardReentrantCall","inputs":[]}],"bytecode":{"object":"0x60e03461013557601f611dc938819003918201601f19168301916001600160401b03831184841017610139578084926060946040528339810103126101355780516001600160a01b0381168103610135578161006c604061006560206100cb960161014d565b920161014d565b9160017f9b779b17422d0df92223018b32b4d1fa46e071723d6817e2486d003becc55f00556105dc60015562093a806002556298968060035560c8600455631dcd650060055560805260a0524260c0526100c581610161565b506101d7565b50604051611afe908161026b823960805181818161034801528181610673015281816107b40152611035015260a051818181610c5b01528181610e440152611587015260c0518181816101ab01528181610a0e01528181610fc80152818161168e01526117330152f35b5f80fd5b634e487b7160e01b5f52604160045260245ffd5b51906001600160a01b038216820361013557565b6001600160a01b0381165f9081525f80516020611da9833981519152602052604090205460ff166101d2576001600160a01b03165f8181525f80516020611da983398151915260205260408120805460ff191660011790553391905f80516020611d698339815191528180a4600190565b505f90565b6001600160a01b0381165f9081525f80516020611d89833981519152602052604090205460ff166101d2576001600160a01b03165f8181525f80516020611d8983398151915260205260408120805460ff191660011790553391907fa49807205ce4d355092ef5a8a18f56e8913cf4a201fbe287825b095693c21775905f80516020611d698339815191529080a460019056fe6080806040526004361015610012575f80fd5b5f3560e01c90816301ffc9a71461133857508063146003ea146112fd578063248a9ca3146112b557806327f383501461127a5780632f2ff15d1461121f57806330024dfe1461117857806334176a6d146110e157806336568abe146110595780633e413bee14610feb57806342c6498a14610f9357806344530f3a14610f585780634ff0876a14610f1d5780635d01b04b14610dd957806366d2d8ea14610d835780636897955714610d485780636b82df7014610cd757806375b238fc14610c7f5780637f5a7c7b14610c1157806385e0fbc014610bc057806388df589214610b1a57806391d1485414610aa657806396365d4414610a6b578063a217fddf14610a33578063b97dd9e2146109d6578063c6b61e4c14610962578063cdee52dc1461091e578063d547741f146108bc578063d8e2d2ba14610734578063da3a5f72146105f75763f0f8ec6e14610166575f80fd5b346105f35760407ffffffffffffffffffffffffffffffffffffffffffffffffffffffffffffffffc3601126105f3576004356024356101a3611a51565b6101d96101d07f00000000000000000000000000000000000000000000000000000000000000004261170b565b6002549061152c565b908115610595577fffffffffffffffffffffffffffffffffffffffffffffffffffffffffffffffff820191821161056857335f52600960205260405f20835f5260205260405f20825f5260205260ff60405f20541661050a57335f52600860205260405f20835f5260205260405f20825f526020528060405f2054036104ac57801561044e57815f52600660205260405f2060028101805460ff811615610418575b5050612710610291600183015460015490611519565b91549104808211610400575050905b335f52600960205260405f20835f5260205260405f20905f5260205260405f2060017fffffffffffffffffffffffffffffffffffffffffffffffffffffffffffffff008254161790556102f581600a5461170b565b600a556040517fa9059cbb0000000000000000000000000000000000000000000000000000000081523360048201528160248201526020816044815f73ffffffffffffffffffffffffffffffffffffffff7f0000000000000000000000000000000000000000000000000000000000000000165af180156103f5576103c8575b506040519081527f1f7189d01fa4c9757c80ba0bfdc23cffa8e6de39f7330bd6127dd4253e961e5760203392a360017f9b779b17422d0df92223018b32b4d1fa46e071723d6817e2486d003becc55f0055005b6103e99060203d6020116103ee575b6103e181836114d8565b8101906117b1565b610375565b503d6103d7565b6040513d5f823e3d90fd5b61040d9061041293611519565b61152c565b906102a0565b7fffffffffffffffffffffffffffffffffffffffffffffffffffffffffffffff00600191600a5483860155161790555f8061027b565b60646040517f08c379a000000000000000000000000000000000000000000000000000000000815260206004820152601260248201527f4e6f206c6f7373207265676973746572656400000000000000000000000000006044820152fd5b60646040517f08c379a000000000000000000000000000000000000000000000000000000000815260206004820152601660248201527f496e76616c6964206578706f737572652076616c7565000000000000000000006044820152fd5b60646040517f08c379a000000000000000000000000000000000000000000000000000000000815260206004820152601e60248201527f416c726561647920636c61696d656420666f7220746869732065706f636800006044820152fd5b7f4e487b71000000000000000000000000000000000000000000000000000000005f52601160045260245ffd5b60646040517f08c379a000000000000000000000000000000000000000000000000000000000815260206004820152601360248201527f4e6f2065706f63687320636f6d706c65746564000000000000000000000000006044820152fd5b5f80fd5b346105f35760207ffffffffffffffffffffffffffffffffffffffffffffffffffffffffffffffffc3601126105f357600435610631611a51565b6040517f23b872dd000000000000000000000000000000000000000000000000000000008152336004820152306024820152604481018290526020816064815f7f000000000000000000000000000000000000000000000000000000000000000073ffffffffffffffffffffffffffffffffffffffff165af180156103f557610717575b506106c281600a54611563565b600a556040519081527f32173d8e51cec3a6fe484b7a1c3febe760cdf96e03d4cca36a43563a4333e83860203392a260017f9b779b17422d0df92223018b32b4d1fa46e071723d6817e2486d003becc55f0055005b61072f9060203d6020116103ee576103e181836114d8565b6106b5565b346105f35760207ffffffffffffffffffffffffffffffffffffffffffffffffffffffffffffffffc3601126105f35760043561076e611a51565b6003546040517f23b872dd00000000000000000000000000000000000000000000000000000000815233600482015230602482015260448101919091526020816064815f7f000000000000000000000000000000000000000000000000000000000000000073ffffffffffffffffffffffffffffffffffffffff165af180156103f55761089f575b50610805600354600a54611563565b600a55335f52600760205260405f20815f52602052600260405f200160017fffffffffffffffffffffffffffffffffffffffffffffffffffffffffffffff008254161790556003546040519081527fb0ac725d6f9c0c5f6d4b5418000ba60645033e7e4844f40b387079a0cc488ea460203392a360017f9b779b17422d0df92223018b32b4d1fa46e071723d6817e2486d003becc55f0055005b6108b79060203d6020116103ee576103e181836114d8565b6107f6565b346105f35760407ffffffffffffffffffffffffffffffffffffffffffffffffffffffffffffffffc3601126105f35761091c6004356108f96113f4565b90610917610912825f525f602052600160405f20015490565b611851565b611989565b005b346105f35760207ffffffffffffffffffffffffffffffffffffffffffffffffffffffffffffffffc3601126105f357602061095a600435611718565b604051908152f35b346105f35760207ffffffffffffffffffffffffffffffffffffffffffffffffffffffffffffffffc3601126105f3576004355f52600660205260405f2080546109d260ff600260018501549401541660405193849384919260409194936060840195845260208401521515910152565b0390f35b346105f3575f7ffffffffffffffffffffffffffffffffffffffffffffffffffffffffffffffffc3601126105f357602061095a6101d07f00000000000000000000000000000000000000000000000000000000000000004261170b565b346105f3575f7ffffffffffffffffffffffffffffffffffffffffffffffffffffffffffffffffc3601126105f35760206040515f8152f35b346105f3575f7ffffffffffffffffffffffffffffffffffffffffffffffffffffffffffffffffc3601126105f3576020600a54604051908152f35b346105f35760407ffffffffffffffffffffffffffffffffffffffffffffffffffffffffffffffffc3601126105f357610add6113f4565b6004355f525f60205273ffffffffffffffffffffffffffffffffffffffff60405f2091165f52602052602060ff60405f2054166040519015158152f35b346105f35760207ffffffffffffffffffffffffffffffffffffffffffffffffffffffffffffffffc3601126105f357600435610b546117c9565b6113888111610b6257600155005b60646040517f08c379a000000000000000000000000000000000000000000000000000000000815260206004820152601460248201527f5269736b5f466163746f725f546f6f5f486967680000000000000000000000006044820152fd5b346105f35773ffffffffffffffffffffffffffffffffffffffff610be33661143a565b929091165f52600860205260405f20905f5260205260405f20905f52602052602060405f2054604051908152f35b346105f3575f7ffffffffffffffffffffffffffffffffffffffffffffffffffffffffffffffffc3601126105f357602060405173ffffffffffffffffffffffffffffffffffffffff7f0000000000000000000000000000000000000000000000000000000000000000168152f35b346105f3575f7ffffffffffffffffffffffffffffffffffffffffffffffffffffffffffffffffc3601126105f35760206040517fa49807205ce4d355092ef5a8a18f56e8913cf4a201fbe287825b095693c217758152f35b346105f35760407ffffffffffffffffffffffffffffffffffffffffffffffffffffffffffffffffc3601126105f357610d22610d11611417565b610d19611a51565b60243590611570565b60017f9b779b17422d0df92223018b32b4d1fa46e071723d6817e2486d003becc55f0055005b346105f3575f7ffffffffffffffffffffffffffffffffffffffffffffffffffffffffffffffffc3601126105f3576020600154604051908152f35b346105f35773ffffffffffffffffffffffffffffffffffffffff610da63661143a565b929091165f52600960205260405f20905f5260205260405f20905f52602052602060ff60405f2054166040519015158152f35b346105f35760607ffffffffffffffffffffffffffffffffffffffffffffffffffffffffffffffffc3601126105f357610e10611417565b6044356fffffffffffffffffffffffffffffffff81168091036105f35773ffffffffffffffffffffffffffffffffffffffff7f0000000000000000000000000000000000000000000000000000000000000000163303610ef557604051600291610e798261148f565b81526020810142815273ffffffffffffffffffffffffffffffffffffffff60408301945f8652165f52600760205260405f206024355f5260205260405f2091518255516001820155019051151560ff7fffffffffffffffffffffffffffffffffffffffffffffffffffffffffffffff0083541691161790555f80f35b7f5a91834f000000000000000000000000000000000000000000000000000000005f5260045ffd5b346105f3575f7ffffffffffffffffffffffffffffffffffffffffffffffffffffffffffffffffc3601126105f3576020600254604051908152f35b346105f3575f7ffffffffffffffffffffffffffffffffffffffffffffffffffffffffffffffffc3601126105f3576020600354604051908152f35b346105f3575f7ffffffffffffffffffffffffffffffffffffffffffffffffffffffffffffffffc3601126105f35760206040517f00000000000000000000000000000000000000000000000000000000000000008152f35b346105f3575f7ffffffffffffffffffffffffffffffffffffffffffffffffffffffffffffffffc3601126105f357602060405173ffffffffffffffffffffffffffffffffffffffff7f0000000000000000000000000000000000000000000000000000000000000000168152f35b346105f35760407ffffffffffffffffffffffffffffffffffffffffffffffffffffffffffffffffc3601126105f3576110906113f4565b3373ffffffffffffffffffffffffffffffffffffffff8216036110b95761091c90600435611989565b7f6697b232000000000000000000000000000000000000000000000000000000005f5260045ffd5b346105f35760407ffffffffffffffffffffffffffffffffffffffffffffffffffffffffffffffffc3601126105f35773ffffffffffffffffffffffffffffffffffffffff61112d611417565b165f52600760205260405f206024355f5260205260405f2080546109d260ff600260018501549401541660405193849384919260409194936060840195845260208401521515910152565b346105f35760207ffffffffffffffffffffffffffffffffffffffffffffffffffffffffffffffffc3601126105f3576004356111b26117c9565b6201518081106111c157600255005b60646040517f08c379a000000000000000000000000000000000000000000000000000000000815260206004820152600f60248201527f45706f63685f546f6f5f53686f727400000000000000000000000000000000006044820152fd5b346105f35760407ffffffffffffffffffffffffffffffffffffffffffffffffffffffffffffffffc3601126105f35761091c60043561125c6113f4565b90611275610912825f525f602052600160405f20015490565b6118b7565b346105f3575f7ffffffffffffffffffffffffffffffffffffffffffffffffffffffffffffffffc3601126105f3576020600554604051908152f35b346105f35760207ffffffffffffffffffffffffffffffffffffffffffffffffffffffffffffffffc3601126105f357602061095a6004355f525f602052600160405f20015490565b346105f3575f7ffffffffffffffffffffffffffffffffffffffffffffffffffffffffffffffffc3601126105f3576020600454604051908152f35b346105f35760207ffffffffffffffffffffffffffffffffffffffffffffffffffffffffffffffffc3601126105f357600435907fffffffff0000000000000000000000000000000000000000000000000000000082168092036105f357817f7965db0b00000000000000000000000000000000000000000000000000000000602093149081156113ca575b5015158152f35b7f01ffc9a700000000000000000000000000000000000000000000000000000000915014836113c3565b6024359073ffffffffffffffffffffffffffffffffffffffff821682036105f357565b6004359073ffffffffffffffffffffffffffffffffffffffff821682036105f357565b7ffffffffffffffffffffffffffffffffffffffffffffffffffffffffffffffffc60609101126105f35760043573ffffffffffffffffffffffffffffffffffffffff811681036105f357906024359060443590565b6060810190811067ffffffffffffffff8211176114ab57604052565b7f4e487b71000000000000000000000000000000000000000000000000000000005f52604160045260245ffd5b90601f7fffffffffffffffffffffffffffffffffffffffffffffffffffffffffffffffe0910116810190811067ffffffffffffffff8211176114ab57604052565b8181029291811591840414171561056857565b8115611536570490565b7f4e487b71000000000000000000000000000000000000000000000000000000005f52601260045260245ffd5b9190820180921161056857565b73ffffffffffffffffffffffffffffffffffffffff7f0000000000000000000000000000000000000000000000000000000000000000163303610ef55773ffffffffffffffffffffffffffffffffffffffff16805f52600760205260405f20825f5260205260405f2060ff60028201541615806117055761161f90611618604051916115fb8361148f565b60018554958685520154908160208501521560408401524261170b565b9051611519565b6005810290808204600514901517156105685761164a64496cebb80061271092049260045490611519565b048111611678575b505f52600760205260405f20905f526020525f6002604082208281558260018201550155565b60055490818111156116fe57505b6116b36101d07f00000000000000000000000000000000000000000000000000000000000000004261170b565b825f52600860205260405f20845f5260205260405f20815f5260205260405f206116de838254611563565b90555f5260066020526116f660405f20918254611563565b90555f611652565b9050611686565b50505050565b9190820391821161056857565b61271061172a600a5460015490611519565b046117586101d07f00000000000000000000000000000000000000000000000000000000000000004261170b565b5f52600660205260405f2054908082118015906117a9575b1561178c5750506005549081811115611787575090565b905090565b61040d9061179993611519565b6005549081811115611787575090565b508115611770565b908160209103126105f3575180151581036105f35790565b335f9081527f7d7ffb7a348e1c6a02869081a26547b49160dd3df72d1d75a570eb9b698292ec602052604090205460ff161561180157565b7fe2517d3f000000000000000000000000000000000000000000000000000000005f52336004527fa49807205ce4d355092ef5a8a18f56e8913cf4a201fbe287825b095693c2177560245260445ffd5b805f525f60205260405f2073ffffffffffffffffffffffffffffffffffffffff33165f5260205260ff60405f205416156118885750565b7fe2517d3f000000000000000000000000000000000000000000000000000000005f523360045260245260445ffd5b805f525f60205260405f2073ffffffffffffffffffffffffffffffffffffffff83165f5260205260ff60405f205416155f1461198357805f525f60205260405f2073ffffffffffffffffffffffffffffffffffffffff83165f5260205260405f2060017fffffffffffffffffffffffffffffffffffffffffffffffffffffffffffffff0082541617905573ffffffffffffffffffffffffffffffffffffffff339216907f2f8788117e7eff1d82e926ec794901d17c78024a50270940304540a733656f0d5f80a4600190565b50505f90565b805f525f60205260405f2073ffffffffffffffffffffffffffffffffffffffff83165f5260205260ff60405f2054165f1461198357805f525f60205260405f2073ffffffffffffffffffffffffffffffffffffffff83165f5260205260405f207fffffffffffffffffffffffffffffffffffffffffffffffffffffffffffffff00815416905573ffffffffffffffffffffffffffffffffffffffff339216907ff6391f5c32d9c69d2a47ea670b442974b53935d1edc7fd64eb21e047a839171b5f80a4600190565b60027f9b779b17422d0df92223018b32b4d1fa46e071723d6817e2486d003becc55f005414611aa05760027f9b779b17422d0df92223018b32b4d1fa46e071723d6817e2486d003becc55f0055565b7f3ee5aeb5000000000000000000000000000000000000000000000000000000005f5260045ffdfea264697066735822122013e47316c0e2ba5c430ff6124ce63001f1839612268c968ff3aa5f5c4295edae64736f6c634300081a00332f8788117e7eff1d82e926ec794901d17c78024a50270940304540a733656f0d7d7ffb7a348e1c6a02869081a26547b49160dd3df72d1d75a570eb9b698292ecad3228b676f7d3cd4284a5443f17f1962b36e491b30a40b2405849e597ba5fb5","linkReferences":{}},"methodIdentifiers":{"ADMIN_ROLE()":"75b238fc","DEFAULT_ADMIN_ROLE()":"a217fddf","calculateProratedPayout(uint256)":"cdee52dc","claimInsurance(uint256,uint256)":"f0f8ec6e","enrollLP(address,bytes32,uint128)":"5d01b04b","epochDuration()":"4ff0876a","epochs(uint256)":"c6b61e4c","fundPool(uint256)":"da3a5f72","genesisTime()":"42c6498a","getCurrentEpoch()":"b97dd9e2","getRoleAdmin(bytes32)":"248a9ca3","grantRole(bytes32,address)":"2f2ff15d","hasClaimed(address,bytes32,uint256)":"66d2d8ea","hasRole(bytes32,address)":"91d14854","hook()":"7f5a7c7b","ilThresholdBps()":"146003ea","maxPayoutPerLP()":"27f38350","maxRiskFactor()":"68979557","payPremium(bytes32)":"d8e2d2ba","poolBalance()":"96365d44","positions(address,bytes32)":"34176a6d","premiumAmount()":"44530f3a","processExit(address,bytes32)":"6b82df70","registeredExposurePerEpoch(address,bytes32,uint256)":"85e0fbc0","renounceRole(bytes32,address)":"36568abe","revokeRole(bytes32,address)":"d547741f","setEpochDuration(uint256)":"30024dfe","setMaxRiskFactor(uint256)":"88df5892","supportsInterface(bytes4)":"01ffc9a7","usdc()":"3e413bee"},"id":67}