{"abi":[{"type":"constructor","inputs":[{"name":"_usdc","type":"address","internalType":"contract IERC20"},{"name":"_hook","type":"address","internalType":"address"},{"name":"_admin","type":"address","internalType":"address"}],"stateMutability":"nonpayable"},{"type":"function","name":"ADMIN","inputs":[],"outputs":[{"name":"","type":"address","internalType":"address"}],"stateMutability":"view"},{"type":"function","name":"EPOCH_DURATION","inputs":[],"outputs":[{"name":"","type":"uint256","internalType":"uint256"}],"stateMutability":"view"},{"type":"function","name":"HOOK","inputs":[],"outputs":[{"name":"","type":"address","internalType":"address"}],"stateMutability":"view"},{"type":"function","name":"advanceEpoch","inputs":[],"outputs":[],"stateMutability":"nonpayable"},{"type":"function","name":"allowance","inputs":[{"name":"owner","type":"address","internalType":"address"},{"name":"spender","type":"address","internalType":"address"}],"outputs":[{"name":"","type":"uint256","internalType":"uint256"}],"stateMutability":"view"},{"type":"function","name":"approve","inputs":[{"name":"spender","type":"address","internalType":"address"},{"name":"value","type":"uint256","internalType":"uint256"}],"outputs":[{"name":"","type":"bool","internalType":"bool"}],"stateMutability":"nonpayable"},{"type":"function","name":"asset","inputs":[],"outputs":[{"name":"","type":"address","internalType":"address"}],"stateMutability":"view"},{"type":"function","name":"balanceOf","inputs":[{"name":"account","type":"address","internalType":"address"}],"outputs":[{"name":"","type":"uint256","internalType":"uint256"}],"stateMutability":"view"},{"type":"function","name":"convertToAssets","inputs":[{"name":"shares","type":"uint256","internalType":"uint256"}],"outputs":[{"name":"","type":"uint256","internalType":"uint256"}],"stateMutability":"view"},{"type":"function","name":"convertToShares","inputs":[{"name":"assets","type":"uint256","internalType":"uint256"}],"outputs":[{"name":"","type":"uint256","internalType":"uint256"}],"stateMutability":"view"},{"type":"function","name":"currentDripRate","inputs":[],"outputs":[{"name":"","type":"uint256","internalType":"uint256"}],"stateMutability":"view"},{"type":"function","name":"decimals","inputs":[],"outputs":[{"name":"","type":"uint8","internalType":"uint8"}],"stateMutability":"view"},{"type":"function","name":"deposit","inputs":[{"name":"assets","type":"uint256","internalType":"uint256"},{"name":"receiver","type":"address","internalType":"address"}],"outputs":[{"name":"","type":"uint256","internalType":"uint256"}],"stateMutability":"nonpayable"},{"type":"function","name":"depositFees","inputs":[{"name":"amount","type":"uint256","internalType":"uint256"}],"outputs":[],"stateMutability":"nonpayable"},{"type":"function","name":"epochFeesAccrued","inputs":[],"outputs":[{"name":"","type":"uint256","internalType":"uint256"}],"stateMutability":"view"},{"type":"function","name":"epochFeesReleased","inputs":[],"outputs":[{"name":"","type":"uint256","internalType":"uint256"}],"stateMutability":"view"},{"type":"function","name":"epochStart","inputs":[],"outputs":[{"name":"","type":"uint256","internalType":"uint256"}],"stateMutability":"view"},{"type":"function","name":"maxDeposit","inputs":[{"name":"","type":"address","internalType":"address"}],"outputs":[{"name":"","type":"uint256","internalType":"uint256"}],"stateMutability":"view"},{"type":"function","name":"maxMint","inputs":[{"name":"","type":"address","internalType":"address"}],"outputs":[{"name":"","type":"uint256","internalType":"uint256"}],"stateMutability":"view"},{"type":"function","name":"maxRedeem","inputs":[{"name":"owner","type":"address","internalType":"address"}],"outputs":[{"name":"","type":"uint256","internalType":"uint256"}],"stateMutability":"view"},{"type":"function","name":"maxWithdraw","inputs":[{"name":"owner","type":"address","internalType":"address"}],"outputs":[{"name":"","type":"uint256","internalType":"uint256"}],"stateMutability":"view"},{"type":"function","name":"mint","inputs":[{"name":"shares","type":"uint256","internalType":"uint256"},{"name":"receiver","type":"address","internalType":"address"}],"outputs":[{"name":"","type":"uint256","internalType":"uint256"}],"stateMutability":"nonpayable"},{"type":"function","name":"name","inputs":[],"outputs":[{"name":"","type":"string","internalType":"string"}],"stateMutability":"view"},{"type":"function","name":"previewDeposit","inputs":[{"name":"assets","type":"uint256","internalType":"uint256"}],"outputs":[{"name":"","type":"uint256","internalType":"uint256"}],"stateMutability":"view"},{"type":"function","name":"previewMint","inputs":[{"name":"shares","type":"uint256","internalType":"uint256"}],"outputs":[{"name":"","type":"uint256","internalType":"uint256"}],"stateMutability":"view"},{"type":"function","name":"previewRedeem","inputs":[{"name":"shares","type":"uint256","internalType":"uint256"}],"outputs":[{"name":"","type":"uint256","internalType":"uint256"}],"stateMutability":"view"},{"type":"function","name":"previewWithdraw","inputs":[{"name":"assets","type":"uint256","internalType":"uint256"}],"outputs":[{"name":"","type":"uint256","internalType":"uint256"}],"stateMutability":"view"},{"type":"function","name":"redeem","inputs":[{"name":"shares","type":"uint256","internalType":"uint256"},{"name":"receiver","type":"address","internalType":"address"},{"name":"owner","type":"address","internalType":"address"}],"outputs":[{"name":"","type":"uint256","internalType":"uint256"}],"stateMutability":"nonpayable"},{"type":"function","name":"symbol","inputs":[],"outputs":[{"name":"","type":"string","internalType":"string"}],"stateMutability":"view"},{"type":"function","name":"totalAssets","inputs":[],"outputs":[{"name":"","type":"uint256","internalType":"uint256"}],"stateMutability":"view"},{"type":"function","name":"totalSupply","inputs":[],"outputs":[{"name":"","type":"uint256","internalType":"uint256"}],"stateMutability":"view"},{"type":"function","name":"transfer","inputs":[{"name":"to","type":"address","internalType":"address"},{"name":"value","type":"uint256","internalType":"uint256"}],"outputs":[{"name":"","type":"bool","internalType":"bool"}],"stateMutability":"nonpayable"},{"type":"function","name":"transferFrom","inputs":[{"name":"from","type":"address","internalType":"address"},{"name":"to","type":"address","internalType":"address"},{"name":"value","type":"uint256","internalType":"uint256"}],"outputs":[{"name":"","type":"bool","internalType":"bool"}],"stateMutability":"nonpayable"},{"type":"function","name":"withdraw","inputs":[{"name":"assets","type":"uint256","internalType":"uint256"},{"name":"receiver","type":"address","internalType":"address"},{"name":"owner","type":"address","internalType":"address"}],"outputs":[{"name":"","type":"uint256","internalType":"uint256"}],"stateMutability":"nonpayable"},{"type":"event","name":"Approval","inputs":[{"name":"owner","type":"address","indexed":true,"internalType":"address"},{"name":"spender","type":"address","indexed":true,"internalType":"address"},{"name":"value","type":"uint256","indexed":false,"internalType":"uint256"}],"anonymous":false},{"type":"event","name":"Deposit","inputs":[{"name":"sender","type":"address","indexed":true,"internalType":"address"},{"name":"owner","type":"address","indexed":true,"internalType":"address"},{"name":"assets","type":"uint256","indexed":false,"internalType":"uint256"},{"name":"shares","type":"uint256","indexed":false,"internalType":"uint256"}],"anonymous":false},{"type":"event","name":"EpochStarted","inputs":[{"name":"timestamp","type":"uint256","indexed":false,"internalType":"uint256"},{"name":"previousEpochFees","type":"uint256","indexed":false,"internalType":"uint256"}],"anonymous":false},{"type":"event","name":"FeeDeposited","inputs":[{"name":"amount","type":"uint256","indexed":false,"internalType":"uint256"},{"name":"epochTotal","type":"uint256","indexed":false,"internalType":"uint256"}],"anonymous":false},{"type":"event","name":"Transfer","inputs":[{"name":"from","type":"address","indexed":true,"internalType":"address"},{"name":"to","type":"address","indexed":true,"internalType":"address"},{"name":"value","type":"uint256","indexed":false,"internalType":"uint256"}],"anonymous":false},{"type":"event","name":"Withdraw","inputs":[{"name":"sender","type":"address","indexed":true,"internalType":"address"},{"name":"receiver","type":"address","indexed":true,"internalType":"address"},{"name":"owner","type":"address","indexed":true,"internalType":"address"},{"name":"assets","type":"uint256","indexed":false,"internalType":"uint256"},{"name":"shares","type":"uint256","indexed":false,"internalType":"uint256"}],"anonymous":false},{"type":"event","name":"YieldClaimed","inputs":[{"name":"lp","type":"address","indexed":true,"internalType":"address"},{"name":"amount","type":"uint256","indexed":false,"internalType":"uint256"}],"anonymous":false},{"type":"error","name":"ERC20InsufficientAllowance","inputs":[{"name":"spender","type":"address","internalType":"address"},{"name":"allowance","type":"uint256","internalType":"uint256"},{"name":"needed","type":"uint256","internalType":"uint256"}]},{"type":"error","name":"ERC20InsufficientBalance","inputs":[{"name":"sender","type":"address","internalType":"address"},{"name":"balance","type":"uint256","internalType":"uint256"},{"name":"needed","type":"uint256","internalType":"uint256"}]},{"type":"error","name":"ERC20InvalidApprover","inputs":[{"name":"approver","type":"address","internalType":"address"}]},{"type":"error","name":"ERC20InvalidReceiver","inputs":[{"name":"receiver","type":"address","internalType":"address"}]},{"type":"error","name":"ERC20InvalidSender","inputs":[{"name":"sender","type":"address","internalType":"address"}]},{"type":"error","name":"ERC20InvalidSpender","inputs":[{"name":"spender","type":"address","internalType":"address"}]},{"type":"error","name":"ERC4626ExceededMaxDeposit","inputs":[{"name":"receiver","type":"address","internalType":"address"},{"name":"assets","type":"uint256","internalType":"uint256"},{"name":"max","type":"uint256","internalType":"uint256"}]},{"type":"error","name":"ERC4626ExceededMaxMint","inputs":[{"name":"receiver","type":"address","internalType":"address"},{"name":"shares","type":"uint256","internalType":"uint256"},{"name":"max","type":"uint256","internalType":"uint256"}]},{"type":"error","name":"ERC4626ExceededMaxRedeem","inputs":[{"name":"owner","type":"address","internalType":"address"},{"name":"shares","type":"uint256","internalType":"uint256"},{"name":"max","type":"uint256","internalType":"uint256"}]},{"type":"error","name":"ERC4626ExceededMaxWithdraw","inputs":[{"name":"owner","type":"address","internalType":"address"},{"name":"assets","type":"uint256","internalType":"uint256"},{"name":"max","type":"uint256","internalType":"uint256"}]},{"type":"error","name":"EpochNotComplete","inputs":[]},{"type":"error","name":"OnlyHook","inputs":[]},{"type":"error","name":"SafeERC20FailedOperation","inputs":[{"name":"token","type":"address","internalType":"address"}]}],"bytecode":{"object":"0x610100806040523461044557606081611ea080380380916100208285610449565b8339810103126104455780516001600160a01b0381169182820361044557610056604061004f6020840161046c565b920161046c565b91604051610065604082610449565b601581527f486f6f6b4d696e64205969656c6420536861726573000000000000000000000060208201526040519061009e604083610449565b60078252661a1b565251531160ca1b60208301528051906001600160401b0382116103485760035490600182811c9216801561043b575b602083101461032a5781601f8493116103cd575b50602090601f8311600114610367575f9261035c575b50508160011b915f199060031b1c1916176003555b8051906001600160401b0382116103485760045490600182811c9216801561033e575b602083101461032a5781601f8493116102bc575b50602090601f8311600114610256575f9261024b575b50508160011b915f199060031b1c1916176004555b60405f8151956020870163313ce56760e01b815260048852610199602489610449565b8751915afa5f51908560405280610240575b80610235575b1561022d5760ff1660015b15610225575b60a05260805260c05260e05242600555611a1f9081610481823960805181818161024401528181610a01015281816110bd015281816114fc015261166d015260a05181610a57015260c0518181816101dd015261067e015260e05181610ad40152f35b5060126101c2565b505f806101bc565b5060ff8111156101b1565b5060203d10156101ab565b015190505f80610161565b60045f9081528281209350601f198516905b8181106102a4575090846001959493921061028c575b505050811b01600455610176565b01515f1960f88460031b161c191690555f808061027e565b92936020600181928786015181550195019301610268565b60045f529091507f8a35acfbc15ff81a39ae7d344fd709f28e8600b4aa8c65c6b64bfe7fe36bd19b601f840160051c81019160208510610320575b90601f859493920160051c01905b818110610312575061014b565b5f8155849350600101610305565b90915081906102f7565b634e487b7160e01b5f52602260045260245ffd5b91607f1691610137565b634e487b7160e01b5f52604160045260245ffd5b015190505f806100ff565b60035f9081528281209350601f198516905b8181106103b5575090846001959493921061039d575b505050811b01600355610114565b01515f1960f88460031b161c191690555f808061038f565b92936020600181928786015181550195019301610379565b60035f529091507fc2575a0e9e593c00f959f8c92f12db2869c3395a3b0502d05e2516446f71f85b601f840160051c81019160208510610431575b90601f859493920160051c01905b81811061042357506100e9565b5f8155849350600101610416565b9091508190610408565b91607f16916100d5565b5f80fd5b601f909101601f19168101906001600160401b0382119082101761034857604052565b51906001600160a01b03821682036104455756fe60806040526004361015610011575f80fd5b5f3560e01c806301e1d11414610e19578063061344d414610dde57806306fdde0314610d0557806307a2d13a146108d8578063095ea7b314610c005780630a28a47714610bc457806315e5a1e514610b8957806318160ddd14610b4e57806323b872dd14610af85780632a0acc6a14610a8a578063313ce56714610a2557806338d52e0f146109b75780633cf80e6c146108dd578063402d267d146104225780634cdad506146108d85780636e553f651461088757806370a082311461033e57806394bf804d1461083657806395d89b41146106dd5780639811f9f3146106a2578063a54eb24214610634578063a70b9f0c146105f9578063a9059cbb146105aa578063b3d7f6b91461056e578063b460af94146104c9578063ba08765214610427578063c63d75b614610422578063c6e6f5921461018f578063ce96cb77146103de578063d3556dee146103a6578063d905777e1461033e578063dd62ed3e146102b2578063ebdac090146101945763ef8b30f71461018f575f80fd5b610fef565b346102ae5760207ffffffffffffffffffffffffffffffffffffffffffffffffffffffffffffffffc3601126102ae5760043573ffffffffffffffffffffffffffffffffffffffff7f0000000000000000000000000000000000000000000000000000000000000000163303610286576040816102697f438640be9558058e47957699bdabaefce31bf0b8662a30791d4fb0e8c76df72393303373ffffffffffffffffffffffffffffffffffffffff7f0000000000000000000000000000000000000000000000000000000000000000166117b1565b61027581600654611038565b8060065582519182526020820152a1005b7f5a91834f000000000000000000000000000000000000000000000000000000005f5260045ffd5b5f80fd5b346102ae5760407ffffffffffffffffffffffffffffffffffffffffffffffffffffffffffffffffc3601126102ae576102e9610ed5565b73ffffffffffffffffffffffffffffffffffffffff610306610ef8565b91165f52600160205273ffffffffffffffffffffffffffffffffffffffff60405f2091165f52602052602060405f2054604051908152f35b346102ae5760207ffffffffffffffffffffffffffffffffffffffffffffffffffffffffffffffffc3601126102ae57602061039e61037a610ed5565b73ffffffffffffffffffffffffffffffffffffffff165f525f60205260405f205490565b604051908152f35b346102ae575f7ffffffffffffffffffffffffffffffffffffffffffffffffffffffffffffffffc3601126102ae57602061039e6111b0565b346102ae5760207ffffffffffffffffffffffffffffffffffffffffffffffffffffffffffffffffc3601126102ae57602061039e61041d61037a610ed5565b61120f565b610f1b565b346102ae5761043536610f7d565b919061045f8373ffffffffffffffffffffffffffffffffffffffff165f525f60205260405f205490565b8083116104805760208461039e85856104778261120f565b938491336115bc565b8273ffffffffffffffffffffffffffffffffffffffff857fb94abeec000000000000000000000000000000000000000000000000000000005f521660045260245260445260645ffd5b346102ae576104d736610f7d565b909161050461041d8373ffffffffffffffffffffffffffffffffffffffff165f525f60205260405f205490565b80821161052557506020928161051c61039e9361123c565b938492336115bc565b9173ffffffffffffffffffffffffffffffffffffffff907ffe9cceec000000000000000000000000000000000000000000000000000000005f521660045260245260445260645ffd5b346102ae5760207ffffffffffffffffffffffffffffffffffffffffffffffffffffffffffffffffc3601126102ae57602061039e6004356111e1565b346102ae5760407ffffffffffffffffffffffffffffffffffffffffffffffffffffffffffffffffc3601126102ae576105ee6105e4610ed5565b60243590336113b9565b602060405160018152f35b346102ae575f7ffffffffffffffffffffffffffffffffffffffffffffffffffffffffffffffffc3601126102ae57602060405162093a808152f35b346102ae575f7ffffffffffffffffffffffffffffffffffffffffffffffffffffffffffffffffc3601126102ae57602060405173ffffffffffffffffffffffffffffffffffffffff7f0000000000000000000000000000000000000000000000000000000000000000168152f35b346102ae575f7ffffffffffffffffffffffffffffffffffffffffffffffffffffffffffffffffc3601126102ae576020600754604051908152f35b346102ae575f7ffffffffffffffffffffffffffffffffffffffffffffffffffffffffffffffffc3601126102ae576040515f6004548060011c9060018116801561082c575b6020831081146107ff578285529081156107bd575060011461075f575b61075b8361074f81850382611142565b60405191829182610e51565b0390f35b91905060045f527f8a35acfbc15ff81a39ae7d344fd709f28e8600b4aa8c65c6b64bfe7fe36bd19b915f905b8082106107a35750909150810160200161074f61073f565b91926001816020925483858801015201910190929161078b565b7fffffffffffffffffffffffffffffffffffffffffffffffffffffffffffffff001660208086019190915291151560051b8401909101915061074f905061073f565b7f4e487b71000000000000000000000000000000000000000000000000000000005f52602260045260245ffd5b91607f1691610722565b346102ae5760407ffffffffffffffffffffffffffffffffffffffffffffffffffffffffffffffffc3601126102ae57602060043561039e610875610ef8565b9161087f816111e1565b8093336114db565b346102ae5760407ffffffffffffffffffffffffffffffffffffffffffffffffffffffffffffffffc3601126102ae57602060043561039e6108c6610ef8565b6108cf8361126a565b928391336114db565b610e99565b346102ae575f7ffffffffffffffffffffffffffffffffffffffffffffffffffffffffffffffffc3601126102ae5760055462093a80810180911161098a574210610962577f41787f1277821474072e18df95f0bd9ed9f117003aa97732ebbd737225b32b0260406006548151904282526020820152a15f600681905560075542600555005b7fec01c411000000000000000000000000000000000000000000000000000000005f5260045ffd5b7f4e487b71000000000000000000000000000000000000000000000000000000005f52601160045260245ffd5b346102ae575f7ffffffffffffffffffffffffffffffffffffffffffffffffffffffffffffffffc3601126102ae57602060405173ffffffffffffffffffffffffffffffffffffffff7f0000000000000000000000000000000000000000000000000000000000000000168152f35b346102ae575f7ffffffffffffffffffffffffffffffffffffffffffffffffffffffffffffffffc3601126102ae5760ff7f00000000000000000000000000000000000000000000000000000000000000001660ff811161098a57602090604051908152f35b346102ae575f7ffffffffffffffffffffffffffffffffffffffffffffffffffffffffffffffffc3601126102ae57602060405173ffffffffffffffffffffffffffffffffffffffff7f0000000000000000000000000000000000000000000000000000000000000000168152f35b346102ae5760607ffffffffffffffffffffffffffffffffffffffffffffffffffffffffffffffffc3601126102ae576105ee610b32610ed5565b610b3a610ef8565b60443591610b49833383611297565b6113b9565b346102ae575f7ffffffffffffffffffffffffffffffffffffffffffffffffffffffffffffffffc3601126102ae576020600254604051908152f35b346102ae575f7ffffffffffffffffffffffffffffffffffffffffffffffffffffffffffffffffc3601126102ae576020600554604051908152f35b346102ae5760207ffffffffffffffffffffffffffffffffffffffffffffffffffffffffffffffffc3601126102ae57602061039e60043561123c565b346102ae5760407ffffffffffffffffffffffffffffffffffffffffffffffffffffffffffffffffc3601126102ae57610c37610ed5565b602435903315610cd95773ffffffffffffffffffffffffffffffffffffffff16908115610cad57335f52600160205260405f20825f526020528060405f20556040519081527f8c5be1e5ebec7d5bd14f71427d1e84f3dd0314c0f7b2291e5b200ac8c7c3b92560203392a3602060405160018152f35b7f94280d62000000000000000000000000000000000000000000000000000000005f525f60045260245ffd5b7fe602df05000000000000000000000000000000000000000000000000000000005f525f60045260245ffd5b346102ae575f7ffffffffffffffffffffffffffffffffffffffffffffffffffffffffffffffffc3601126102ae576040515f6003548060011c90600181168015610dd4575b6020831081146107ff578285529081156107bd5750600114610d765761075b8361074f81850382611142565b91905060035f527fc2575a0e9e593c00f959f8c92f12db2869c3395a3b0502d05e2516446f71f85b915f905b808210610dba5750909150810160200161074f61073f565b919260018160209254838588010152019101909291610da2565b91607f1691610d4a565b346102ae575f7ffffffffffffffffffffffffffffffffffffffffffffffffffffffffffffffffc3601126102ae576020600654604051908152f35b346102ae575f7ffffffffffffffffffffffffffffffffffffffffffffffffffffffffffffffffc3601126102ae57602061039e611045565b7fffffffffffffffffffffffffffffffffffffffffffffffffffffffffffffffe0601f602060409481855280519182918282880152018686015e5f8582860101520116010190565b346102ae5760207ffffffffffffffffffffffffffffffffffffffffffffffffffffffffffffffffc3601126102ae57602061039e60043561120f565b6004359073ffffffffffffffffffffffffffffffffffffffff821682036102ae57565b6024359073ffffffffffffffffffffffffffffffffffffffff821682036102ae57565b346102ae5760207ffffffffffffffffffffffffffffffffffffffffffffffffffffffffffffffffc3601126102ae57610f52610ed5565b5060206040517fffffffffffffffffffffffffffffffffffffffffffffffffffffffffffffffff8152f35b7ffffffffffffffffffffffffffffffffffffffffffffffffffffffffffffffffc60609101126102ae576004359060243573ffffffffffffffffffffffffffffffffffffffff811681036102ae579060443573ffffffffffffffffffffffffffffffffffffffff811681036102ae5790565b346102ae5760207ffffffffffffffffffffffffffffffffffffffffffffffffffffffffffffffffc3601126102ae57602061039e60043561126a565b9190820391821161098a57565b9190820180921161098a57565b6110516005544261102b565b62093a8080821091180262093a801860065481810291818304149015171561098a57604051907f70a0823100000000000000000000000000000000000000000000000000000000825230600483015260208260248173ffffffffffffffffffffffffffffffffffffffff7f0000000000000000000000000000000000000000000000000000000000000000165afa918215611137575f92611100575b509062093a806110fd9204611038565b90565b91506020823d60201161112f575b8161111b60209383611142565b810103126102ae5790519062093a806110ed565b3d915061110e565b6040513d5f823e3d90fd5b90601f7fffffffffffffffffffffffffffffffffffffffffffffffffffffffffffffffe0910116810190811067ffffffffffffffff82111761118357604052565b7f4e487b71000000000000000000000000000000000000000000000000000000005f52604160045260245ffd5b6111bc6005544261102b565b1580156111d7575b6111d35762093a806006540490565b5f90565b50600654156111c4565b6111e9611045565b906001820180921161098a576002546001810180911161098a576110fd92600192611887565b611217611045565b906001820180921161098a576002546001810180911161098a576110fd925f92611887565b600254906001820180921161098a57611253611045565b6001810180911161098a576110fd92600192611887565b600254906001820180921161098a57611281611045565b6001810180911161098a576110fd925f92611887565b73ffffffffffffffffffffffffffffffffffffffff909291921691825f52600160205260405f2073ffffffffffffffffffffffffffffffffffffffff82165f5260205260405f2054927fffffffffffffffffffffffffffffffffffffffffffffffffffffffffffffffff841061130e575b50505050565b82841061136f578015610cd95773ffffffffffffffffffffffffffffffffffffffff821615610cad575f52600160205273ffffffffffffffffffffffffffffffffffffffff60405f2091165f5260205260405f20910390555f808080611308565b5073ffffffffffffffffffffffffffffffffffffffff83917ffb8f41b2000000000000000000000000000000000000000000000000000000005f521660045260245260445260645ffd5b73ffffffffffffffffffffffffffffffffffffffff169081156114af5773ffffffffffffffffffffffffffffffffffffffff1691821561148357815f525f60205260405f205481811061145157817fddf252ad1be2c89b69c2b068fc378daa952ba7f163c4a11628f55a4df523b3ef92602092855f525f84520360405f2055845f525f825260405f20818154019055604051908152a3565b827fe450d38c000000000000000000000000000000000000000000000000000000005f5260045260245260445260645ffd5b7fec442f05000000000000000000000000000000000000000000000000000000005f525f60045260245ffd5b7f96c6fd1e000000000000000000000000000000000000000000000000000000005f525f60045260245ffd5b929073ffffffffffffffffffffffffffffffffffffffff90611521843087857f0000000000000000000000000000000000000000000000000000000000000000166117b1565b169283156114835773ffffffffffffffffffffffffffffffffffffffff6040918361156f7fdcbc1c05240f31ff3ad067ef1ee35ce4997762752e3a095284754544f4c709d795600254611038565b600255865f525f602052835f20818154019055865f7fddf252ad1be2c89b69c2b068fc378daa952ba7f163c4a11628f55a4df523b3ef60208751858152a3835195865260208601521692a3565b919373ffffffffffffffffffffffffffffffffffffffff8516948173ffffffffffffffffffffffffffffffffffffffff8516948786036117a0575b50505084156114af57845f525f60205260405f205481811061176e578190865f525f6020520360405f205580600254036002555f857fddf252ad1be2c89b69c2b068fc378daa952ba7f163c4a11628f55a4df523b3ef6020604051858152a373ffffffffffffffffffffffffffffffffffffffff7f0000000000000000000000000000000000000000000000000000000000000000169373ffffffffffffffffffffffffffffffffffffffff604051937fa9059cbb000000000000000000000000000000000000000000000000000000005f521694856004528160245260205f60448180855af160015f511481161561174f575b84604052156117245750825260208201527ffbde797d201c681b91056529119e0b02407c7bb96a4a2c75c01fc9667232c8db90604090a4565b7f5274afe7000000000000000000000000000000000000000000000000000000005f5260045260245ffd5b600181151661176557813b15153d1516166116eb565b843d5f823e3d90fd5b857fe450d38c000000000000000000000000000000000000000000000000000000005f5260045260245260445260645ffd5b6117a992611297565b5f81816115f7565b92909173ffffffffffffffffffffffffffffffffffffffff9081604051947f23b872dd000000000000000000000000000000000000000000000000000000005f52166004521660245260445260205f60648180865af19060015f5114821615611866575b6040525f606052156118245750565b73ffffffffffffffffffffffffffffffffffffffff907f5274afe7000000000000000000000000000000000000000000000000000000005f521660045260245ffd5b90600181151661187e57823b15153d15161690611815565b503d5f823e3d90fd5b929161189481838661192b565b9260048110156118fe5760018091161491826118ba575b50506110fd9250151590611038565b90809250156118d1576110fd930915155f806118ab565b7f4e487b71000000000000000000000000000000000000000000000000000000005f52601260045260245ffd5b7f4e487b71000000000000000000000000000000000000000000000000000000005f52602160045260245ffd5b90917fffffffffffffffffffffffffffffffffffffffffffffffffffffffffffffffff83830992808302928380861095039480860395146119db57848311156119c35790829109815f0382168092046002816003021880820260020302808202600203028082026002030280820260020302808202600203028091026002030293600183805f03040190848311900302920304170290565b82634e487b715f52156003026011186020526024601cfd5b5050915081156118d157049056fea264697066735822122093fa8b7e2265cd27eddaa7af7bda95b7c16e9c6ad1e722eab031399ffae6099864736f6c634300081a0033","linkReferences":{}},"methodIdentifiers":{"ADMIN()":"2a0acc6a","EPOCH_DURATION()":"a70b9f0c","HOOK()":"a54eb242","advanceEpoch()":"3cf80e6c","allowance(address,address)":"dd62ed3e","approve(address,uint256)":"095ea7b3","asset()":"38d52e0f","balanceOf(address)":"70a08231","convertToAssets(uint256)":"07a2d13a","convertToShares(uint256)":"c6e6f592","currentDripRate()":"d3556dee","decimals()":"313ce567","deposit(uint256,address)":"6e553f65","depositFees(uint256)":"ebdac090","epochFeesAccrued()":"061344d4","epochFeesReleased()":"9811f9f3","epochStart()":"15e5a1e5","maxDeposit(address)":"402d267d","maxMint(address)":"c63d75b6","maxRedeem(address)":"d905777e","maxWithdraw(address)":"ce96cb77","mint(uint256,address)":"94bf804d","name()":"06fdde03","previewDeposit(uint256)":"ef8b30f7","previewMint(uint256)":"b3d7f6b9","previewRedeem(uint256)":"4cdad506","previewWithdraw(uint256)":"0a28a477","redeem(uint256,address,address)":"ba087652","symbol()":"95d89b41","totalAssets()":"01e1d114","totalSupply()":"18160ddd","transfer(address,uint256)":"a9059cbb","transferFrom(address,address,uint256)":"23b872dd","withdraw(uint256,address,address)":"b460af94"},"id":124}