{"abi":[{"type":"constructor","inputs":[{"name":"_usdc","type":"address","internalType":"contract IERC20"},{"name":"_hook","type":"address","internalType":"address"},{"name":"_admin","type":"address","internalType":"address"}],"stateMutability":"nonpayable"},{"type":"function","name":"EPOCH_DURATION","inputs":[],"outputs":[{"name":"","type":"uint256","internalType":"uint256"}],"stateMutability":"view"},{"type":"function","name":"admin","inputs":[],"outputs":[{"name":"","type":"address","internalType":"address"}],"stateMutability":"view"},{"type":"function","name":"advanceEpoch","inputs":[],"outputs":[],"stateMutability":"nonpayable"},{"type":"function","name":"allowance","inputs":[{"name":"owner","type":"address","internalType":"address"},{"name":"spender","type":"address","internalType":"address"}],"outputs":[{"name":"","type":"uint256","internalType":"uint256"}],"stateMutability":"view"},{"type":"function","name":"approve","inputs":[{"name":"spender","type":"address","internalType":"address"},{"name":"value","type":"uint256","internalType":"uint256"}],"outputs":[{"name":"","type":"bool","internalType":"bool"}],"stateMutability":"nonpayable"},{"type":"function","name":"asset","inputs":[],"outputs":[{"name":"","type":"address","internalType":"address"}],"stateMutability":"view"},{"type":"function","name":"balanceOf","inputs":[{"name":"account","type":"address","internalType":"address"}],"outputs":[{"name":"","type":"uint256","internalType":"uint256"}],"stateMutability":"view"},{"type":"function","name":"convertToAssets","inputs":[{"name":"shares","type":"uint256","internalType":"uint256"}],"outputs":[{"name":"","type":"uint256","internalType":"uint256"}],"stateMutability":"view"},{"type":"function","name":"convertToShares","inputs":[{"name":"assets","type":"uint256","internalType":"uint256"}],"outputs":[{"name":"","type":"uint256","internalType":"uint256"}],"stateMutability":"view"},{"type":"function","name":"currentDripRate","inputs":[],"outputs":[{"name":"","type":"uint256","internalType":"uint256"}],"stateMutability":"view"},{"type":"function","name":"decimals","inputs":[],"outputs":[{"name":"","type":"uint8","internalType":"uint8"}],"stateMutability":"view"},{"type":"function","name":"deposit","inputs":[{"name":"assets","type":"uint256","internalType":"uint256"},{"name":"receiver","type":"address","internalType":"address"}],"outputs":[{"name":"","type":"uint256","internalType":"uint256"}],"stateMutability":"nonpayable"},{"type":"function","name":"depositFees","inputs":[{"name":"amount","type":"uint256","internalType":"uint256"}],"outputs":[],"stateMutability":"nonpayable"},{"type":"function","name":"epochFeesAccrued","inputs":[],"outputs":[{"name":"","type":"uint256","internalType":"uint256"}],"stateMutability":"view"},{"type":"function","name":"epochFeesReleased","inputs":[],"outputs":[{"name":"","type":"uint256","internalType":"uint256"}],"stateMutability":"view"},{"type":"function","name":"epochStart","inputs":[],"outputs":[{"name":"","type":"uint256","internalType":"uint256"}],"stateMutability":"view"},{"type":"function","name":"hook","inputs":[],"outputs":[{"name":"","type":"address","internalType":"address"}],"stateMutability":"view"},{"type":"function","name":"maxDeposit","inputs":[{"name":"","type":"address","internalType":"address"}],"outputs":[{"name":"","type":"uint256","internalType":"uint256"}],"stateMutability":"view"},{"type":"function","name":"maxMint","inputs":[{"name":"","type":"address","internalType":"address"}],"outputs":[{"name":"","type":"uint256","internalType":"uint256"}],"stateMutability":"view"},{"type":"function","name":"maxRedeem","inputs":[{"name":"owner","type":"address","internalType":"address"}],"outputs":[{"name":"","type":"uint256","internalType":"uint256"}],"stateMutability":"view"},{"type":"function","name":"maxWithdraw","inputs":[{"name":"owner","type":"address","internalType":"address"}],"outputs":[{"name":"","type":"uint256","internalType":"uint256"}],"stateMutability":"view"},{"type":"function","name":"mint","inputs":[{"name":"shares","type":"uint256","internalType":"uint256"},{"name":"receiver","type":"address","internalType":"address"}],"outputs":[{"name":"","type":"uint256","internalType":"uint256"}],"stateMutability":"nonpayable"},{"type":"function","name":"name","inputs":[],"outputs":[{"name":"","type":"string","internalType":"string"}],"stateMutability":"view"},{"type":"function","name":"previewDeposit","inputs":[{"name":"assets","type":"uint256","internalType":"uint256"}],"outputs":[{"name":"","type":"uint256","internalType":"uint256"}],"stateMutability":"view"},{"type":"function","name":"previewMint","inputs":[{"name":"shares","type":"uint256","internalType":"uint256"}],"outputs":[{"name":"","type":"uint256","internalType":"uint256"}],"stateMutability":"view"},{"type":"function","name":"previewRedeem","inputs":[{"name":"shares","type":"uint256","internalType":"uint256"}],"outputs":[{"name":"","type":"uint256","internalType":"uint256"}],"stateMutability":"view"},{"type":"function","name":"previewWithdraw","inputs":[{"name":"assets","type":"uint256","internalType":"uint256"}],"outputs":[{"name":"","type":"uint256","internalType":"uint256"}],"stateMutability":"view"},{"type":"function","name":"redeem","inputs":[{"name":"shares","type":"uint256","internalType":"uint256"},{"name":"receiver","type":"address","internalType":"address"},{"name":"owner","type":"address","internalType":"address"}],"outputs":[{"name":"","type":"uint256","internalType":"uint256"}],"stateMutability":"nonpayable"},{"type":"function","name":"symbol","inputs":[],"outputs":[{"name":"","type":"string","internalType":"string"}],"stateMutability":"view"},{"type":"function","name":"totalAssets","inputs":[],"outputs":[{"name":"","type":"uint256","internalType":"uint256"}],"stateMutability":"view"},{"type":"function","name":"totalSupply","inputs":[],"outputs":[{"name":"","type":"uint256","internalType":"uint256"}],"stateMutability":"view"},{"type":"function","name":"transfer","inputs":[{"name":"to","type":"address","internalType":"address"},{"name":"value","type":"uint256","internalType":"uint256"}],"outputs":[{"name":"","type":"bool","internalType":"bool"}],"stateMutability":"nonpayable"},{"type":"function","name":"transferFrom","inputs":[{"name":"from","type":"address","internalType":"address"},{"name":"to","type":"address","internalType":"address"},{"name":"value","type":"uint256","internalType":"uint256"}],"outputs":[{"name":"","type":"bool","internalType":"bool"}],"stateMutability":"nonpayable"},{"type":"function","name":"withdraw","inputs":[{"name":"assets","type":"uint256","internalType":"uint256"},{"name":"receiver","type":"address","internalType":"address"},{"name":"owner","type":"address","internalType":"address"}],"outputs":[{"name":"","type":"uint256","internalType":"uint256"}],"stateMutability":"nonpayable"},{"type":"event","name":"Approval","inputs":[{"name":"owner","type":"address","indexed":true,"internalType":"address"},{"name":"spender","type":"address","indexed":true,"internalType":"address"},{"name":"value","type":"uint256","indexed":false,"internalType":"uint256"}],"anonymous":false},{"type":"event","name":"Deposit","inputs":[{"name":"sender","type":"address","indexed":true,"internalType":"address"},{"name":"owner","type":"address","indexed":true,"internalType":"address"},{"name":"assets","type":"uint256","indexed":false,"internalType":"uint256"},{"name":"shares","type":"uint256","indexed":false,"internalType":"uint256"}],"anonymous":false},{"type":"event","name":"EpochStarted","inputs":[{"name":"timestamp","type":"uint256","indexed":false,"internalType":"uint256"},{"name":"previousEpochFees","type":"uint256","indexed":false,"internalType":"uint256"}],"anonymous":false},{"type":"event","name":"FeeDeposited","inputs":[{"name":"amount","type":"uint256","indexed":false,"internalType":"uint256"},{"name":"epochTotal","type":"uint256","indexed":false,"internalType":"uint256"}],"anonymous":false},{"type":"event","name":"Transfer","inputs":[{"name":"from","type":"address","indexed":true,"internalType":"address"},{"name":"to","type":"address","indexed":true,"internalType":"address"},{"name":"value","type":"uint256","indexed":false,"internalType":"uint256"}],"anonymous":false},{"type":"event","name":"Withdraw","inputs":[{"name":"sender","type":"address","indexed":true,"internalType":"address"},{"name":"receiver","type":"address","indexed":true,"internalType":"address"},{"name":"owner","type":"address","indexed":true,"internalType":"address"},{"name":"assets","type":"uint256","indexed":false,"internalType":"uint256"},{"name":"shares","type":"uint256","indexed":false,"internalType":"uint256"}],"anonymous":false},{"type":"event","name":"YieldClaimed","inputs":[{"name":"lp","type":"address","indexed":true,"internalType":"address"},{"name":"amount","type":"uint256","indexed":false,"internalType":"uint256"}],"anonymous":false},{"type":"error","name":"ERC20InsufficientAllowance","inputs":[{"name":"spender","type":"address","internalType":"address"},{"name":"allowance","type":"uint256","internalType":"uint256"},{"name":"needed","type":"uint256","internalType":"uint256"}]},{"type":"error","name":"ERC20InsufficientBalance","inputs":[{"name":"sender","type":"address","internalType":"address"},{"name":"balance","type":"uint256","internalType":"uint256"},{"name":"needed","type":"uint256","internalType":"uint256"}]},{"type":"error","name":"ERC20InvalidApprover","inputs":[{"name":"approver","type":"address","internalType":"address"}]},{"type":"error","name":"ERC20InvalidReceiver","inputs":[{"name":"receiver","type":"address","internalType":"address"}]},{"type":"error","name":"ERC20InvalidSender","inputs":[{"name":"sender","type":"address","internalType":"address"}]},{"type":"error","name":"ERC20InvalidSpender","inputs":[{"name":"spender","type":"address","internalType":"address"}]},{"type":"error","name":"ERC4626ExceededMaxDeposit","inputs":[{"name":"receiver","type":"address","internalType":"address"},{"name":"assets","type":"uint256","internalType":"uint256"},{"name":"max","type":"uint256","internalType":"uint256"}]},{"type":"error","name":"ERC4626ExceededMaxMint","inputs":[{"name":"receiver","type":"address","internalType":"address"},{"name":"shares","type":"uint256","internalType":"uint256"},{"name":"max","type":"uint256","internalType":"uint256"}]},{"type":"error","name":"ERC4626ExceededMaxRedeem","inputs":[{"name":"owner","type":"address","internalType":"address"},{"name":"shares","type":"uint256","internalType":"uint256"},{"name":"max","type":"uint256","internalType":"uint256"}]},{"type":"error","name":"ERC4626ExceededMaxWithdraw","inputs":[{"name":"owner","type":"address","internalType":"address"},{"name":"assets","type":"uint256","internalType":"uint256"},{"name":"max","type":"uint256","internalType":"uint256"}]},{"type":"error","name":"EpochNotComplete","inputs":[]},{"type":"error","name":"OnlyHook","inputs":[]},{"type":"error","name":"SafeERC20FailedOperation","inputs":[{"name":"token","type":"address","internalType":"address"}]}],"bytecode":{"object":"0x610100806040523461044557606081611ec780380380916100208285610449565b8339810103126104455780516001600160a01b0381169182820361044557610056604061004f6020840161046c565b920161046c565b91604051610065604082610449565b601581527f486f6f6b4d696e64205969656c6420536861726573000000000000000000000060208201526040519061009e604083610449565b60078252661a1b565251531160ca1b60208301528051906001600160401b0382116103485760035490600182811c9216801561043b575b602083101461032a5781601f8493116103cd575b50602090601f8311600114610367575f9261035c575b50508160011b915f199060031b1c1916176003555b8051906001600160401b0382116103485760045490600182811c9216801561033e575b602083101461032a5781601f8493116102bc575b50602090601f8311600114610256575f9261024b575b50508160011b915f199060031b1c1916176004555b60405f8151956020870163313ce56760e01b815260048852610199602489610449565b8751915afa5f51908560405280610240575b80610235575b1561022d5760ff1660015b15610225575b60a05260805260c05260e05242600555611a46908161048182396080518181816102cb01528181610af601528181611144015281816115700152611795015260a05181610b4c015260c05181818161024f0152610958015260e051816101d90152f35b5060126101c2565b505f806101bc565b5060ff8111156101b1565b5060203d10156101ab565b015190505f80610161565b60045f9081528281209350601f198516905b8181106102a4575090846001959493921061028c575b505050811b01600455610176565b01515f1960f88460031b161c191690555f808061027e565b92936020600181928786015181550195019301610268565b60045f529091507f8a35acfbc15ff81a39ae7d344fd709f28e8600b4aa8c65c6b64bfe7fe36bd19b601f840160051c81019160208510610320575b90601f859493920160051c01905b818110610312575061014b565b5f8155849350600101610305565b90915081906102f7565b634e487b7160e01b5f52602260045260245ffd5b91607f1691610137565b634e487b7160e01b5f52604160045260245ffd5b015190505f806100ff565b60035f9081528281209350601f198516905b8181106103b5575090846001959493921061039d575b505050811b01600355610114565b01515f1960f88460031b161c191690555f808061038f565b92936020600181928786015181550195019301610379565b60035f529091507fc2575a0e9e593c00f959f8c92f12db2869c3395a3b0502d05e2516446f71f85b601f840160051c81019160208510610431575b90601f859493920160051c01905b81811061042357506100e9565b5f8155849350600101610416565b9091508190610408565b91607f16916100d5565b5f80fd5b601f909101601f19168101906001600160401b0382119082101761034857604052565b51906001600160a01b03821682036104455756fe60806040526004361015610011575f80fd5b5f3560e01c806301e1d11414610ea0578063061344d414610e6557806306fdde0314610d8c57806307a2d13a146109cd578063095ea7b314610c875780630a28a47714610c4b57806315e5a1e514610c1057806318160ddd14610bd557806323b872dd14610b7f578063313ce56714610b1a57806338d52e0f14610aac5780633cf80e6c146109d2578063402d267d146105175780634cdad506146109cd5780636e553f651461097c57806370a08231146104335780637f5a7c7b1461090e57806394bf804d146108bd57806395d89b41146107645780639811f9f314610729578063a70b9f0c146106ee578063a9059cbb1461069f578063b3d7f6b914610663578063b460af94146105be578063ba0876521461051c578063c63d75b614610517578063c6e6f59214610201578063ce96cb77146104d3578063d3556dee1461049b578063d905777e14610433578063dd62ed3e146103a7578063ebdac09014610206578063ef8b30f7146102015763f851a4401461018f575f80fd5b346101fd575f7ffffffffffffffffffffffffffffffffffffffffffffffffffffffffffffffffc3601126101fd57602060405173ffffffffffffffffffffffffffffffffffffffff7f0000000000000000000000000000000000000000000000000000000000000000168152f35b5f80fd5b611076565b346101fd5760207ffffffffffffffffffffffffffffffffffffffffffffffffffffffffffffffffc3601126101fd5760043573ffffffffffffffffffffffffffffffffffffffff7f000000000000000000000000000000000000000000000000000000000000000016330361037f576040517f23b872dd0000000000000000000000000000000000000000000000000000000081523360048201523060248201528160448201526020816064815f73ffffffffffffffffffffffffffffffffffffffff7f0000000000000000000000000000000000000000000000000000000000000000165af1801561037457610339575b7f438640be9558058e47957699bdabaefce31bf0b8662a30791d4fb0e8c76df723604083610328816006546110bf565b8060065582519182526020820152a1005b6020813d60201161036c575b81610352602093836111be565b810103126101fd575180151581036101fd575060406102f8565b3d9150610345565b6040513d5f823e3d90fd5b7f5a91834f000000000000000000000000000000000000000000000000000000005f5260045ffd5b346101fd5760407ffffffffffffffffffffffffffffffffffffffffffffffffffffffffffffffffc3601126101fd576103de610f5c565b73ffffffffffffffffffffffffffffffffffffffff6103fb610f7f565b91165f52600160205273ffffffffffffffffffffffffffffffffffffffff60405f2091165f52602052602060405f2054604051908152f35b346101fd5760207ffffffffffffffffffffffffffffffffffffffffffffffffffffffffffffffffc3601126101fd57602061049361046f610f5c565b73ffffffffffffffffffffffffffffffffffffffff165f525f60205260405f205490565b604051908152f35b346101fd575f7ffffffffffffffffffffffffffffffffffffffffffffffffffffffffffffffffc3601126101fd57602061049361122c565b346101fd5760207ffffffffffffffffffffffffffffffffffffffffffffffffffffffffffffffffc3601126101fd57602061049361051261046f610f5c565b61128b565b610fa2565b346101fd5761052a36611004565b91906105548373ffffffffffffffffffffffffffffffffffffffff165f525f60205260405f205490565b80831161057557602084610493858561056c8261128b565b938491336116e4565b8273ffffffffffffffffffffffffffffffffffffffff857fb94abeec000000000000000000000000000000000000000000000000000000005f521660045260245260445260645ffd5b346101fd576105cc36611004565b90916105f96105128373ffffffffffffffffffffffffffffffffffffffff165f525f60205260405f205490565b80821161061a575060209281610611610493936112b8565b938492336116e4565b9173ffffffffffffffffffffffffffffffffffffffff907ffe9cceec000000000000000000000000000000000000000000000000000000005f521660045260245260445260645ffd5b346101fd5760207ffffffffffffffffffffffffffffffffffffffffffffffffffffffffffffffffc3601126101fd57602061049360043561125d565b346101fd5760407ffffffffffffffffffffffffffffffffffffffffffffffffffffffffffffffffc3601126101fd576106e36106d9610f5c565b6024359033611435565b602060405160018152f35b346101fd575f7ffffffffffffffffffffffffffffffffffffffffffffffffffffffffffffffffc3601126101fd57602060405162093a808152f35b346101fd575f7ffffffffffffffffffffffffffffffffffffffffffffffffffffffffffffffffc3601126101fd576020600754604051908152f35b346101fd575f7ffffffffffffffffffffffffffffffffffffffffffffffffffffffffffffffffc3601126101fd576040515f6004548060011c906001811680156108b3575b6020831081146108865782855290811561084457506001146107e6575b6107e2836107d6818503826111be565b60405191829182610ed8565b0390f35b91905060045f527f8a35acfbc15ff81a39ae7d344fd709f28e8600b4aa8c65c6b64bfe7fe36bd19b915f905b80821061082a575090915081016020016107d66107c6565b919260018160209254838588010152019101909291610812565b7fffffffffffffffffffffffffffffffffffffffffffffffffffffffffffffff001660208086019190915291151560051b840190910191506107d690506107c6565b7f4e487b71000000000000000000000000000000000000000000000000000000005f52602260045260245ffd5b91607f16916107a9565b346101fd5760407ffffffffffffffffffffffffffffffffffffffffffffffffffffffffffffffffc3601126101fd5760206004356104936108fc610f7f565b916109068161125d565b809333611557565b346101fd575f7ffffffffffffffffffffffffffffffffffffffffffffffffffffffffffffffffc3601126101fd57602060405173ffffffffffffffffffffffffffffffffffffffff7f0000000000000000000000000000000000000000000000000000000000000000168152f35b346101fd5760407ffffffffffffffffffffffffffffffffffffffffffffffffffffffffffffffffc3601126101fd5760206004356104936109bb610f7f565b6109c4836112e6565b92839133611557565b610f20565b346101fd575f7ffffffffffffffffffffffffffffffffffffffffffffffffffffffffffffffffc3601126101fd5760055462093a808101809111610a7f574210610a57577f41787f1277821474072e18df95f0bd9ed9f117003aa97732ebbd737225b32b0260406006548151904282526020820152a15f600681905560075542600555005b7fec01c411000000000000000000000000000000000000000000000000000000005f5260045ffd5b7f4e487b71000000000000000000000000000000000000000000000000000000005f52601160045260245ffd5b346101fd575f7ffffffffffffffffffffffffffffffffffffffffffffffffffffffffffffffffc3601126101fd57602060405173ffffffffffffffffffffffffffffffffffffffff7f0000000000000000000000000000000000000000000000000000000000000000168152f35b346101fd575f7ffffffffffffffffffffffffffffffffffffffffffffffffffffffffffffffffc3601126101fd5760ff7f00000000000000000000000000000000000000000000000000000000000000001660ff8111610a7f57602090604051908152f35b346101fd5760607ffffffffffffffffffffffffffffffffffffffffffffffffffffffffffffffffc3601126101fd576106e3610bb9610f5c565b610bc1610f7f565b60443591610bd0833383611313565b611435565b346101fd575f7ffffffffffffffffffffffffffffffffffffffffffffffffffffffffffffffffc3601126101fd576020600254604051908152f35b346101fd575f7ffffffffffffffffffffffffffffffffffffffffffffffffffffffffffffffffc3601126101fd576020600554604051908152f35b346101fd5760207ffffffffffffffffffffffffffffffffffffffffffffffffffffffffffffffffc3601126101fd5760206104936004356112b8565b346101fd5760407ffffffffffffffffffffffffffffffffffffffffffffffffffffffffffffffffc3601126101fd57610cbe610f5c565b602435903315610d605773ffffffffffffffffffffffffffffffffffffffff16908115610d3457335f52600160205260405f20825f526020528060405f20556040519081527f8c5be1e5ebec7d5bd14f71427d1e84f3dd0314c0f7b2291e5b200ac8c7c3b92560203392a3602060405160018152f35b7f94280d62000000000000000000000000000000000000000000000000000000005f525f60045260245ffd5b7fe602df05000000000000000000000000000000000000000000000000000000005f525f60045260245ffd5b346101fd575f7ffffffffffffffffffffffffffffffffffffffffffffffffffffffffffffffffc3601126101fd576040515f6003548060011c90600181168015610e5b575b602083108114610886578285529081156108445750600114610dfd576107e2836107d6818503826111be565b91905060035f527fc2575a0e9e593c00f959f8c92f12db2869c3395a3b0502d05e2516446f71f85b915f905b808210610e41575090915081016020016107d66107c6565b919260018160209254838588010152019101909291610e29565b91607f1691610dd1565b346101fd575f7ffffffffffffffffffffffffffffffffffffffffffffffffffffffffffffffffc3601126101fd576020600654604051908152f35b346101fd575f7ffffffffffffffffffffffffffffffffffffffffffffffffffffffffffffffffc3601126101fd5760206104936110cc565b7fffffffffffffffffffffffffffffffffffffffffffffffffffffffffffffffe0601f602060409481855280519182918282880152018686015e5f8582860101520116010190565b346101fd5760207ffffffffffffffffffffffffffffffffffffffffffffffffffffffffffffffffc3601126101fd57602061049360043561128b565b6004359073ffffffffffffffffffffffffffffffffffffffff821682036101fd57565b6024359073ffffffffffffffffffffffffffffffffffffffff821682036101fd57565b346101fd5760207ffffffffffffffffffffffffffffffffffffffffffffffffffffffffffffffffc3601126101fd57610fd9610f5c565b5060206040517fffffffffffffffffffffffffffffffffffffffffffffffffffffffffffffffff8152f35b7ffffffffffffffffffffffffffffffffffffffffffffffffffffffffffffffffc60609101126101fd576004359060243573ffffffffffffffffffffffffffffffffffffffff811681036101fd579060443573ffffffffffffffffffffffffffffffffffffffff811681036101fd5790565b346101fd5760207ffffffffffffffffffffffffffffffffffffffffffffffffffffffffffffffffc3601126101fd5760206104936004356112e6565b91908203918211610a7f57565b91908201809211610a7f57565b6110d8600554426110b2565b62093a8080821091180262093a8018600654818102918183041490151715610a7f57604051907f70a0823100000000000000000000000000000000000000000000000000000000825230600483015260208260248173ffffffffffffffffffffffffffffffffffffffff7f0000000000000000000000000000000000000000000000000000000000000000165afa918215610374575f92611187575b509062093a8061118492046110bf565b90565b91506020823d6020116111b6575b816111a2602093836111be565b810103126101fd5790519062093a80611174565b3d9150611195565b90601f7fffffffffffffffffffffffffffffffffffffffffffffffffffffffffffffffe0910116810190811067ffffffffffffffff8211176111ff57604052565b7f4e487b71000000000000000000000000000000000000000000000000000000005f52604160045260245ffd5b611238600554426110b2565b158015611253575b61124f5762093a806006540490565b5f90565b5060065415611240565b6112656110cc565b9060018201809211610a7f5760025460018101809111610a7f57611184926001926118ae565b6112936110cc565b9060018201809211610a7f5760025460018101809111610a7f57611184925f926118ae565b6002549060018201809211610a7f576112cf6110cc565b60018101809111610a7f57611184926001926118ae565b6002549060018201809211610a7f576112fd6110cc565b60018101809111610a7f57611184925f926118ae565b73ffffffffffffffffffffffffffffffffffffffff909291921691825f52600160205260405f2073ffffffffffffffffffffffffffffffffffffffff82165f5260205260405f2054927fffffffffffffffffffffffffffffffffffffffffffffffffffffffffffffffff841061138a575b50505050565b8284106113eb578015610d605773ffffffffffffffffffffffffffffffffffffffff821615610d34575f52600160205273ffffffffffffffffffffffffffffffffffffffff60405f2091165f5260205260405f20910390555f808080611384565b5073ffffffffffffffffffffffffffffffffffffffff83917ffb8f41b2000000000000000000000000000000000000000000000000000000005f521660045260245260445260645ffd5b73ffffffffffffffffffffffffffffffffffffffff1690811561152b5773ffffffffffffffffffffffffffffffffffffffff169182156114ff57815f525f60205260405f20548181106114cd57817fddf252ad1be2c89b69c2b068fc378daa952ba7f163c4a11628f55a4df523b3ef92602092855f525f84520360405f2055845f525f825260405f20818154019055604051908152a3565b827fe450d38c000000000000000000000000000000000000000000000000000000005f5260045260245260445260645ffd5b7fec442f05000000000000000000000000000000000000000000000000000000005f525f60045260245ffd5b7f96c6fd1e000000000000000000000000000000000000000000000000000000005f525f60045260245ffd5b919073ffffffffffffffffffffffffffffffffffffffff7f00000000000000000000000000000000000000000000000000000000000000001673ffffffffffffffffffffffffffffffffffffffff604051947f23b872dd000000000000000000000000000000000000000000000000000000005f52169384600452306024528360445260205f60648180865af19060015f51148216156116c3575b6040525f60605215611698575073ffffffffffffffffffffffffffffffffffffffff169283156114ff577fdcbc1c05240f31ff3ad067ef1ee35ce4997762752e3a095284754544f4c709d7918161164d6040936002546110bf565b600255855f525f602052825f20818154019055855f7fddf252ad1be2c89b69c2b068fc378daa952ba7f163c4a11628f55a4df523b3ef60208651858152a382519182526020820152a3565b7f5274afe7000000000000000000000000000000000000000000000000000000005f5260045260245ffd5b9060018115166116db57823b15153d151616906115f2565b503d5f823e3d90fd5b919373ffffffffffffffffffffffffffffffffffffffff8516948173ffffffffffffffffffffffffffffffffffffffff85169487860361189d575b505050841561152b57845f525f60205260405f205481811061186b578190865f525f6020520360405f205580600254036002555f857fddf252ad1be2c89b69c2b068fc378daa952ba7f163c4a11628f55a4df523b3ef6020604051858152a373ffffffffffffffffffffffffffffffffffffffff7f0000000000000000000000000000000000000000000000000000000000000000169373ffffffffffffffffffffffffffffffffffffffff604051937fa9059cbb000000000000000000000000000000000000000000000000000000005f521694856004528160245260205f60448180855af160015f511481161561184c575b84604052156116985750825260208201527ffbde797d201c681b91056529119e0b02407c7bb96a4a2c75c01fc9667232c8db90604090a4565b600181151661186257813b15153d151616611813565b843d5f823e3d90fd5b857fe450d38c000000000000000000000000000000000000000000000000000000005f5260045260245260445260645ffd5b6118a692611313565b5f818161171f565b92916118bb818386611952565b9260048110156119255760018091161491826118e1575b505061118492501515906110bf565b90809250156118f857611184930915155f806118d2565b7f4e487b71000000000000000000000000000000000000000000000000000000005f52601260045260245ffd5b7f4e487b71000000000000000000000000000000000000000000000000000000005f52602160045260245ffd5b90917fffffffffffffffffffffffffffffffffffffffffffffffffffffffffffffffff8383099280830292838086109503948086039514611a0257848311156119ea5790829109815f0382168092046002816003021880820260020302808202600203028082026002030280820260020302808202600203028091026002030293600183805f03040190848311900302920304170290565b82634e487b715f52156003026011186020526024601cfd5b5050915081156118f857049056fea2646970667358221220dd4219ab203807cb4bbc26ec59c4a3684cde318f327a15679f2cce9efe4c6a9264736f6c634300081a0033","linkReferences":{}},"methodIdentifiers":{"EPOCH_DURATION()":"a70b9f0c","admin()":"f851a440","advanceEpoch()":"3cf80e6c","allowance(address,address)":"dd62ed3e","approve(address,uint256)":"095ea7b3","asset()":"38d52e0f","balanceOf(address)":"70a08231","convertToAssets(uint256)":"07a2d13a","convertToShares(uint256)":"c6e6f592","currentDripRate()":"d3556dee","decimals()":"313ce567","deposit(uint256,address)":"6e553f65","depositFees(uint256)":"ebdac090","epochFeesAccrued()":"061344d4","epochFeesReleased()":"9811f9f3","epochStart()":"15e5a1e5","hook()":"7f5a7c7b","maxDeposit(address)":"402d267d","maxMint(address)":"c63d75b6","maxRedeem(address)":"d905777e","maxWithdraw(address)":"ce96cb77","mint(uint256,address)":"94bf804d","name()":"06fdde03","previewDeposit(uint256)":"ef8b30f7","previewMint(uint256)":"b3d7f6b9","previewRedeem(uint256)":"4cdad506","previewWithdraw(uint256)":"0a28a477","redeem(uint256,address,address)":"ba087652","symbol()":"95d89b41","totalAssets()":"01e1d114","totalSupply()":"18160ddd","transfer(address,uint256)":"a9059cbb","transferFrom(address,address,uint256)":"23b872dd","withdraw(uint256,address,address)":"b460af94"},"id":69}